{
  "contractName": "ExtendedGnosisSafeA",
  "abi": [
    {
      "constant": true,
      "inputs": [
        {
          "name": "message",
          "type": "bytes"
        }
      ],
      "name": "getMessageHash",
      "outputs": [
        {
          "name": "",
          "type": "bytes32"
        }
      ],
      "payable": false,
      "stateMutability": "view",
      "type": "function"
    },
    {
      "constant": false,
      "inputs": [
        {
          "name": "owner",
          "type": "address"
        },
        {
          "name": "_threshold",
          "type": "uint256"
        }
      ],
      "name": "addOwnerWithThreshold",
      "outputs": [],
      "payable": false,
      "stateMutability": "nonpayable",
      "type": "function"
    },
    {
      "constant": false,
      "inputs": [
        {
          "name": "_data",
          "type": "bytes"
        },
        {
          "name": "_signature",
          "type": "bytes"
        }
      ],
      "name": "isValidSignature",
      "outputs": [
        {
          "name": "",
          "type": "bytes4"
        }
      ],
      "payable": false,
      "stateMutability": "nonpayable",
      "type": "function"
    },
    {
      "constant": true,
      "inputs": [
        {
          "name": "owner",
          "type": "address"
        }
      ],
      "name": "isOwner",
      "outputs": [
        {
          "name": "",
          "type": "bool"
        }
      ],
      "payable": false,
      "stateMutability": "view",
      "type": "function"
    },
    {
      "constant": false,
      "inputs": [
        {
          "name": "to",
          "type": "address"
        },
        {
          "name": "value",
          "type": "uint256"
        },
        {
          "name": "data",
          "type": "bytes"
        },
        {
          "name": "operation",
          "type": "uint8"
        }
      ],
      "name": "execTransactionFromModule",
      "outputs": [
        {
          "name": "success",
          "type": "bool"
        }
      ],
      "payable": false,
      "stateMutability": "nonpayable",
      "type": "function"
    },
    {
      "constant": false,
      "inputs": [
        {
          "name": "to",
          "type": "address"
        },
        {
          "name": "value",
          "type": "uint256"
        },
        {
          "name": "data",
          "type": "bytes"
        },
        {
          "name": "operation",
          "type": "uint8"
        }
      ],
      "name": "execTransactionFromModuleReturnData",
      "outputs": [
        {
          "name": "success",
          "type": "bool"
        },
        {
          "name": "returnData",
          "type": "bytes"
        }
      ],
      "payable": false,
      "stateMutability": "nonpayable",
      "type": "function"
    },
    {
      "constant": true,
      "inputs": [
        {
          "name": "",
          "type": "bytes32"
        }
      ],
      "name": "signedMessages",
      "outputs": [
        {
          "name": "",
          "type": "uint256"
        }
      ],
      "payable": false,
      "stateMutability": "view",
      "type": "function"
    },
    {
      "constant": false,
      "inputs": [
        {
          "name": "module",
          "type": "address"
        }
      ],
      "name": "enableModule",
      "outputs": [],
      "payable": false,
      "stateMutability": "nonpayable",
      "type": "function"
    },
    {
      "constant": false,
      "inputs": [
        {
          "name": "_threshold",
          "type": "uint256"
        }
      ],
      "name": "changeThreshold",
      "outputs": [],
      "payable": false,
      "stateMutability": "nonpayable",
      "type": "function"
    },
    {
      "constant": false,
      "inputs": [
        {
          "name": "to",
          "type": "address"
        },
        {
          "name": "value",
          "type": "uint256"
        },
        {
          "name": "data",
          "type": "bytes"
        },
        {
          "name": "operation",
          "type": "uint8"
        },
        {
          "name": "safeTxGas",
          "type": "uint256"
        },
        {
          "name": "baseGas",
          "type": "uint256"
        },
        {
          "name": "gasPrice",
          "type": "uint256"
        },
        {
          "name": "gasToken",
          "type": "address"
        },
        {
          "name": "refundReceiver",
          "type": "address"
        },
        {
          "name": "signatures",
          "type": "bytes"
        }
      ],
      "name": "execTransaction",
      "outputs": [
        {
          "name": "success",
          "type": "bool"
        }
      ],
      "payable": false,
      "stateMutability": "nonpayable",
      "type": "function"
    },
    {
      "constant": true,
      "inputs": [
        {
          "name": "",
          "type": "address"
        },
        {
          "name": "",
          "type": "bytes32"
        }
      ],
      "name": "approvedHashes",
      "outputs": [
        {
          "name": "",
          "type": "uint256"
        }
      ],
      "payable": false,
      "stateMutability": "view",
      "type": "function"
    },
    {
      "constant": false,
      "inputs": [
        {
          "name": "_masterCopy",
          "type": "address"
        }
      ],
      "name": "changeMasterCopy",
      "outputs": [],
      "payable": false,
      "stateMutability": "nonpayable",
      "type": "function"
    },
    {
      "constant": true,
      "inputs": [
        {
          "name": "",
          "type": "address"
        }
      ],
      "name": "onlyApprover",
      "outputs": [
        {
          "name": "",
          "type": "bool"
        }
      ],
      "payable": false,
      "stateMutability": "view",
      "type": "function"
    },
    {
      "constant": false,
      "inputs": [
        {
          "name": "_data",
          "type": "bytes"
        }
      ],
      "name": "signMessage",
      "outputs": [],
      "payable": false,
      "stateMutability": "nonpayable",
      "type": "function"
    },
    {
      "constant": true,
      "inputs": [],
      "name": "getOwners",
      "outputs": [
        {
          "name": "",
          "type": "address[]"
        }
      ],
      "payable": false,
      "stateMutability": "view",
      "type": "function"
    },
    {
      "constant": true,
      "inputs": [],
      "name": "NAME",
      "outputs": [
        {
          "name": "",
          "type": "string"
        }
      ],
      "payable": false,
      "stateMutability": "view",
      "type": "function"
    },
    {
      "constant": true,
      "inputs": [],
      "name": "nonce",
      "outputs": [
        {
          "name": "",
          "type": "uint256"
        }
      ],
      "payable": false,
      "stateMutability": "view",
      "type": "function"
    },
    {
      "constant": true,
      "inputs": [],
      "name": "getModules",
      "outputs": [
        {
          "name": "",
          "type": "address[]"
        }
      ],
      "payable": false,
      "stateMutability": "view",
      "type": "function"
    },
    {
      "constant": false,
      "inputs": [
        {
          "name": "_owners",
          "type": "address[]"
        },
        {
          "name": "_threshold",
          "type": "uint256"
        },
        {
          "name": "to",
          "type": "address"
        },
        {
          "name": "data",
          "type": "bytes"
        },
        {
          "name": "fallbackHandler",
          "type": "address"
        },
        {
          "name": "paymentToken",
          "type": "address"
        },
        {
          "name": "payment",
          "type": "uint256"
        },
        {
          "name": "paymentReceiver",
          "type": "address"
        }
      ],
      "name": "setup",
      "outputs": [],
      "payable": false,
      "stateMutability": "nonpayable",
      "type": "function"
    },
    {
      "constant": false,
      "inputs": [
        {
          "name": "to",
          "type": "address"
        },
        {
          "name": "value",
          "type": "uint256"
        },
        {
          "name": "data",
          "type": "bytes"
        },
        {
          "name": "operation",
          "type": "uint8"
        }
      ],
      "name": "requiredTxGas",
      "outputs": [
        {
          "name": "",
          "type": "uint256"
        }
      ],
      "payable": false,
      "stateMutability": "nonpayable",
      "type": "function"
    },
    {
      "constant": true,
      "inputs": [
        {
          "name": "start",
          "type": "address"
        },
        {
          "name": "pageSize",
          "type": "uint256"
        }
      ],
      "name": "getModulesPaginated",
      "outputs": [
        {
          "name": "array",
          "type": "address[]"
        },
        {
          "name": "next",
          "type": "address"
        }
      ],
      "payable": false,
      "stateMutability": "view",
      "type": "function"
    },
    {
      "constant": false,
      "inputs": [
        {
          "name": "hashToApprove",
          "type": "bytes32"
        }
      ],
      "name": "approveHash",
      "outputs": [],
      "payable": false,
      "stateMutability": "nonpayable",
      "type": "function"
    },
    {
      "constant": true,
      "inputs": [
        {
          "name": "to",
          "type": "address"
        },
        {
          "name": "value",
          "type": "uint256"
        },
        {
          "name": "data",
          "type": "bytes"
        },
        {
          "name": "operation",
          "type": "uint8"
        },
        {
          "name": "safeTxGas",
          "type": "uint256"
        },
        {
          "name": "baseGas",
          "type": "uint256"
        },
        {
          "name": "gasPrice",
          "type": "uint256"
        },
        {
          "name": "gasToken",
          "type": "address"
        },
        {
          "name": "refundReceiver",
          "type": "address"
        },
        {
          "name": "_nonce",
          "type": "uint256"
        }
      ],
      "name": "getTransactionHash",
      "outputs": [
        {
          "name": "",
          "type": "bytes32"
        }
      ],
      "payable": false,
      "stateMutability": "view",
      "type": "function"
    },
    {
      "constant": false,
      "inputs": [
        {
          "name": "prevModule",
          "type": "address"
        },
        {
          "name": "module",
          "type": "address"
        }
      ],
      "name": "disableModule",
      "outputs": [],
      "payable": false,
      "stateMutability": "nonpayable",
      "type": "function"
    },
    {
      "constant": true,
      "inputs": [],
      "name": "getThreshold",
      "outputs": [
        {
          "name": "",
          "type": "uint256"
        }
      ],
      "payable": false,
      "stateMutability": "view",
      "type": "function"
    },
    {
      "constant": true,
      "inputs": [
        {
          "name": "to",
          "type": "address"
        },
        {
          "name": "value",
          "type": "uint256"
        },
        {
          "name": "data",
          "type": "bytes"
        },
        {
          "name": "operation",
          "type": "uint8"
        },
        {
          "name": "safeTxGas",
          "type": "uint256"
        },
        {
          "name": "baseGas",
          "type": "uint256"
        },
        {
          "name": "gasPrice",
          "type": "uint256"
        },
        {
          "name": "gasToken",
          "type": "address"
        },
        {
          "name": "refundReceiver",
          "type": "address"
        },
        {
          "name": "_nonce",
          "type": "uint256"
        }
      ],
      "name": "encodeTransactionData",
      "outputs": [
        {
          "name": "",
          "type": "bytes"
        }
      ],
      "payable": false,
      "stateMutability": "view",
      "type": "function"
    },
    {
      "constant": false,
      "inputs": [
        {
          "name": "handler",
          "type": "address"
        }
      ],
      "name": "setFallbackHandler",
      "outputs": [],
      "payable": false,
      "stateMutability": "nonpayable",
      "type": "function"
    },
    {
      "constant": true,
      "inputs": [],
      "name": "domainSeparator",
      "outputs": [
        {
          "name": "",
          "type": "bytes32"
        }
      ],
      "payable": false,
      "stateMutability": "view",
      "type": "function"
    },
    {
      "constant": true,
      "inputs": [],
      "name": "VERSION",
      "outputs": [
        {
          "name": "",
          "type": "string"
        }
      ],
      "payable": false,
      "stateMutability": "view",
      "type": "function"
    },
    {
      "payable": true,
      "stateMutability": "payable",
      "type": "fallback"
    },
    {
      "anonymous": false,
      "inputs": [
        {
          "indexed": true,
          "name": "approvedHash",
          "type": "bytes32"
        },
        {
          "indexed": true,
          "name": "owner",
          "type": "address"
        }
      ],
      "name": "ApproveHash",
      "type": "event"
    },
    {
      "anonymous": false,
      "inputs": [
        {
          "indexed": true,
          "name": "msgHash",
          "type": "bytes32"
        }
      ],
      "name": "SignMsg",
      "type": "event"
    },
    {
      "anonymous": false,
      "inputs": [
        {
          "indexed": false,
          "name": "txHash",
          "type": "bytes32"
        },
        {
          "indexed": false,
          "name": "payment",
          "type": "uint256"
        }
      ],
      "name": "ExecutionFailure",
      "type": "event"
    },
    {
      "anonymous": false,
      "inputs": [
        {
          "indexed": false,
          "name": "txHash",
          "type": "bytes32"
        },
        {
          "indexed": false,
          "name": "payment",
          "type": "uint256"
        }
      ],
      "name": "ExecutionSuccess",
      "type": "event"
    },
    {
      "anonymous": false,
      "inputs": [
        {
          "indexed": false,
          "name": "owner",
          "type": "address"
        }
      ],
      "name": "AddedOwner",
      "type": "event"
    },
    {
      "anonymous": false,
      "inputs": [
        {
          "indexed": false,
          "name": "owner",
          "type": "address"
        }
      ],
      "name": "RemovedOwner",
      "type": "event"
    },
    {
      "anonymous": false,
      "inputs": [
        {
          "indexed": false,
          "name": "threshold",
          "type": "uint256"
        }
      ],
      "name": "ChangedThreshold",
      "type": "event"
    },
    {
      "anonymous": false,
      "inputs": [
        {
          "indexed": false,
          "name": "module",
          "type": "address"
        }
      ],
      "name": "EnabledModule",
      "type": "event"
    },
    {
      "anonymous": false,
      "inputs": [
        {
          "indexed": false,
          "name": "module",
          "type": "address"
        }
      ],
      "name": "DisabledModule",
      "type": "event"
    },
    {
      "anonymous": false,
      "inputs": [
        {
          "indexed": true,
          "name": "module",
          "type": "address"
        }
      ],
      "name": "ExecutionFromModuleSuccess",
      "type": "event"
    },
    {
      "anonymous": false,
      "inputs": [
        {
          "indexed": true,
          "name": "module",
          "type": "address"
        }
      ],
      "name": "ExecutionFromModuleFailure",
      "type": "event"
    },
    {
      "anonymous": false,
      "inputs": [
        {
          "indexed": false,
          "name": "masterCopy",
          "type": "address"
        }
      ],
      "name": "ChangedMasterCopy",
      "type": "event"
    },
    {
      "constant": false,
      "inputs": [
        {
          "name": "to",
          "type": "address"
        },
        {
          "name": "value",
          "type": "uint256"
        },
        {
          "name": "data",
          "type": "bytes"
        },
        {
          "name": "operation",
          "type": "uint8"
        },
        {
          "name": "safeTxGas",
          "type": "uint256"
        },
        {
          "name": "baseGas",
          "type": "uint256"
        },
        {
          "name": "gasPrice",
          "type": "uint256"
        },
        {
          "name": "gasToken",
          "type": "address"
        },
        {
          "name": "refundReceiver",
          "type": "address"
        },
        {
          "name": "initiatorSig",
          "type": "bytes"
        },
        {
          "name": "signatures",
          "type": "bytes"
        }
      ],
      "name": "execTransactionWithApprover",
      "outputs": [],
      "payable": false,
      "stateMutability": "nonpayable",
      "type": "function"
    },
    {
      "constant": false,
      "inputs": [
        {
          "name": "prevOwner",
          "type": "address"
        },
        {
          "name": "oldOwner",
          "type": "address"
        },
        {
          "name": "newOwner",
          "type": "address"
        }
      ],
      "name": "swapOwner",
      "outputs": [],
      "payable": false,
      "stateMutability": "nonpayable",
      "type": "function"
    },
    {
      "constant": false,
      "inputs": [
        {
          "name": "approver",
          "type": "address"
        },
        {
          "name": "_threshold",
          "type": "uint256"
        }
      ],
      "name": "addApproverWithThreshold",
      "outputs": [],
      "payable": false,
      "stateMutability": "nonpayable",
      "type": "function"
    },
    {
      "constant": false,
      "inputs": [
        {
          "name": "prevOwner",
          "type": "address"
        },
        {
          "name": "owner",
          "type": "address"
        },
        {
          "name": "_threshold",
          "type": "uint256"
        }
      ],
      "name": "removeOwner",
      "outputs": [],
      "payable": false,
      "stateMutability": "nonpayable",
      "type": "function"
    }
  ],
  "bytecode": "0x608060405260016004556141d1806100186000396000f3fe6080604052600436106101f25760003560e060020a90048063a0e67e2b11610111578063d8d11f78116100a4578063e86637db11610073578063e86637db14611039578063f08a032314611135578063f698da2514611168578063f8dc5dd91461117d578063ffa1ad74146111c0576101f2565b8063d8d11f7814610ea8578063e009cfde14610fa4578063e318b52b14610fdf578063e75235b814611024576101f2565b8063b63e800d116100e0578063b63e800d14610c3f578063c4ca3a9c14610d43578063cc2f845214610dd8578063d4d9bdcd14610e7e576101f2565b8063a0e67e2b14610b26578063a3f4df7e14610b8b578063affed0e014610c15578063b2494df314610c2a576101f2565b80635ae6bd37116101895780637d832974116101585780637d83297414610a0a5780637de7edef14610a4357806383f0e99314610a7657806385a5affe14610aa9576101f2565b80635ae6bd371461086a578063610b592514610894578063694e80c3146108c75780636a761202146108f1576101f2565b806323d94783116101c557806323d947831461049b5780632f54bf6e14610606578063468721a71461064d5780635229073f1461071a576101f2565b806309a91d2c146102635780630a1028c41461029c5780630d582f131461036157806320c13b0b1461039a575b60003411806101ff575036155b1561020957610261565b7f6c9a6c4a39284e37ed1cf53d337577d14212a4870fb976a4366c693b939918d58054600160a060020a0381161561025e57366000803760008036600080855af13d6000803e80610259573d6000fd5b3d6000f35b50505b005b34801561026f57600080fd5b506102616004803603604081101561028657600080fd5b50600160a060020a0381351690602001356111d5565b3480156102a857600080fd5b5061034f600480360360208110156102bf57600080fd5b8101906020810181356401000000008111156102da57600080fd5b8201836020820111156102ec57600080fd5b8035906020019184600183028401116401000000008311171561030e57600080fd5b91908080601f016020809104026020016040519081016040528093929190818152602001838380828437600092019190915250929550611247945050505050565b60408051918252519081900360200190f35b34801561036d57600080fd5b506102616004803603604081101561038457600080fd5b50600160a060020a03813516906020013561130a565b3480156103a657600080fd5b50610469600480360360408110156103bd57600080fd5b8101906020810181356401000000008111156103d857600080fd5b8201836020820111156103ea57600080fd5b8035906020019184600183028401116401000000008311171561040c57600080fd5b91939092909160208101903564010000000081111561042a57600080fd5b82018360208201111561043c57600080fd5b8035906020019184600183028401116401000000008311171561045e57600080fd5b5090925090506114d0565b604080517bffffffffffffffffffffffffffffffffffffffffffffffffffffffff199092168252519081900360200190f35b3480156104a757600080fd5b5061026160048036036101608110156104bf57600080fd5b600160a060020a03823516916020810135918101906060810160408201356401000000008111156104ef57600080fd5b82018360208201111561050157600080fd5b8035906020019184600183028401116401000000008311171561052357600080fd5b9193909260ff83351692602081013592604082013592606083013592600160a060020a03608082013581169360a083013590911692909160e081019060c0013564010000000081111561057557600080fd5b82018360208201111561058757600080fd5b803590602001918460018302840111640100000000831117156105a957600080fd5b9193909290916020810190356401000000008111156105c757600080fd5b8201836020820111156105d957600080fd5b803590602001918460018302840111640100000000831117156105fb57600080fd5b509092509050611622565b34801561061257600080fd5b506106396004803603602081101561062957600080fd5b5035600160a060020a031661175b565b604080519115158252519081900360200190f35b34801561065957600080fd5b506106396004803603608081101561067057600080fd5b600160a060020a03823516916020810135918101906060810160408201356401000000008111156106a057600080fd5b8201836020820111156106b257600080fd5b803590602001918460018302840111640100000000831117156106d457600080fd5b91908080601f0160208091040260200160405190810160405280939291908181526020018383808284376000920191909152509295505050903560ff1691506117969050565b34801561072657600080fd5b506107e76004803603608081101561073d57600080fd5b600160a060020a038235169160208101359181019060608101604082013564010000000081111561076d57600080fd5b82018360208201111561077f57600080fd5b803590602001918460018302840111640100000000831117156107a157600080fd5b91908080601f0160208091040260200160405190810160405280939291908181526020018383808284376000920191909152509295505050903560ff1691506118769050565b604051808315151515815260200180602001828103825283818151815260200191508051906020019080838360005b8381101561082e578181015183820152602001610816565b50505050905090810190601f16801561085b5780820380516001836020036101000a031916815260200191505b50935050505060405180910390f35b34801561087657600080fd5b5061034f6004803603602081101561088d57600080fd5b50356118ac565b3480156108a057600080fd5b50610261600480360360208110156108b757600080fd5b5035600160a060020a03166118be565b3480156108d357600080fd5b50610261600480360360208110156108ea57600080fd5b5035611a79565b3480156108fd57600080fd5b50610639600480360361014081101561091557600080fd5b600160a060020a038235169160208101359181019060608101604082013564010000000081111561094557600080fd5b82018360208201111561095757600080fd5b8035906020019184600183028401116401000000008311171561097957600080fd5b9193909260ff83351692602081013592604082013592606083013592600160a060020a03608082013581169360a083013590911692909160e081019060c001356401000000008111156109cb57600080fd5b8201836020820111156109dd57600080fd5b803590602001918460018302840111640100000000831117156109ff57600080fd5b509092509050611b7c565b348015610a1657600080fd5b5061034f60048036036040811015610a2d57600080fd5b50600160a060020a038135169060200135611daf565b348015610a4f57600080fd5b5061026160048036036020811015610a6657600080fd5b5035600160a060020a0316611dcc565b348015610a8257600080fd5b5061063960048036036020811015610a9957600080fd5b5035600160a060020a0316611ea9565b348015610ab557600080fd5b5061026160048036036020811015610acc57600080fd5b810190602081018135640100000000811115610ae757600080fd5b820183602082011115610af957600080fd5b80359060200191846001830284011164010000000083111715610b1b57600080fd5b509092509050611ebe565b348015610b3257600080fd5b50610b3b611f82565b60408051602080825283518183015283519192839290830191858101910280838360005b83811015610b77578181015183820152602001610b5f565b505050509050019250505060405180910390f35b348015610b9757600080fd5b50610ba061204e565b6040805160208082528351818301528351919283929083019185019080838360005b83811015610bda578181015183820152602001610bc2565b50505050905090810190601f168015610c075780820380516001836020036101000a031916815260200191505b509250505060405180910390f35b348015610c2157600080fd5b5061034f612087565b348015610c3657600080fd5b50610b3b61208d565b348015610c4b57600080fd5b506102616004803603610100811015610c6357600080fd5b810190602081018135640100000000811115610c7e57600080fd5b820183602082011115610c9057600080fd5b80359060200191846020830284011164010000000083111715610cb257600080fd5b91939092823592600160a060020a03602082013516929190606081019060400135640100000000811115610ce557600080fd5b820183602082011115610cf757600080fd5b80359060200191846001830284011164010000000083111715610d1957600080fd5b9193509150600160a060020a038135811691602081013582169160408201359160600135166120a3565b348015610d4f57600080fd5b5061034f60048036036080811015610d6657600080fd5b600160a060020a0382351691602081013591810190606081016040820135640100000000811115610d9657600080fd5b820183602082011115610da857600080fd5b80359060200191846001830284011164010000000083111715610dca57600080fd5b91935091503560ff16612200565b348015610de457600080fd5b50610e1160048036036040811015610dfb57600080fd5b50600160a060020a038135169060200135612342565b604051808060200183600160a060020a0316600160a060020a03168152602001828103825284818151815260200191508051906020019060200280838360005b83811015610e69578181015183820152602001610e51565b50505050905001935050505060405180910390f35b348015610e8a57600080fd5b5061026160048036036020811015610ea157600080fd5b5035612416565b348015610eb457600080fd5b5061034f6004803603610140811015610ecc57600080fd5b600160a060020a0382351691602081013591810190606081016040820135640100000000811115610efc57600080fd5b820183602082011115610f0e57600080fd5b80359060200191846001830284011164010000000083111715610f3057600080fd5b91908080601f0160208091040260200160405190810160405280939291908181526020018383808284376000920191909152509295505060ff83351693505050602081013590604081013590606081013590600160a060020a03608082013581169160a08101359091169060c001356124cb565b348015610fb057600080fd5b5061026160048036036040811015610fc757600080fd5b50600160a060020a03813581169160200135166124f6565b348015610feb57600080fd5b506102616004803603606081101561100257600080fd5b50600160a060020a038135811691602081013582169160409091013516612689565b34801561103057600080fd5b5061034f612714565b34801561104557600080fd5b50610ba0600480360361014081101561105d57600080fd5b600160a060020a038235169160208101359181019060608101604082013564010000000081111561108d57600080fd5b82018360208201111561109f57600080fd5b803590602001918460018302840111640100000000831117156110c157600080fd5b91908080601f0160208091040260200160405190810160405280939291908181526020018383808284376000920191909152509295505060ff83351693505050602081013590604081013590606081013590600160a060020a03608082013581169160a08101359091169060c0013561271a565b34801561114157600080fd5b506102616004803603602081101561115857600080fd5b5035600160a060020a0316612871565b34801561117457600080fd5b5061034f6128be565b34801561118957600080fd5b50610261600480360360608110156111a057600080fd5b50600160a060020a038135811691602081013590911690604001356128c4565b3480156111cc57600080fd5b50610ba0612933565b3330146112165760405160e560020a62461bcd02815260040180806020018281038252602c8152602001806140be602c913960400191505060405180910390fd5b600160a060020a0382166000908152600960205260409020805460ff19166001179055611243828261130a565b5050565b8051602091820120604080517f60b3cbf8b4a223d68d641b3b6ddf9a298e7f33710cf3d3a9d1146b5a6150fbca81850152808201929092528051808303820181526060830182528051908401206006547f190000000000000000000000000000000000000000000000000000000000000060808501527f01000000000000000000000000000000000000000000000000000000000000006081850152608284015260a2808401919091528151808403909101815260c29092019052805191012090565b33301461134b5760405160e560020a62461bcd02815260040180806020018281038252602c8152602001806140be602c913960400191505060405180910390fd5b600160a060020a0382161580159061136d5750600160a060020a038216600114155b6113af576040805160e560020a62461bcd02815260206004820152601e6024820152600080516020613efd833981519152604482015290519081900360640190fd5b600160a060020a03828116600090815260026020526040902054161561141f576040805160e560020a62461bcd02815260206004820152601b60248201527f4164647265737320697320616c726561647920616e206f776e65720000000000604482015290519081900360640190fd5b600260209081527fe90b7bceb6e7df5418fb78d8ee546e97c83a08bbccc01a0644d599ccd2a7c2e08054600160a060020a0385811660008181526040808220805494909516600160a060020a031994851617909455600190819052845490921681179093556003805490910190558051918252517f9465fa0c962cc76958e6373a993326400c1c94f8be2fe3a952adfa7f60b2ea26929181900390910190a180600454146112435761124381611a79565b60008061151286868080601f01602080910402602001604051908101604052809392919081815260200183838082843760009201919091525061124792505050565b9050826115815760008181526007602052604090205461157c576040805160e560020a62461bcd02815260206004820152601160248201527f48617368206e6f7420617070726f766564000000000000000000000000000000604482015290519081900360640190fd5b6115f5565b6115f58187878080601f01602080910402602001604051908101604052809392919081815260200183838082843760009201919091525050604080516020601f8b0181900481028201810190925289815292508991508890819084018382808284376000920182905250925061296c915050565b507f20c13b0b0000000000000000000000000000000000000000000000000000000090505b949350505050565b60006116b08f8f8f8f8080601f016020809104026020016040519081016040528093929190818152602001838380828437600081840152601f19601f820116905080830192505050505050508e8e8e8e8e8e8c8c8080601f01602080910402602001604051908101604052809392919081815260200183838082843760009201919091525061300192505050565b90506116f385858080601f01602080910402602001604051908101604052809392919081815260200183838082843760009201919091525085925061304f915050565b6117498f8f8f8f8080601f016020809104026020016040519081016040528093929190818152602001838380828437600081840152601f19601f820116905080830192505050505050508e8e8e8e8e8e8a6132af565b50505050505050505050505050505050565b6000600160a060020a0382166001148015906117905750600160a060020a038281166000908152600260205260409020541615155b92915050565b6000336001148015906117c0575033600090815260016020526040902054600160a060020a031615155b6117fe5760405160e560020a62461bcd0281526004018080602001828103825260308152602001806140ea6030913960400191505060405180910390fd5b61180b858585855a6133d4565b905080156118435760405133907f6895c13664aa4f67288b25d7a21d7aaa34916e355fb9b6fae0a139a9085becb890600090a261161a565b60405133907facd2c8702804128fdb0db2bb49f6d127dd0181c13fd45dbfe16de0930e2bd37590600090a2949350505050565b6000606061188686868686611796565b915060405160203d0181016040523d81523d6000602083013e8091505094509492505050565b60076020526000908152604090205481565b3330146118ff5760405160e560020a62461bcd02815260040180806020018281038252602c8152602001806140be602c913960400191505060405180910390fd5b600160a060020a038116158015906119215750600160a060020a038116600114155b611975576040805160e560020a62461bcd02815260206004820152601f60248201527f496e76616c6964206d6f64756c6520616464726573732070726f766964656400604482015290519081900360640190fd5b600160a060020a0381811660009081526001602052604090205416156119e5576040805160e560020a62461bcd02815260206004820152601d60248201527f4d6f64756c652068617320616c7265616479206265656e206164646564000000604482015290519081900360640190fd5b600160208181527fcc69885fda6bcc1a4ace058b4a62bf5e179ea78fd58a1ccd71c22cc9b688792f8054600160a060020a0385811660008181526040808220805494909516600160a060020a0319948516179094559590955282541684179091558051928352517fecdf3a3effea5783a3c4c2140e677577666428d44ed9d474a0b3a4c9943f84409281900390910190a150565b333014611aba5760405160e560020a62461bcd02815260040180806020018281038252602c8152602001806140be602c913960400191505060405180910390fd5b600354811115611afe5760405160e560020a62461bcd028152600401808060200182810382526023815260200180613f8d6023913960400191505060405180910390fd5b6001811015611b415760405160e560020a62461bcd0281526004018080602001828103825260248152602001806140636024913960400191505060405180910390fd5b60048190556040805182815290517f610f7ff2b304ae8903c3de74c60c6ab1f7d6226b3f52c5161905bb5ad4039c939181900360200190a150565b6000806060611bd98f8f8f8f8080601f016020809104026020016040519081016040528093929190818152602001838380828437600081840152601f19601f820116905080830192505050505050508e8e8e8e8e8e60055461271a565b905060056000815480929190600101919050555080805190602001209150611c3b828287878080601f0160208091040260200160405190810160405280939291908181526020018383808284376000920191909152506001925061296c915050565b50885a1015611c7e5760405160e560020a62461bcd02815260040180806020018281038252602a815260200180614173602a913960400191505060405180910390fd5b60005a9050611ced8f8f8f8f8080601f016020809104026020016040519081016040528093929190818152602001838380828437600081840152601f19601f820116905080830192505050505050508e8e6000148015611cdc57508c155b611ce6578e611ce8565b5a5b6133d4565b9250611d005a829063ffffffff61342816565b905060008815611d1a57611d17828b8b8b8b61343d565b90505b8315611d6057604080518481526020810183905281517f442e715f626346e8c54381002da614f62bee8d27386535b2521ec8540898556e929181900390910190a1611d9c565b604080518481526020810183905281517f23428b18acfb3ea64b08dc0c1d296ea9c09702c09083ca5272e64d115b687d23929181900390910190a15b5050509c9b505050505050505050505050565b600860209081526000928352604080842090915290825290205481565b333014611e0d5760405160e560020a62461bcd02815260040180806020018281038252602c8152602001806140be602c913960400191505060405180910390fd5b600160a060020a038116611e555760405160e560020a62461bcd028152600401808060200182810382526024815260200180613ed96024913960400191505060405180910390fd5b60008054600160a060020a038316600160a060020a0319909116811790915560408051918252517f75e41bc35ff1bf14d81d1d2f649c0084a0f974f9289c803ec9898eeec4c8d0b89181900360200190a150565b60096020526000908152604090205460ff1681565b333014611eff5760405160e560020a62461bcd02815260040180806020018281038252602c8152602001806140be602c913960400191505060405180910390fd5b6000611f4083838080601f01602080910402602001604051908101604052809392919081815260200183838082843760009201919091525061124792505050565b600081815260076020526040808220600190555191925082917fe7f4675038f4f6034dfcbbb24c4dc08e4ebf10eb9d257d3d02c0f38d122ac6e49190a2505050565b606080600354604051908082528060200260200182016040528015611fb1578160200160208202803883390190505b506001600090815260026020527fe90b7bceb6e7df5418fb78d8ee546e97c83a08bbccc01a0644d599ccd2a7c2e05491925090600160a060020a03165b600160a060020a038116600114612046578083838151811061200c57fe5b600160a060020a03928316602091820292909201810191909152918116600090815260029092526040909120546001929092019116611fee565b509091505090565b6040518060400160405280600b81526020017f476e6f736973205361666500000000000000000000000000000000000000000081525081565b60055481565b60608061209c6001600a612342565b5091505090565b600654156120fb576040805160e560020a62461bcd02815260206004820152601d60248201527f446f6d61696e20536570617261746f7220616c72656164792073657421000000604482015290519081900360640190fd5b604080517f035aff83d86937d35b32e04f0ddc6ff469290eef2f1b692d8a815c89404d47496020808301919091523082840152825180830384018152606083018085528151918301919091206006556080918d0280840183019094528c81526121859390928e928e92839291909101908490808284376000920191909152508c9250613569915050565b600160a060020a0384161561219d5761219d846137b6565b6121dd8787878080601f0160208091040260200160405190810160405280939291908181526020018383808284376000920191909152506137da92505050565b81156121f4576121f28260006001868561343d565b505b50505050505050505050565b60003330146122435760405160e560020a62461bcd02815260040180806020018281038252602c8152602001806140be602c913960400191505060405180910390fd5b60005a905061228b878787878080601f01602080910402602001604051908101604052809392919081815260200183838082843760009201919091525089925050505a6133d4565b61229457600080fd5b60005a82039050806040516020018082815260200191505060405160208183030381529060405260405160e560020a62461bcd0281526004018080602001828103825283818151815260200191508051906020019080838360005b838110156123075781810151838201526020016122ef565b50505050905090810190601f1680156123345780820380516001836020036101000a031916815260200191505b509250505060405180910390fd5b6060600082604051908082528060200260200182016040528015612370578160200160208202803883390190505b50600160a060020a0380861660009081526001602052604081205492945091165b600160a060020a038116158015906123b35750600160a060020a038116600114155b80156123be57508482105b1561240857808483815181106123d057fe5b600160a060020a0392831660209182029290920181019190915291811660009081526001928390526040902054929091019116612391565b908352919491935090915050565b33600090815260026020526040902054600160a060020a0316612483576040805160e560020a62461bcd02815260206004820152601e60248201527f4f6e6c79206f776e6572732063616e20617070726f7665206120686173680000604482015290519081900360640190fd5b336000818152600860209081526040808320858452909152808220600190555183917ff2a0eb156472d1440255b0d7c1e19cc07115d1051fe605b0dce69acfec884d9c91a350565b60006124df8b8b8b8b8b8b8b8b8b8b61271a565b8051906020012090509a9950505050505050505050565b3330146125375760405160e560020a62461bcd02815260040180806020018281038252602c8152602001806140be602c913960400191505060405180910390fd5b600160a060020a038116158015906125595750600160a060020a038116600114155b6125ad576040805160e560020a62461bcd02815260206004820152601f60248201527f496e76616c6964206d6f64756c6520616464726573732070726f766964656400604482015290519081900360640190fd5b600160a060020a0382811660009081526001602052604090205481169082161461260b5760405160e560020a62461bcd028152600401808060200182810382526028815260200180613f656028913960400191505060405180910390fd5b600160a060020a03818116600081815260016020908152604080832080548887168552828520805491909716600160a060020a031991821617909655928490528254909416909155825191825291517faab4fa2b463f581b2b32cb3b7e3b704b9ce37cc209b5fb4d77e593ace4054276929181900390910190a15050565b3330146126ca5760405160e560020a62461bcd02815260040180806020018281038252602c8152602001806140be602c913960400191505060405180910390fd5b6126d58383836138fa565b600160a060020a0391821660008181526009602052604080822080549490951682528120805460ff909416151560ff1994851617905552815416905550565b60045490565b606060007fbb8310d486368db6bd6f849402fdd73ad53d316b5a4b2644ad6efe0f941286d86001028c8c8c805190602001208c8c8c8c8c8c8c604051602001808c81526020018b600160a060020a0316600160a060020a031681526020018a815260200189815260200188600181111561279057fe5b60ff168152602080820198909852604080820197909752606081019590955250600160a060020a039283166080850152911660a083015260c0808301919091528251808303909101815260e08201835280519301929092206006547f19000000000000000000000000000000000000000000000000000000000000006101008501527f01000000000000000000000000000000000000000000000000000000000000006101018501526101028401526101228084019190915281518084039091018152610142909201905296505050505050509a9950505050505050505050565b3330146128b25760405160e560020a62461bcd02815260040180806020018281038252602c8152602001806140be602c913960400191505060405180910390fd5b6128bb816137b6565b50565b60065481565b3330146129055760405160e560020a62461bcd02815260040180806020018281038252602c8152602001806140be602c913960400191505060405180910390fd5b612910838383613b9d565b50600160a060020a03166000908152600960205260409020805460ff1916905550565b6040518060400160405280600581526020017f312e312e3100000000000000000000000000000000000000000000000000000081525081565b600454806129c4576040805160e560020a62461bcd02815260206004820152601e60248201527f5468726573686f6c64206e6565647320746f20626520646566696e6564210000604482015290519081900360640190fd5b6129d581604163ffffffff613d8216565b83511015612a2d576040805160e560020a62461bcd02815260206004820152601960248201527f5369676e617475726573206461746120746f6f2073686f727400000000000000604482015290519081900360640190fd5b600080808080805b868110156121f257612a478982613db0565b9195509350915060ff8416612d3e579193508391612a6c87604163ffffffff613d8216565b821015612aad5760405160e560020a62461bcd0281526004018080602001828103825260378152602001806140876037913960400191505060405180910390fd5b8851612ac083602063ffffffff613dce16565b1115612b005760405160e560020a62461bcd02815260040180806020018281038252603781526020018061411a6037913960400191505060405180910390fd5b6020828a018101518a519091612b29908390612b1d908790613dce565b9063ffffffff613dce16565b1115612b695760405160e560020a62461bcd02815260040180806020018281038252603681526020018061402d6036913960400191505060405180910390fd5b60606020848c010190506320c13b0b60e060020a027bffffffffffffffffffffffffffffffffffffffffffffffffffffffff191687600160a060020a03166320c13b0b8e846040518363ffffffff1660e060020a028152600401808060200180602001838103835285818151815260200191508051906020019080838360005b83811015612c01578181015183820152602001612be9565b50505050905090810190601f168015612c2e5780820380516001836020036101000a031916815260200191505b50838103825284518152845160209182019186019080838360005b83811015612c61578181015183820152602001612c49565b50505050905090810190601f168015612c8e5780820380516001836020036101000a031916815260200191505b5094505050505060206040518083038186803b158015612cad57600080fd5b505afa158015612cc1573d6000803e3d6000fd5b505050506040513d6020811015612cd757600080fd5b50517bffffffffffffffffffffffffffffffffffffffffffffffffffffffff191614612d375760405160e560020a62461bcd028152600401808060200182810382526023815260200180613f426023913960400191505060405180910390fd5b5050612f50565b8360ff1660011415612e2157919350839133600160a060020a0384161480612d885750600160a060020a03851660009081526008602090815260408083208e845290915290205415155b612ddc576040805160e560020a62461bcd02815260206004820152601a60248201527f4861736820686173206e6f74206265656e20617070726f766564000000000000604482015290519081900360640190fd5b878015612df2575033600160a060020a03861614155b15612e1c57600160a060020a03851660009081526008602090815260408083208e84529091528120555b612f50565b601e8460ff161115612eec5760018b60405160200180807f19457468657265756d205369676e6564204d6573736167653a0a333200000000815250601c018281526020019150506040516020818303038152906040528051906020012060048603858560405160008152602001604052604051808581526020018460ff1660ff1681526020018381526020018281526020019450505050506020604051602081039080840390855afa158015612edb573d6000803e3d6000fd5b505050602060405103519450612f50565b604080516000815260208082018084528e905260ff8716828401526060820186905260808201859052915160019260a0808401939192601f1981019281900390910190855afa158015612f43573d6000803e3d6000fd5b5050506020604051035194505b85600160a060020a031685600160a060020a0316118015612f8a5750600160a060020a038581166000908152600260205260409020541615155b8015612fa05750600160a060020a038516600114155b612ff4576040805160e560020a62461bcd02815260206004820152601660248201527f496e76616c6964206f776e65722070726f766964656400000000000000000000604482015290519081900360640190fd5b9394508493600101612a35565b600060606130198c8c8c8c8c8c8c8c8c60055461271a565b6005805460019081019091558151602083012093509091506130409083908390869061296c565b509a9950505050505050505050565b600080600061305f856000613db0565b919450925090506000601e60ff8516111561315157604080517f19457468657265756d205369676e6564204d6573736167653a0a333200000000602080830191909152603c82018890527f696e69746961746f720000000000000000000000000000000000000000000000605c83015282516045818403018152606583018085528151918301919091206000909152608583018085525260ff60031988011660a583015260c5820186905260e582018590529151600192610105808401939192601f1981019281900390910190855afa158015613140573d6000803e3d6000fd5b5050506020604051035190506131fb565b6040805160208082018890527f696e69746961746f7200000000000000000000000000000000000000000000008284015282516029818403018152604983018085528151918301919091206000909152606983018085525260ff8716608983015260a9820186905260c98201859052915160019260e9808401939192601f1981019281900390910190855afa1580156131ee573d6000803e3d6000fd5b5050506020604051035190505b600160a060020a03811660009081526009602052604090205460ff1615801561323d5750600160a060020a038181166000908152600260205260409020541615155b80156132535750600160a060020a038116600114155b6132a7576040805160e560020a62461bcd02815260206004820152601a60248201527f496e76616c696420696e69746961746f722070726f7669646564000000000000604482015290519081900360640190fd5b505050505050565b6000865a10156132f35760405160e560020a62461bcd02815260040180806020018281038252602a815260200180614173602a913960400191505060405180910390fd5b60005a90506133158c8c8c8c8c15801561330b57508a155b611ce6578c611ce8565b91506133285a829063ffffffff61342816565b9050600086156133425761333f828989898961343d565b90505b821561338857604080518581526020810183905281517f442e715f626346e8c54381002da614f62bee8d27386535b2521ec8540898556e929181900390910190a16133c4565b604080518581526020810183905281517f23428b18acfb3ea64b08dc0c1d296ea9c09702c09083ca5272e64d115b687d23929181900390910190a15b50509a9950505050505050505050565b6000808360018111156133e357fe5b14156133fc576133f586868685613de0565b905061341f565b600183600181111561340a57fe5b141561341b576133f5868584613df8565b5060005b95945050505050565b60008282111561343757600080fd5b50900390565b600080600160a060020a038316156134555782613457565b325b9050600160a060020a038416613500576134953a8610613477573a613479565b855b613489898963ffffffff613dce16565b9063ffffffff613d8216565b604051909250600160a060020a0382169083156108fc029084906000818181858888f193505050506134fb5760405160e560020a62461bcd0281526004018080602001828103825260228152602001806141516022913960400191505060405180910390fd5b61355f565b61351485613489898963ffffffff613dce16565b9150613521848284613e0e565b61355f5760405160e560020a62461bcd028152600401808060200182810382526022815260200180613fe56022913960400191505060405180910390fd5b5095945050505050565b600454156135c1576040805160e560020a62461bcd02815260206004820152601e60248201527f4f776e657273206861766520616c7265616479206265656e2073657475700000604482015290519081900360640190fd5b81518111156136045760405160e560020a62461bcd028152600401808060200182810382526023815260200180613f8d6023913960400191505060405180910390fd5b60018110156136475760405160e560020a62461bcd0281526004018080602001828103825260248152602001806140636024913960400191505060405180910390fd5b600160005b835181101561378357600084828151811061366357fe5b602002602001015190506000600160a060020a031681600160a060020a03161415801561369a5750600160a060020a038116600114155b6136dc576040805160e560020a62461bcd02815260206004820152601e6024820152600080516020613efd833981519152604482015290519081900360640190fd5b600160a060020a03818116600090815260026020526040902054161561374c576040805160e560020a62461bcd02815260206004820181905260248201527f4475706c6963617465206f776e657220616464726573732070726f7669646564604482015290519081900360640190fd5b600160a060020a0392831660009081526002602052604090208054600160a060020a0319169382169390931790925560010161364c565b50600160a060020a031660009081526002602052604090208054600160a060020a03191660011790559051600355600455565b7f6c9a6c4a39284e37ed1cf53d337577d14212a4870fb976a4366c693b939918d555565b600160008190526020527fcc69885fda6bcc1a4ace058b4a62bf5e179ea78fd58a1ccd71c22cc9b688792f54600160a060020a03161561384e5760405160e560020a62461bcd028152600401808060200182810382526025815260200180613f1d6025913960400191505060405180910390fd5b6001600081905260208190527fcc69885fda6bcc1a4ace058b4a62bf5e179ea78fd58a1ccd71c22cc9b688792f8054600160a060020a0319169091179055600160a060020a03821615611243576138a682825a613df8565b611243576040805160e560020a62461bcd02815260206004820152601f60248201527f436f756c64206e6f742066696e69736820696e697469616c697a6174696f6e00604482015290519081900360640190fd5b33301461393b5760405160e560020a62461bcd02815260040180806020018281038252602c8152602001806140be602c913960400191505060405180910390fd5b600160a060020a0381161580159061395d5750600160a060020a038116600114155b61399f576040805160e560020a62461bcd02815260206004820152601e6024820152600080516020613efd833981519152604482015290519081900360640190fd5b600160a060020a038181166000908152600260205260409020541615613a0f576040805160e560020a62461bcd02815260206004820152601b60248201527f4164647265737320697320616c726561647920616e206f776e65720000000000604482015290519081900360640190fd5b600160a060020a03821615801590613a315750600160a060020a038216600114155b613a73576040805160e560020a62461bcd02815260206004820152601e6024820152600080516020613efd833981519152604482015290519081900360640190fd5b600160a060020a03838116600090815260026020526040902054811690831614613ad15760405160e560020a62461bcd0281526004018080602001828103825260268152602001806140076026913960400191505060405180910390fd5b600160a060020a03828116600081815260026020908152604080832080548787168086528386208054928916600160a060020a0319938416179055968a16855282852080548216909717909655928490528254909416909155825191825291517ff8d49fc529812e9a7c5c50e69c20f0dccc0db8fa95c98bc58cc9a4f1c1299eaf929181900390910190a160408051600160a060020a038316815290517f9465fa0c962cc76958e6373a993326400c1c94f8be2fe3a952adfa7f60b2ea269181900360200190a1505050565b333014613bde5760405160e560020a62461bcd02815260040180806020018281038252602c8152602001806140be602c913960400191505060405180910390fd5b806001600354031015613c255760405160e560020a62461bcd028152600401808060200182810382526035815260200180613fb06035913960400191505060405180910390fd5b600160a060020a03821615801590613c475750600160a060020a038216600114155b613c89576040805160e560020a62461bcd02815260206004820152601e6024820152600080516020613efd833981519152604482015290519081900360640190fd5b600160a060020a03838116600090815260026020526040902054811690831614613ce75760405160e560020a62461bcd0281526004018080602001828103825260268152602001806140076026913960400191505060405180910390fd5b600160a060020a03828116600081815260026020908152604080832080548987168552828520805491909716600160a060020a03199182161790965592849052825490941690915560038054600019019055825191825291517ff8d49fc529812e9a7c5c50e69c20f0dccc0db8fa95c98bc58cc9a4f1c1299eaf929181900390910190a18060045414613d7d57613d7d81611a79565b505050565b600082613d9157506000611790565b82820282848281613d9e57fe5b0414613da957600080fd5b9392505050565b60419081029190910160208101516040820151919092015160ff1692565b600082820183811015613da957600080fd5b6000806000845160208601878987f195945050505050565b60008060008451602086018786f4949350505050565b60408051600160a060020a038416602482015260448082018490528251808303909101815260649091019091526020810180517bffffffffffffffffffffffffffffffffffffffffffffffffffffffff167fa9059cbb000000000000000000000000000000000000000000000000000000001781528151600092918391829182896127105a03f16040513d81016040523d6000823e3d8015613ebb5760208114613ec35760009450613ecd565b829450613ecd565b8151158315171594505b50505050939250505056fe496e76616c6964206d617374657220636f707920616464726573732070726f7669646564496e76616c6964206f776e657220616464726573732070726f766964656400004d6f64756c6573206861766520616c7265616479206265656e20696e697469616c697a6564496e76616c696420636f6e7472616374207369676e61747572652070726f7669646564496e76616c696420707265764d6f64756c652c206d6f64756c6520706169722070726f76696465645468726573686f6c642063616e6e6f7420657863656564206f776e657220636f756e744e6577206f776e657220636f756e74206e6565647320746f206265206c6172676572207468616e206e6577207468726573686f6c64436f756c64206e6f74207061792067617320636f737473207769746820746f6b656e496e76616c696420707265764f776e65722c206f776e657220706169722070726f7669646564496e76616c696420636f6e7472616374207369676e6174757265206c6f636174696f6e3a2064617461206e6f7420636f6d706c6574655468726573686f6c64206e6565647320746f2062652067726561746572207468616e2030496e76616c696420636f6e7472616374207369676e6174757265206c6f636174696f6e3a20696e736964652073746174696320706172744d6574686f642063616e206f6e6c792062652063616c6c65642066726f6d207468697320636f6e74726163744d6574686f642063616e206f6e6c792062652063616c6c65642066726f6d20616e20656e61626c6564206d6f64756c65496e76616c696420636f6e7472616374207369676e6174757265206c6f636174696f6e3a206c656e677468206e6f742070726573656e74436f756c64206e6f74207061792067617320636f73747320776974682065746865724e6f7420656e6f7567682067617320746f20657865637574652073616665207472616e73616374696f6ea265627a7a723058200ddeef715e50d5f9a5141844b906a4cbc91497238caee44d65985088685a600264736f6c634300050a0032",
  "source": "pragma solidity 0.5.10;\n\nimport \"@gnosis.pm/safe-contracts/contracts/GnosisSafe.sol\";\n\n// Option A: Inheritance solution with initiatorSig parameter\n// no success return, contracts can't be initiator, partly duplicated code \n// other owner don't know who the initiator will be\n\ncontract ExtendedGnosisSafeA is GnosisSafe {\n\n    mapping(address => bool) public onlyApprover;\n\n    function execTransactionWithApprover(\n        address to,\n        uint256 value,\n        bytes calldata data,\n        Enum.Operation operation,\n        uint256 safeTxGas,\n        uint256 baseGas,\n        uint256 gasPrice,\n        address gasToken,\n        address payable refundReceiver,\n        bytes calldata initiatorSig,\n        bytes calldata signatures\n    )\n        external\n    {\n\n        bytes32 txHash = checkTx(\n            to,\n            value,\n            data,\n            operation,\n            safeTxGas,\n            baseGas,\n            gasPrice,\n            gasToken,\n            refundReceiver,\n            signatures\n        );\n\n        checkInitiator(initiatorSig, txHash);\n\n        initExecution(\n            to,\n            value,\n            data,\n            operation,\n            safeTxGas,\n            baseGas,\n            gasPrice,\n            gasToken,\n            refundReceiver,\n            txHash\n        );\n    }\n\n    function checkTx(\n        address to,\n        uint256 value,\n        bytes memory data,\n        Enum.Operation operation,\n        uint256 safeTxGas,\n        uint256 baseGas,\n        uint256 gasPrice,\n        address gasToken,\n        address payable refundReceiver,\n        bytes memory signatures\n    )\n        internal\n        returns (bytes32 txHash)\n    {\n        bytes memory txHashData = encodeTransactionData(\n            to, value, data, operation, // Transaction info\n            safeTxGas, baseGas, gasPrice, gasToken, refundReceiver, // Payment info\n            nonce\n        );\n        // Increase nonce and execute transaction.\n        nonce++;\n        txHash = keccak256(txHashData);\n        checkSignatures(txHash, txHashData, signatures, true);\n    }\n\n    function initExecution(\n        address to,\n        uint256 value,\n        bytes memory data,\n        Enum.Operation operation,\n        uint256 safeTxGas,\n        uint256 baseGas,\n        uint256 gasPrice,\n        address gasToken,\n        address payable refundReceiver,\n        bytes32 txHash\n    )\n        internal\n        returns (bool success)\n    {\n        require(gasleft() >= safeTxGas, \"Not enough gas to execute safe transaction\");\n        // Use scope here to limit variable lifetime and prevent `stack too deep` errors\n        {\n            uint256 gasUsed = gasleft();\n            // If no safeTxGas has been set and the gasPrice is 0 we assume that all available gas can be used\n            success = execute(to, value, data, operation, safeTxGas == 0 && gasPrice == 0 ? gasleft() : safeTxGas);\n            gasUsed = gasUsed.sub(gasleft());\n            // We transfer the calculated tx costs to the tx.origin to avoid sending it to intermediate contracts that have made calls\n            uint256 payment = 0;\n            if (gasPrice > 0) {\n                payment = handlePayment(gasUsed, baseGas, gasPrice, gasToken, refundReceiver);\n            }\n            if (success) emit ExecutionSuccess(txHash, payment);\n            else emit ExecutionFailure(txHash, payment);\n        }\n    }\n\n    function handlePayment(\n        uint256 gasUsed,\n        uint256 baseGas,\n        uint256 gasPrice,\n        address gasToken,\n        address payable refundReceiver\n    )\n        private\n        returns (uint256 payment)\n    {\n        // solium-disable-next-line security/no-tx-origin\n        address payable receiver = refundReceiver == address(0) ? tx.origin : refundReceiver;\n        if (gasToken == address(0)) {\n            // For ETH we will only adjust the gas price to not be higher than the actual used gas price\n            payment = gasUsed.add(baseGas).mul(gasPrice < tx.gasprice ? gasPrice : tx.gasprice);\n            // solium-disable-next-line security/no-send\n            require(receiver.send(payment), \"Could not pay gas costs with ether\");\n        } else {\n            payment = gasUsed.add(baseGas).mul(gasPrice);\n            require(transferToken(gasToken, receiver, payment), \"Could not pay gas costs with token\");\n        }\n    }\n\n    function swapOwner(address prevOwner, address oldOwner, address newOwner)\n        public\n        authorized\n    {\n        super.swapOwner(prevOwner, oldOwner, newOwner);\n        onlyApprover[newOwner] = onlyApprover[oldOwner];\n        onlyApprover[oldOwner] = false;\n\n    }\n\n    function addApproverWithThreshold(address approver, uint256 _threshold)\n        public\n        authorized\n    {\n        onlyApprover[approver] = true;\n        super.addOwnerWithThreshold(approver, _threshold);\n    }\n\n    function removeOwner(address prevOwner, address owner, uint256 _threshold)\n        public\n        authorized\n    {\n        super.removeOwner(prevOwner, owner, _threshold);\n        onlyApprover[owner] = false;\n    }\n\n    function checkInitiator(bytes memory initiatorSignature, bytes32 txHash)\n        internal\n    {\n        uint8 v;\n        bytes32 r;\n        bytes32 s;\n        (v, r, s) = signatureSplit(initiatorSignature, 0);\n        address calcedInitiator;\n        if (v > 30) {\n            // To support eth_sign and similar we adjust v and hash the messageHash with the Ethereum message prefix before applying ecrecover\n            calcedInitiator = ecrecover(keccak256(abi.encodePacked(\"\\x19Ethereum Signed Message:\\n32\", txHash, \"initiator\")), v - 4, r, s);\n        } else {\n            // Use ecrecover with the messageHash for EOA signatures\n            calcedInitiator = ecrecover(keccak256(abi.encodePacked(txHash, \"initiator\")), v, r, s);\n        }\n\n        require (\n            onlyApprover[calcedInitiator] == false && owners[calcedInitiator] != address(0) && calcedInitiator != SENTINEL_OWNERS,\n            \"Invalid initiator provided\"\n        );\n\n    }\n\n}\n",
  "sourcePath": "/Users/heikoburkhardt/Documents/custody/multisig_contracts/contracts/extended-gnosis-safe/ExtendedGnosisSafeA.sol",
  "compiler": {
    "name": "solc",
    "version": "0.5.10+commit.5a6ea5b1.Emscripten.clang"
  },
  "schemaVersion": "3.0.16",
  "updatedAt": "2020-02-02T09:01:13.455Z",
  "devdoc": {
    "methods": {
      "addOwnerWithThreshold(address,uint256)": {
        "details": "Allows to add a new owner to the Safe and update the threshold at the same time.      This can only be done via a Safe transaction.",
        "params": {
          "_threshold": "New threshold.",
          "owner": "New owner address."
        }
      },
      "approveHash(bytes32)": {
        "details": "Marks a hash as approved. This can be used to validate a hash that is used by a signature.",
        "params": {
          "hashToApprove": "The hash that should be marked as approved for signatures that are verified by this contract."
        }
      },
      "changeMasterCopy(address)": {
        "details": "Allows to upgrade the contract. This can only be done via a Safe transaction.",
        "params": {
          "_masterCopy": "New contract address."
        }
      },
      "changeThreshold(uint256)": {
        "details": "Allows to update the number of required confirmations by Safe owners.      This can only be done via a Safe transaction.",
        "params": {
          "_threshold": "New threshold."
        }
      },
      "disableModule(address,address)": {
        "details": "Allows to remove a module from the whitelist.      This can only be done via a Safe transaction.",
        "params": {
          "module": "Module to be removed.",
          "prevModule": "Module that pointed to the module to be removed in the linked list"
        }
      },
      "enableModule(address)": {
        "details": "Allows to add a module to the whitelist.      This can only be done via a Safe transaction.",
        "params": {
          "module": "Module to be whitelisted."
        }
      },
      "encodeTransactionData(address,uint256,bytes,uint8,uint256,uint256,uint256,address,address,uint256)": {
        "details": "Returns the bytes that are hashed to be signed by owners.",
        "params": {
          "_nonce": "Transaction nonce.",
          "baseGas": "Gas costs for data used to trigger the safe transaction.",
          "data": "Data payload.",
          "gasPrice": "Maximum gas price that should be used for this transaction.",
          "gasToken": "Token address (or 0 if ETH) that is used for the payment.",
          "operation": "Operation type.",
          "refundReceiver": "Address of receiver of gas payment (or 0 if tx.origin).",
          "safeTxGas": "Fas that should be used for the safe transaction.",
          "to": "Destination address.",
          "value": "Ether value."
        },
        "return": "Transaction hash bytes."
      },
      "execTransaction(address,uint256,bytes,uint8,uint256,uint256,uint256,address,address,bytes)": {
        "details": "Allows to execute a Safe transaction confirmed by required number of owners and then pays the account that submitted the transaction.      Note: The fees are always transfered, even if the user transaction fails.",
        "params": {
          "baseGas": "Gas costs for that are indipendent of the transaction execution(e.g. base transaction fee, signature check, payment of the refund)",
          "data": "Data payload of Safe transaction.",
          "gasPrice": "Gas price that should be used for the payment calculation.",
          "gasToken": "Token address (or 0 if ETH) that is used for the payment.",
          "operation": "Operation type of Safe transaction.",
          "refundReceiver": "Address of receiver of gas payment (or 0 if tx.origin).",
          "safeTxGas": "Gas that should be used for the Safe transaction.",
          "signatures": "Packed signature data ({bytes32 r}{bytes32 s}{uint8 v})",
          "to": "Destination address of Safe transaction.",
          "value": "Ether value of Safe transaction."
        }
      },
      "execTransactionFromModule(address,uint256,bytes,uint8)": {
        "details": "Allows a Module to execute a Safe transaction without any further confirmations.",
        "params": {
          "data": "Data payload of module transaction.",
          "operation": "Operation type of module transaction.",
          "to": "Destination address of module transaction.",
          "value": "Ether value of module transaction."
        }
      },
      "execTransactionFromModuleReturnData(address,uint256,bytes,uint8)": {
        "details": "Allows a Module to execute a Safe transaction without any further confirmations and return data",
        "params": {
          "data": "Data payload of module transaction.",
          "operation": "Operation type of module transaction.",
          "to": "Destination address of module transaction.",
          "value": "Ether value of module transaction."
        }
      },
      "getMessageHash(bytes)": {
        "details": "Returns hash of a message that can be signed by owners.",
        "params": {
          "message": "Message that should be hashed"
        },
        "return": "Message hash."
      },
      "getModules()": {
        "details": "Returns array of first 10 modules.",
        "return": "Array of modules."
      },
      "getModulesPaginated(address,uint256)": {
        "details": "Returns array of modules.",
        "params": {
          "pageSize": "Maximum number of modules that should be returned.",
          "start": "Start of the page."
        },
        "return": "Array of modules."
      },
      "getOwners()": {
        "details": "Returns array of owners.",
        "return": "Array of Safe owners."
      },
      "getTransactionHash(address,uint256,bytes,uint8,uint256,uint256,uint256,address,address,uint256)": {
        "details": "Returns hash to be signed by owners.",
        "params": {
          "_nonce": "Transaction nonce.",
          "baseGas": "Gas costs for data used to trigger the safe transaction.",
          "data": "Data payload.",
          "gasPrice": "Maximum gas price that should be used for this transaction.",
          "gasToken": "Token address (or 0 if ETH) that is used for the payment.",
          "operation": "Operation type.",
          "refundReceiver": "Address of receiver of gas payment (or 0 if tx.origin).",
          "safeTxGas": "Fas that should be used for the safe transaction.",
          "to": "Destination address.",
          "value": "Ether value."
        },
        "return": "Transaction hash."
      },
      "isValidSignature(bytes,bytes)": {
        "details": "Should return whether the signature provided is valid for the provided data.      The save does not implement the interface since `checkSignatures` is not a view method.      The method will not perform any state changes (see parameters of `checkSignatures`)",
        "params": {
          "_data": "Arbitrary length data signed on the behalf of address(this)",
          "_signature": "Signature byte array associated with _data"
        },
        "return": "a bool upon valid or invalid signature with corresponding _data"
      },
      "requiredTxGas(address,uint256,bytes,uint8)": {
        "details": "Allows to estimate a Safe transaction.      This method is only meant for estimation purpose, therefore two different protection mechanism against execution in a transaction have been made:      1.) The method can only be called from the safe itself      2.) The response is returned with a revert      When estimating set `from` to the address of the safe.      Since the `estimateGas` function includes refunds, call this method to get an estimated of the costs that are deducted from the safe with `execTransaction`",
        "params": {
          "data": "Data payload of Safe transaction.",
          "operation": "Operation type of Safe transaction.",
          "to": "Destination address of Safe transaction.",
          "value": "Ether value of Safe transaction."
        },
        "return": "Estimate without refunds and overhead fees (base transaction and payload data gas costs)."
      },
      "setFallbackHandler(address)": {
        "details": "Allows to add a contract to handle fallback calls.      Only fallback calls without value and with data will be forwarded.      This can only be done via a Safe transaction.",
        "params": {
          "handler": "contract to handle fallbacks calls."
        }
      },
      "setup(address[],uint256,address,bytes,address,address,uint256,address)": {
        "details": "Setup function sets initial storage of contract.",
        "params": {
          "_owners": "List of Safe owners.",
          "_threshold": "Number of required confirmations for a Safe transaction.",
          "data": "Data payload for optional delegate call.",
          "fallbackHandler": "Handler for fallback calls to this contract",
          "payment": "Value that should be paid",
          "paymentReceiver": "Adddress that should receive the payment (or 0 if tx.origin)",
          "paymentToken": "Token that should be used for the payment (0 is ETH)",
          "to": "Contract address for optional delegate call."
        }
      },
      "signMessage(bytes)": {
        "details": "Marks a message as signed",
        "params": {
          "_data": "Arbitrary length data that should be marked as signed on the behalf of address(this)"
        }
      }
    }
  },
  "userdoc": {
    "methods": {
      "isValidSignature(bytes,bytes)": {
        "notice": "Implementation of ISignatureValidator (see `interfaces/ISignatureValidator.sol`)"
      }
    }
  }
}