{
  "contractName": "FallbackManager",
  "abi": [
    {
      "payable": true,
      "stateMutability": "payable",
      "type": "fallback"
    },
    {
      "constant": false,
      "inputs": [
        {
          "name": "handler",
          "type": "address"
        }
      ],
      "name": "setFallbackHandler",
      "outputs": [],
      "payable": false,
      "stateMutability": "nonpayable",
      "type": "function"
    }
  ],
  "bytecode": "0x608060405234801561001057600080fd5b506101dc806100206000396000f3fe60806040526004361061003a577c01000000000000000000000000000000000000000000000000000000006000350463f08a032381146100b8575b6000341180610047575036155b15610051576100b6565b7f6c9a6c4a39284e37ed1cf53d337577d14212a4870fb976a4366c693b939918d5805473ffffffffffffffffffffffffffffffffffffffff8116156100b357366000803760008036600080855af13d6000803e806100ae573d6000fd5b3d6000f35b50505b005b3480156100c457600080fd5b506100b6600480360360208110156100db57600080fd5b503573ffffffffffffffffffffffffffffffffffffffff1633301461014b576040517f08c379a000000000000000000000000000000000000000000000000000000000815260040180806020018281038252602c81526020018061017c602c913960400191505060405180910390fd5b61015481610157565b50565b7f6c9a6c4a39284e37ed1cf53d337577d14212a4870fb976a4366c693b939918d55556fe4d6574686f642063616e206f6e6c792062652063616c6c65642066726f6d207468697320636f6e7472616374a265627a7a72305820e77b0506144f86f1d8e0f4d28b220038fcd962610cc4d53f4fea077cc98f796664736f6c634300050a0032",
  "source": "pragma solidity >=0.5.0 <0.7.0;\n\nimport \"../common/SelfAuthorized.sol\";\n\n/// @title Fallback Manager - A contract that manages fallback calls made to this contract\n/// @author Richard Meissner - <richard@gnosis.pm>\ncontract FallbackManager is SelfAuthorized {\n\n    // keccak256(\"fallback_manager.handler.address\")\n    bytes32 internal constant FALLBACK_HANDLER_STORAGE_SLOT = 0x6c9a6c4a39284e37ed1cf53d337577d14212a4870fb976a4366c693b939918d5;\n\n    function internalSetFallbackHandler(address handler) internal {\n        bytes32 slot = FALLBACK_HANDLER_STORAGE_SLOT;\n        // solium-disable-next-line security/no-inline-assembly\n        assembly {\n            sstore(slot, handler)\n        }\n    }\n\n    /// @dev Allows to add a contract to handle fallback calls.\n    ///      Only fallback calls without value and with data will be forwarded.\n    ///      This can only be done via a Safe transaction.\n    /// @param handler contract to handle fallbacks calls.\n    function setFallbackHandler(address handler)\n        public\n        authorized\n    {\n        internalSetFallbackHandler(handler);\n    }\n\n    function ()\n        external\n        payable\n    {\n        // Only calls without value and with data will be forwarded\n        if (msg.value > 0 || msg.data.length == 0) {\n            return;\n        }\n        bytes32 slot = FALLBACK_HANDLER_STORAGE_SLOT;\n        address handler;\n        // solium-disable-next-line security/no-inline-assembly\n        assembly {\n            handler := sload(slot)\n        }\n\n        if (handler != address(0)) {\n            // solium-disable-next-line security/no-inline-assembly\n            assembly {\n                calldatacopy(0, 0, calldatasize())\n                let success := call(gas, handler, 0, 0, calldatasize(), 0, 0)\n                returndatacopy(0, 0, returndatasize())\n                if eq(success, 0) { revert(0, returndatasize()) }\n                return(0, returndatasize())\n            }\n        }\n    }\n}",
  "sourcePath": "@gnosis.pm/safe-contracts/contracts/base/FallbackManager.sol",
  "compiler": {
    "name": "solc",
    "version": "0.5.10+commit.5a6ea5b1.Emscripten.clang"
  },
  "schemaVersion": "3.0.20",
  "updatedAt": "2020-01-31T10:58:04.554Z",
  "devdoc": {
    "author": "Richard Meissner - <richard@gnosis.pm>",
    "methods": {
      "setFallbackHandler(address)": {
        "details": "Allows to add a contract to handle fallback calls.      Only fallback calls without value and with data will be forwarded.      This can only be done via a Safe transaction.",
        "params": {
          "handler": "contract to handle fallbacks calls."
        }
      }
    },
    "title": "Fallback Manager - A contract that manages fallback calls made to this contract"
  },
  "userdoc": {
    "methods": {}
  }
}