{
  "contractName": "FlexLimit",
  "abi": [
    {
      "constant": true,
      "inputs": [],
      "name": "startDate",
      "outputs": [
        {
          "name": "",
          "type": "uint256"
        }
      ],
      "payable": false,
      "stateMutability": "view",
      "type": "function"
    },
    {
      "constant": true,
      "inputs": [],
      "name": "manager",
      "outputs": [
        {
          "name": "",
          "type": "address"
        }
      ],
      "payable": false,
      "stateMutability": "view",
      "type": "function"
    },
    {
      "constant": false,
      "inputs": [
        {
          "name": "_masterCopy",
          "type": "address"
        }
      ],
      "name": "changeMasterCopy",
      "outputs": [],
      "payable": false,
      "stateMutability": "nonpayable",
      "type": "function"
    },
    {
      "constant": true,
      "inputs": [],
      "name": "NAME",
      "outputs": [
        {
          "name": "",
          "type": "string"
        }
      ],
      "payable": false,
      "stateMutability": "view",
      "type": "function"
    },
    {
      "constant": true,
      "inputs": [
        {
          "name": "",
          "type": "address"
        },
        {
          "name": "",
          "type": "uint256"
        }
      ],
      "name": "limits",
      "outputs": [
        {
          "name": "period",
          "type": "uint256"
        },
        {
          "name": "currentPeriod",
          "type": "uint256"
        },
        {
          "name": "spent",
          "type": "uint256"
        },
        {
          "name": "limit",
          "type": "uint256"
        }
      ],
      "payable": false,
      "stateMutability": "view",
      "type": "function"
    },
    {
      "constant": true,
      "inputs": [],
      "name": "MAX_LIMIT_NUMBER",
      "outputs": [
        {
          "name": "",
          "type": "uint256"
        }
      ],
      "payable": false,
      "stateMutability": "view",
      "type": "function"
    },
    {
      "constant": true,
      "inputs": [],
      "name": "VERSION",
      "outputs": [
        {
          "name": "",
          "type": "string"
        }
      ],
      "payable": false,
      "stateMutability": "view",
      "type": "function"
    },
    {
      "anonymous": false,
      "inputs": [
        {
          "indexed": true,
          "name": "to",
          "type": "address"
        },
        {
          "indexed": false,
          "name": "token",
          "type": "address"
        },
        {
          "indexed": false,
          "name": "amount",
          "type": "uint256"
        }
      ],
      "name": "TransactionUnderLimitExecuted",
      "type": "event"
    },
    {
      "anonymous": false,
      "inputs": [
        {
          "indexed": true,
          "name": "token",
          "type": "address"
        },
        {
          "indexed": false,
          "name": "oldLimit",
          "type": "uint256"
        },
        {
          "indexed": false,
          "name": "newLimit",
          "type": "uint256"
        }
      ],
      "name": "LimitChanged",
      "type": "event"
    },
    {
      "anonymous": false,
      "inputs": [
        {
          "indexed": true,
          "name": "token",
          "type": "address"
        },
        {
          "indexed": false,
          "name": "limit",
          "type": "uint256"
        },
        {
          "indexed": false,
          "name": "period",
          "type": "uint256"
        }
      ],
      "name": "LimitAdded",
      "type": "event"
    },
    {
      "anonymous": false,
      "inputs": [
        {
          "indexed": true,
          "name": "token",
          "type": "address"
        },
        {
          "components": [
            {
              "name": "period",
              "type": "uint256"
            },
            {
              "name": "currentPeriod",
              "type": "uint256"
            },
            {
              "name": "spent",
              "type": "uint256"
            },
            {
              "name": "limit",
              "type": "uint256"
            }
          ],
          "indexed": false,
          "name": "limit",
          "type": "tuple"
        }
      ],
      "name": "LimitDeleted",
      "type": "event"
    },
    {
      "anonymous": false,
      "inputs": [
        {
          "indexed": false,
          "name": "masterCopy",
          "type": "address"
        }
      ],
      "name": "ChangedMasterCopy",
      "type": "event"
    },
    {
      "constant": false,
      "inputs": [
        {
          "name": "_token",
          "type": "address"
        },
        {
          "components": [
            {
              "name": "period",
              "type": "uint256"
            },
            {
              "name": "currentPeriod",
              "type": "uint256"
            },
            {
              "name": "spent",
              "type": "uint256"
            },
            {
              "name": "limit",
              "type": "uint256"
            }
          ],
          "name": "_limit",
          "type": "tuple"
        }
      ],
      "name": "setup",
      "outputs": [],
      "payable": false,
      "stateMutability": "nonpayable",
      "type": "function"
    },
    {
      "constant": false,
      "inputs": [
        {
          "name": "_token",
          "type": "address"
        },
        {
          "components": [
            {
              "name": "period",
              "type": "uint256"
            },
            {
              "name": "currentPeriod",
              "type": "uint256"
            },
            {
              "name": "spent",
              "type": "uint256"
            },
            {
              "name": "limit",
              "type": "uint256"
            }
          ],
          "name": "_limit",
          "type": "tuple"
        }
      ],
      "name": "addLimit",
      "outputs": [],
      "payable": false,
      "stateMutability": "nonpayable",
      "type": "function"
    },
    {
      "constant": false,
      "inputs": [
        {
          "name": "_token",
          "type": "address"
        },
        {
          "name": "_index",
          "type": "uint256"
        },
        {
          "name": "_limit",
          "type": "uint256"
        },
        {
          "name": "_period",
          "type": "uint256"
        }
      ],
      "name": "deleteLimit",
      "outputs": [],
      "payable": false,
      "stateMutability": "nonpayable",
      "type": "function"
    },
    {
      "constant": false,
      "inputs": [
        {
          "name": "_token",
          "type": "address"
        },
        {
          "name": "_index",
          "type": "uint256"
        },
        {
          "name": "_newLimit",
          "type": "uint256"
        },
        {
          "name": "_limitAmount",
          "type": "uint256"
        },
        {
          "name": "_oldPeriod",
          "type": "uint256"
        }
      ],
      "name": "changeLimit",
      "outputs": [],
      "payable": false,
      "stateMutability": "nonpayable",
      "type": "function"
    },
    {
      "constant": false,
      "inputs": [
        {
          "name": "token",
          "type": "address"
        },
        {
          "name": "to",
          "type": "address"
        },
        {
          "name": "amount",
          "type": "uint256"
        }
      ],
      "name": "executeLimit",
      "outputs": [],
      "payable": false,
      "stateMutability": "nonpayable",
      "type": "function"
    },
    {
      "constant": true,
      "inputs": [
        {
          "name": "_token",
          "type": "address"
        }
      ],
      "name": "getNumberOfLimits",
      "outputs": [
        {
          "name": "",
          "type": "uint256"
        }
      ],
      "payable": false,
      "stateMutability": "view",
      "type": "function"
    }
  ],
  "bytecode": "0x608060405234801561001057600080fd5b506119ac806100206000396000f3fe608060405234801561001057600080fd5b50600436106100ec576000357c01000000000000000000000000000000000000000000000000000000009004806373188133116100a9578063a662296711610083578063a6622967146101ad578063aff6df54146101d0578063b0b60508146101e3578063ffa1ad74146101eb576100ec565b806373188133146101725780637de7edef14610185578063a3f4df7e14610198576100ec565b806305bdfc4d146100f15780630884e888146101065780630b97bc8614610119578063312902cd14610137578063481c6a751461014a5780635dcdfe861461015f575b600080fd5b6101046100ff3660046110a6565b6101f3565b005b61010461011436600461115d565b610573565b61012161086e565b60405161012e919061182d565b60405180910390f35b6101046101453660046110f3565b610874565b610152610968565b60405161012e9190611730565b61012161016d366004611080565b610977565b6101046101803660046110f3565b610996565b610104610193366004611080565b610a26565b6101a0610adf565b60405161012e919061173e565b6101c06101bb36600461112d565b610b18565b60405161012e9493929190611849565b6101046101de3660046111be565b610b5b565b610121610d2c565b6101a0610d31565b6001546040517f2f54bf6e000000000000000000000000000000000000000000000000000000008152600160a060020a0390911690632f54bf6e9061023c903390600401611687565b60206040518083038186803b15801561025457600080fd5b505afa158015610268573d6000803e3d6000fd5b505050506040513d601f19601f8201168201806040525061028c9190810190611233565b6102b45760405160e560020a62461bcd0281526004016102ab9061179f565b60405180910390fd5b600160a060020a0382166102dd5760405160e560020a62461bcd0281526004016102ab906117ef565b600081116103005760405160e560020a62461bcd0281526004016102ab906117bf565b61030a8382610d6a565b6103295760405160e560020a62461bcd0281526004016102ab9061178f565b600160a060020a0383166103fb576001546040517f468721a7000000000000000000000000000000000000000000000000000000008152600160a060020a039091169063468721a79061038590859085906000906004016116f5565b602060405180830381600087803b15801561039f57600080fd5b505af11580156103b3573d6000803e3d6000fd5b505050506040513d601f19601f820116820180604052506103d79190810190611233565b6103f65760405160e560020a62461bcd0281526004016102ab9061177f565b61052b565b606082826040516024016104109291906116da565b60408051601f198184030181529181526020820180517bffffffffffffffffffffffffffffffffffffffffffffffffffffffff167fa9059cbb0000000000000000000000000000000000000000000000000000000017905260015490517f468721a7000000000000000000000000000000000000000000000000000000008152919250600160a060020a03169063468721a7906104b890879060009086908290600401611695565b602060405180830381600087803b1580156104d257600080fd5b505af11580156104e6573d6000803e3d6000fd5b505050506040513d601f19601f8201168201806040525061050a9190810190611233565b6105295760405160e560020a62461bcd0281526004016102ab9061174f565b505b81600160a060020a03167fde082e28f1ef35aed12e50caf5db55b0649dc92a5677a71d54ff8ac7ad97183484836040516105669291906116da565b60405180910390a2505050565b600154600160a060020a031633146105a05760405160e560020a62461bcd0281526004016102ab9061180f565b600160a060020a0384166000908152600360205260409020548490849081106105de5760405160e560020a62461bcd0281526004016102ab906117ff565b600160a060020a038616600090815260036020526040902080548591908790811061060557fe5b90600052602060002090600402016003015414801561065a5750600160a060020a038616600090815260036020526040902080548491908790811061064657fe5b906000526020600020906004020160000154145b6106795760405160e560020a62461bcd0281526004016102ab906117df565b845b600160a060020a0387166000908152600360205260409020546000190181101561074157600160a060020a03871660009081526003602052604090208054600183019081106106c657fe5b90600052602060002090600402016003600089600160a060020a0316600160a060020a03168152602001908152602001600020828154811061070457fe5b600091825260209091208254600490920201908155600180830154818301556002808401549083015560039283015492909101919091550161067b565b5061074a610f62565b600160a060020a03871660009081526003602052604090208054600019810190811061077257fe5b60009182526020808320604080516080810182526004909402909101805484526001810154848401526002810154848301526003908101546060850152600160a060020a038c16855290915290912080549192509060001981019081106107d557fe5b60009182526020808320600490920290910182815560018101839055600281018390556003908101839055600160a060020a038a168352905260409020805490610823906000198301610f8a565b5086600160a060020a03167f9ca16816a5bb001ea613460ca9e9a4b26d9599562b18ad3c984215b0f23b95888260405161085d919061181f565b60405180910390a250505050505050565b60025481565b600154600160a060020a031633146108a15760405160e560020a62461bcd0281526004016102ab9061180f565b600160a060020a0382166000908152600360205260409020546004116108dc5760405160e560020a62461bcd0281526004016102ab906117cf565b600160a060020a0382166000818152600360208181526040808420805460018181018355918652948390208751600490960201858155928701519083015585810151600283015560608601519190920181905590517efd6ddaf367b0b0d0c5a8787b0e9007e2114411e538f30a6e9d754ea6c62f279261095c929161183b565b60405180910390a25050565b600154600160a060020a031681565b600160a060020a0381166000908152600360205260409020545b919050565b61099e610e5f565b600160a060020a03821660008181526003602081815260408084208054600181810183559186529483902087516004909602018581559287015190830155858101516002808401919091556060870151929093018290554290925590517efd6ddaf367b0b0d0c5a8787b0e9007e2114411e538f30a6e9d754ea6c62f279261095c929161183b565b600154600160a060020a03163314610a535760405160e560020a62461bcd0281526004016102ab9061180f565b600160a060020a038116610a7c5760405160e560020a62461bcd0281526004016102ab9061176f565b6000805473ffffffffffffffffffffffffffffffffffffffff1916600160a060020a0383161790556040517f75e41bc35ff1bf14d81d1d2f649c0084a0f974f9289c803ec9898eeec4c8d0b890610ad4908390611679565b60405180910390a150565b6040518060400160405280600c81526020017f4c696d6974204d6f64756c65000000000000000000000000000000000000000081525081565b60036020528160005260406000208181548110610b3157fe5b60009182526020909120600490910201805460018201546002830154600390930154919450925084565b600154600160a060020a03163314610b885760405160e560020a62461bcd0281526004016102ab9061180f565b600160a060020a038516600090815260036020526040902054859085908110610bc65760405160e560020a62461bcd0281526004016102ab906117ff565b600160a060020a0387166000908152600360205260409020805485919088908110610bed57fe5b906000526020600020906004020160030154148015610c425750600160a060020a0387166000908152600360205260409020805484919088908110610c2e57fe5b906000526020600020906004020160000154145b610c615760405160e560020a62461bcd0281526004016102ab906117df565b600160a060020a0387166000908152600360205260408120805488908110610c8557fe5b9060005260206000209060040201905085600360008a600160a060020a0316600160a060020a031681526020019081526020016000208881548110610cc657fe5b90600052602060002090600402016003018190555087600160a060020a03167fa6d91b9da806ef5c961905320a650cef8e6caf5eaef0bc5441b85c0b5d662910826003015488604051610d1a92919061183b565b60405180910390a25050505050505050565b600481565b6040518060400160405280600581526020017f302e312e3000000000000000000000000000000000000000000000000000000081525081565b600160a060020a038216600090815260036020526040812054610da25760405160e560020a62461bcd0281526004016102ab9061175f565b60005b600160a060020a038416600090815260036020526040902054811015610de657610dd0848285610eac565b610dde576000915050610e59565b600101610da5565b5060005b600160a060020a038416600090815260036020526040902054811015610e5357600160a060020a0384166000908152600360205260409020805484919083908110610e3157fe5b6000918252602090912060026004909202010180549091019055600101610dea565b50600190505b92915050565b600154600160a060020a031615610e8b5760405160e560020a62461bcd0281526004016102ab906117af565b6001805473ffffffffffffffffffffffffffffffffffffffff191633179055565b600160a060020a0383166000908152600360205260408120805482919085908110610ed357fe5b906000526020600020906004020190508060010154610ef182610f48565b1115610f0d57610f0081610f48565b6001820155600060028201555b80600301548382600201540111158015610f2c57506002810154838101115b15610f3b576001915050610f41565b60009150505b9392505050565b60008160000154600254420381610f5b57fe5b0492915050565b6040518060800160405280600081526020016000815260200160008152602001600081525090565b815481835581811115610fb657600402816004028360005260206000209182019101610fb69190610fbb565b505050565b610fed91905b80821115610fe957600080825560018201819055600282018190556003820155600401610fc1565b5090565b90565b8035610e5981611943565b8051610e5981611957565b60006080828403121561101857600080fd5b611022608061187e565b905060006110308484611075565b825250602061104184848301611075565b602083015250604061105584828501611075565b604083015250606061106984828501611075565b60608301525092915050565b8035610e5981611960565b60006020828403121561109257600080fd5b600061109e8484610ff0565b949350505050565b6000806000606084860312156110bb57600080fd5b60006110c78686610ff0565b93505060206110d886828701610ff0565b92505060406110e986828701611075565b9150509250925092565b60008060a0838503121561110657600080fd5b60006111128585610ff0565b925050602061112385828601611006565b9150509250929050565b6000806040838503121561114057600080fd5b600061114c8585610ff0565b925050602061112385828601611075565b6000806000806080858703121561117357600080fd5b600061117f8787610ff0565b945050602061119087828801611075565b93505060406111a187828801611075565b92505060606111b287828801611075565b91505092959194509250565b600080600080600060a086880312156111d657600080fd5b60006111e28888610ff0565b95505060206111f388828901611075565b945050604061120488828901611075565b935050606061121588828901611075565b925050608061122688828901611075565b9150509295509295909350565b60006020828403121561124557600080fd5b600061109e8484610ffb565b61125a816118d8565b82525050565b61125a816118b2565b6000611274826118a5565b61127e81856118a9565b935061128e818560208601611900565b6112978161192c565b9093019392505050565b61125a816118df565b61125a816118ea565b61125a816118f5565b60006112c96020836118a9565b7f436f756c64206e6f74206578656375746520746f6b656e207472616e73666572815260200192915050565b60006113026017836118a9565b7f4e6f206c696d6974732068617665206265656e20736574000000000000000000815260200192915050565b600061133b6024836118a9565b7f496e76616c6964206d617374657220636f707920616464726573732070726f7681527f6964656400000000000000000000000000000000000000000000000000000000602082015260400192915050565b600061139a6020836118a9565b7f436f756c64206e6f742065786563757465206574686572207472616e73666572815260200192915050565b60006113d3600a836118a9565b7f4f766572206c696d697400000000000000000000000000000000000000000000815260200192915050565b600061140c6025836118a9565b7f4d6574686f642063616e206f6e6c792062652063616c6c656420627920616e2081527f6f776e6572000000000000000000000000000000000000000000000000000000602082015260400192915050565b600061146b601c836118a9565b7f4d616e616765722068617320616c7265616479206265656e2073657400000000815260200192915050565b60006114a46017836118a9565b7f496e76616c696420616d6f756e742070726f7669646564000000000000000000815260200192915050565b60006114dd601e836118a9565b7f746f6b656e20686173206d6178206e756d626572206f66206c696d6974730000815260200192915050565b6000611516601b836118a9565b7f496e64657820616e64206c696d697420646f6e2774206d617463680000000000815260200192915050565b600061154f601b836118a9565b7f496e76616c696420746f20616464726573732070726f76696465640000000000815260200192915050565b6000610e596000836118a9565b60006115956013836118a9565b7f496e646578206f7574206f6620626f756e647300000000000000000000000000815260200192915050565b60006115ce6026836118a9565b7f4d6574686f642063616e206f6e6c792062652063616c6c65642066726f6d206d81527f616e616765720000000000000000000000000000000000000000000000000000602082015260400192915050565b805160808301906116318482611670565b5060208201516116446020850182611670565b5060408201516116576040850182611670565b50606082015161166a6060850182611670565b50505050565b61125a81610fed565b60208101610e598284611260565b60208101610e598284611251565b608081016116a38287611260565b6116b060208301866112b3565b81810360408301526116c28185611269565b90506116d160608301846112aa565b95945050505050565b604081016116e88285611260565b610f416020830184611670565b608081016117038286611260565b6117106020830185611670565b81810360408301526117218161157b565b905061109e60608301846112aa565b60208101610e5982846112a1565b60208082528101610f418184611269565b60208082528101610e59816112bc565b60208082528101610e59816112f5565b60208082528101610e598161132e565b60208082528101610e598161138d565b60208082528101610e59816113c6565b60208082528101610e59816113ff565b60208082528101610e598161145e565b60208082528101610e5981611497565b60208082528101610e59816114d0565b60208082528101610e5981611509565b60208082528101610e5981611542565b60208082528101610e5981611588565b60208082528101610e59816115c1565b60808101610e598284611620565b60208101610e598284611670565b604081016116e88285611670565b608081016118578287611670565b6118646020830186611670565b6118716040830185611670565b6116d16060830184611670565b60405181810167ffffffffffffffff8111828210171561189d57600080fd5b604052919050565b5190565b90815260200190565b6000610e59826118cc565b151590565b8061099181611936565b600160a060020a031690565b6000610e59825b6000610e59826118b2565b6000610e59826118c2565b6000610e5982610fed565b60005b8381101561191b578181015183820152602001611903565b8381111561166a5750506000910152565b601f01601f191690565b6002811061194057fe5b50565b61194c816118b2565b811461194057600080fd5b61194c816118bd565b61194c81610fed56fea365627a7a72305820cd5d9ed383be8621dcf2fc8323c83d2a7fc73ac03791c4e175831504ec81f3406c6578706572696d656e74616cf564736f6c634300050a0040",
  "source": "pragma solidity 0.5.10;\n//solium-disable-next-line no-experimental\npragma experimental ABIEncoderV2;\nimport \"@gnosis.pm/safe-contracts/contracts/base/Module.sol\";\nimport \"@gnosis.pm/safe-contracts/contracts/base/ModuleManager.sol\";\nimport \"@gnosis.pm/safe-contracts/contracts/base/OwnerManager.sol\";\nimport \"@gnosis.pm/safe-contracts/contracts/common/Enum.sol\";\nimport \"../module-interface/ModuleInterface.sol\";\n\n/// @title Spending Limit Module - Allows to transfer limited amounts of ERC20 tokens and Ether without confirmations.\n/// @author David Nicholas - <dnicholas@blockchains.com>\n/// @notice This is still in development and may have edge cases not accounted for\n\n//solium-disable-next-line blank-lines\ncontract FlexLimit is Module, ModuleInterface {\n    string public constant NAME = \"Limit Module\";\n    string public constant VERSION = \"0.1.0\";\n\n    uint256 public constant MAX_LIMIT_NUMBER = 4;\n    uint256 public startDate;\n\n    /// @dev limits - mapping from an ERC20 token to an array of limits for that token\n    mapping(address => Limit[]) public limits;\n\n    struct Limit {\n        uint256 period;\n        uint256 currentPeriod;\n        uint256 spent;\n        uint256 limit;\n    }\n\n    event TransactionUnderLimitExecuted(\n        address indexed to,\n        address token,\n        uint256 amount\n    );\n\n    event LimitChanged(\n        address indexed token,\n        uint256 oldLimit,\n        uint256 newLimit\n    );\n\n    event LimitAdded(address indexed token, uint256 limit, uint256 period);\n    event LimitDeleted(address indexed token, Limit limit);\n\n    modifier indexInBounds(address token, uint256 index) {\n        require(index < limits[token].length, \"Index out of bounds\");\n        _;\n    }\n\n    /// @dev Setup function sets limit for a token\n    /// @param _token ERC20 token. Ether is represented with address 0x0.\n    /// @param _limit Limit structure for the token\n    function setup(address _token, Limit memory _limit) public {\n        setManager();\n        limits[_token].push(_limit);\n\n        //solium-disable-next-line  security/no-block-members\n        startDate = block.timestamp; // solhint-disable-line not-rely-on-time\n\n        emit LimitAdded(_token, _limit.limit, _limit.period);\n    }\n\n    /// @dev Function adds limit to a token\n    /// @notice Can only be called by safe contract\n    /// @param _token ERC20 token. Ether is represented with address 0x0.\n    /// @param _limit Limit structure for the token\n    function addLimit(address _token, Limit memory _limit) public authorized {\n        require(\n            limits[_token].length < MAX_LIMIT_NUMBER,\n            \"token has max number of limits\"\n        );\n        limits[_token].push(_limit);\n\n        emit LimitAdded(_token, _limit.limit, _limit.period);\n    }\n\n    /// @dev Function sets limit for a token\n    /// @notice Can only be called by safe contract\n    /// @param _token ERC20 token. Ether is represented with address 0x0.\n    /// @param _index Index of the limit in the array\n    /// @param _limit Limit of the limit to change\n    /// @param _period Period of the limit to change\n    function deleteLimit(\n        address _token,\n        uint256 _index,\n        uint256 _limit,\n        uint256 _period\n    )\n        public\n        authorized //\n        indexInBounds(_token, _index)\n    {\n        require(\n            limits[_token][_index].limit == _limit &&\n                limits[_token][_index].period == _period,\n            \"Index and limit don't match\"\n        );\n\n        for (uint256 i = _index; i < limits[_token].length - 1; i++) {\n            limits[_token][i] = limits[_token][i + 1];\n        }\n\n        Limit memory deletedLimit = limits[_token][limits[_token].length - 1];\n\n        delete limits[_token][limits[_token].length - 1];\n        limits[_token].length--;\n\n        emit LimitDeleted(_token, deletedLimit);\n    }\n\n    /// @dev Function changes limit for a token\n    /// @notice Can only be called by safe contract\n    /// @param _token ERC20 token. Ether is represented with address 0x0.\n    /// @param _index Index of the limit in the array\n    /// @param _newLimit The new limit amoun to be placed on the period\n    /// @param _limitAmount amount of the limit to change\n    /// @param _oldPeriod Period of the limit to change\n    function changeLimit(\n        address _token,\n        uint256 _index,\n        uint256 _newLimit,\n        uint256 _limitAmount,\n        uint256 _oldPeriod\n    )\n        public\n        authorized //\n        indexInBounds(_token, _index)\n    {\n        require(\n            limits[_token][_index].limit == _limitAmount &&\n                limits[_token][_index].period == _oldPeriod,\n            \"Index and limit don't match\"\n        );\n\n        Limit storage oldLimit = limits[_token][_index];\n\n        limits[_token][_index].limit = _newLimit;\n        emit LimitChanged(_token, oldLimit.limit, _newLimit);\n    }\n\n    /// @dev Returns if Safe transaction under the limit\n    /// @param token Address of the token that should be transfered (0 for Ether)\n    /// @param to Address to which the tokens should be transfered\n    /// @param amount Amount of tokens (or Ether) that should be transfered\n    /// @return Returns if transaction can be executed.\n    function executeLimit(address token, address to, uint256 amount) public {\n        require(\n            OwnerManager(address(manager)).isOwner(msg.sender),\n            \"Method can only be called by an owner\"\n        );\n        require(to != address(0), \"Invalid to address provided\");\n        require(amount > 0, \"Invalid amount provided\");\n\n        require(checkLimits(token, amount), \"Over limit\");\n\n        if (token == address(0)) {\n            require(\n                manager.execTransactionFromModule(\n                    to,\n                    amount,\n                    \"\",\n                    Enum.Operation.Call\n                ),\n                \"Could not execute ether transfer\"\n            );\n        } else {\n            bytes memory data = abi.encodeWithSignature(\n                \"transfer(address,uint256)\",\n                to,\n                amount\n            );\n            require(\n                manager.execTransactionFromModule(\n                    token,\n                    0,\n                    data,\n                    Enum.Operation.Call\n                ),\n                \"Could not execute token transfer\"\n            );\n        }\n\n        emit TransactionUnderLimitExecuted(to, token, amount);\n    }\n\n    /// @param _token Address of the token that should be transfered (0 for Ether)\n    /// @return Returns number of limits associated with a token\n    function getNumberOfLimits(address _token) public view returns (uint256) {\n        return limits[_token].length;\n    }\n\n    /// @dev Checks the limits for a token\n    /// @param _token Address of the token that should be transfered\n    /// @param _amount Amount of tokens (or Ether) that should be transfered\n    /// @return Returns if the transaction are within the limit\n    function checkLimits(address _token, uint256 _amount)\n        internal\n        returns (bool)\n    {\n        require(limits[_token].length != 0, \"No limits have been set\");\n        for (uint256 i = 0; i < limits[_token].length; i++) {\n            if (!underLimit(_token, i, _amount)) {\n                return false;\n            }\n        }\n\n        for (uint256 i = 0; i < limits[_token].length; i++) {\n            limits[_token][i].spent += _amount;\n        }\n\n        return true;\n    }\n\n    /// @dev Returns if an amount is under a single limit\n    /// @param _token Address of the token that should be transfered\n    /// @param _limitIndex Index of the token in the limit array for the token\n    /// @param _amount Amount of tokens (or Ether) that should be transfered\n    /// @return Returns whether or not the amount can be spent within a specific limit\n    function underLimit(address _token, uint256 _limitIndex, uint256 _amount)\n        internal\n        returns (bool)\n    {\n        Limit storage limit = limits[_token][_limitIndex];\n        if (period(limit) > limit.currentPeriod) {\n            limit.currentPeriod = period(limit);\n            limit.spent = 0;\n        }\n\n        if (\n            limit.spent + _amount <= limit.limit &&\n            limit.spent + _amount > limit.spent\n        ) {\n            return true;\n        }\n\n        return false;\n    }\n\n    /// @dev Determines which period currently in.\n    /// @param _limit limit who's period is being assessed\n    /// @return Returns the current number of periods of the limit's period length\n    function period(Limit storage _limit) internal view returns (uint256) {\n        //solium-disable-next-line  security/no-block-members\n        return (block.timestamp - startDate) / _limit.period; // solhint-disable-line not-rely-on-time\n    }\n}\n",
  "sourcePath": "/Users/heikoburkhardt/Documents/custody/multisig_contracts/contracts/flex-limit/FlexLimit.sol",
  "compiler": {
    "name": "solc",
    "version": "0.5.10+commit.5a6ea5b1.Emscripten.clang"
  },
  "schemaVersion": "3.0.16",
  "updatedAt": "2020-02-02T09:01:13.149Z",
  "devdoc": {
    "author": "David Nicholas - <dnicholas@blockchains.com>",
    "methods": {
      "addLimit(address,(uint256,uint256,uint256,uint256))": {
        "details": "Function adds limit to a token",
        "params": {
          "_limit": "Limit structure for the token",
          "_token": "ERC20 token. Ether is represented with address 0x0."
        }
      },
      "changeLimit(address,uint256,uint256,uint256,uint256)": {
        "details": "Function changes limit for a token",
        "params": {
          "_index": "Index of the limit in the array",
          "_limitAmount": "amount of the limit to change",
          "_newLimit": "The new limit amoun to be placed on the period",
          "_oldPeriod": "Period of the limit to change",
          "_token": "ERC20 token. Ether is represented with address 0x0."
        }
      },
      "changeMasterCopy(address)": {
        "details": "Allows to upgrade the contract. This can only be done via a Safe transaction.",
        "params": {
          "_masterCopy": "New contract address."
        }
      },
      "deleteLimit(address,uint256,uint256,uint256)": {
        "details": "Function sets limit for a token",
        "params": {
          "_index": "Index of the limit in the array",
          "_limit": "Limit of the limit to change",
          "_period": "Period of the limit to change",
          "_token": "ERC20 token. Ether is represented with address 0x0."
        }
      },
      "executeLimit(address,address,uint256)": {
        "details": "Returns if Safe transaction under the limit",
        "params": {
          "amount": "Amount of tokens (or Ether) that should be transfered",
          "to": "Address to which the tokens should be transfered",
          "token": "Address of the token that should be transfered (0 for Ether)"
        },
        "return": "Returns if transaction can be executed."
      },
      "getNumberOfLimits(address)": {
        "params": {
          "_token": "Address of the token that should be transfered (0 for Ether)"
        },
        "return": "Returns number of limits associated with a token"
      },
      "setup(address,(uint256,uint256,uint256,uint256))": {
        "details": "Setup function sets limit for a token",
        "params": {
          "_limit": "Limit structure for the token",
          "_token": "ERC20 token. Ether is represented with address 0x0."
        }
      }
    },
    "title": "Spending Limit Module - Allows to transfer limited amounts of ERC20 tokens and Ether without confirmations."
  },
  "userdoc": {
    "methods": {
      "addLimit(address,(uint256,uint256,uint256,uint256))": {
        "notice": "Can only be called by safe contract"
      },
      "changeLimit(address,uint256,uint256,uint256,uint256)": {
        "notice": "Can only be called by safe contract"
      },
      "deleteLimit(address,uint256,uint256,uint256)": {
        "notice": "Can only be called by safe contract"
      }
    },
    "notice": "This is still in development and may have edge cases not accounted for"
  }
}