{
  "contractName": "GnosisSafe",
  "abi": [
    {
      "constant": false,
      "inputs": [
        {
          "name": "owner",
          "type": "address"
        },
        {
          "name": "_threshold",
          "type": "uint256"
        }
      ],
      "name": "addOwnerWithThreshold",
      "outputs": [],
      "payable": false,
      "stateMutability": "nonpayable",
      "type": "function"
    },
    {
      "constant": true,
      "inputs": [
        {
          "name": "owner",
          "type": "address"
        }
      ],
      "name": "isOwner",
      "outputs": [
        {
          "name": "",
          "type": "bool"
        }
      ],
      "payable": false,
      "stateMutability": "view",
      "type": "function"
    },
    {
      "constant": false,
      "inputs": [
        {
          "name": "to",
          "type": "address"
        },
        {
          "name": "value",
          "type": "uint256"
        },
        {
          "name": "data",
          "type": "bytes"
        },
        {
          "name": "operation",
          "type": "uint8"
        }
      ],
      "name": "execTransactionFromModule",
      "outputs": [
        {
          "name": "success",
          "type": "bool"
        }
      ],
      "payable": false,
      "stateMutability": "nonpayable",
      "type": "function"
    },
    {
      "constant": false,
      "inputs": [
        {
          "name": "to",
          "type": "address"
        },
        {
          "name": "value",
          "type": "uint256"
        },
        {
          "name": "data",
          "type": "bytes"
        },
        {
          "name": "operation",
          "type": "uint8"
        }
      ],
      "name": "execTransactionFromModuleReturnData",
      "outputs": [
        {
          "name": "success",
          "type": "bool"
        },
        {
          "name": "returnData",
          "type": "bytes"
        }
      ],
      "payable": false,
      "stateMutability": "nonpayable",
      "type": "function"
    },
    {
      "constant": true,
      "inputs": [
        {
          "name": "",
          "type": "bytes32"
        }
      ],
      "name": "signedMessages",
      "outputs": [
        {
          "name": "",
          "type": "uint256"
        }
      ],
      "payable": false,
      "stateMutability": "view",
      "type": "function"
    },
    {
      "constant": false,
      "inputs": [
        {
          "name": "module",
          "type": "address"
        }
      ],
      "name": "enableModule",
      "outputs": [],
      "payable": false,
      "stateMutability": "nonpayable",
      "type": "function"
    },
    {
      "constant": false,
      "inputs": [
        {
          "name": "_threshold",
          "type": "uint256"
        }
      ],
      "name": "changeThreshold",
      "outputs": [],
      "payable": false,
      "stateMutability": "nonpayable",
      "type": "function"
    },
    {
      "constant": true,
      "inputs": [
        {
          "name": "",
          "type": "address"
        },
        {
          "name": "",
          "type": "bytes32"
        }
      ],
      "name": "approvedHashes",
      "outputs": [
        {
          "name": "",
          "type": "uint256"
        }
      ],
      "payable": false,
      "stateMutability": "view",
      "type": "function"
    },
    {
      "constant": false,
      "inputs": [
        {
          "name": "_masterCopy",
          "type": "address"
        }
      ],
      "name": "changeMasterCopy",
      "outputs": [],
      "payable": false,
      "stateMutability": "nonpayable",
      "type": "function"
    },
    {
      "constant": true,
      "inputs": [],
      "name": "getOwners",
      "outputs": [
        {
          "name": "",
          "type": "address[]"
        }
      ],
      "payable": false,
      "stateMutability": "view",
      "type": "function"
    },
    {
      "constant": true,
      "inputs": [],
      "name": "NAME",
      "outputs": [
        {
          "name": "",
          "type": "string"
        }
      ],
      "payable": false,
      "stateMutability": "view",
      "type": "function"
    },
    {
      "constant": true,
      "inputs": [],
      "name": "nonce",
      "outputs": [
        {
          "name": "",
          "type": "uint256"
        }
      ],
      "payable": false,
      "stateMutability": "view",
      "type": "function"
    },
    {
      "constant": true,
      "inputs": [],
      "name": "getModules",
      "outputs": [
        {
          "name": "",
          "type": "address[]"
        }
      ],
      "payable": false,
      "stateMutability": "view",
      "type": "function"
    },
    {
      "constant": true,
      "inputs": [
        {
          "name": "start",
          "type": "address"
        },
        {
          "name": "pageSize",
          "type": "uint256"
        }
      ],
      "name": "getModulesPaginated",
      "outputs": [
        {
          "name": "array",
          "type": "address[]"
        },
        {
          "name": "next",
          "type": "address"
        }
      ],
      "payable": false,
      "stateMutability": "view",
      "type": "function"
    },
    {
      "constant": false,
      "inputs": [
        {
          "name": "prevModule",
          "type": "address"
        },
        {
          "name": "module",
          "type": "address"
        }
      ],
      "name": "disableModule",
      "outputs": [],
      "payable": false,
      "stateMutability": "nonpayable",
      "type": "function"
    },
    {
      "constant": false,
      "inputs": [
        {
          "name": "prevOwner",
          "type": "address"
        },
        {
          "name": "oldOwner",
          "type": "address"
        },
        {
          "name": "newOwner",
          "type": "address"
        }
      ],
      "name": "swapOwner",
      "outputs": [],
      "payable": false,
      "stateMutability": "nonpayable",
      "type": "function"
    },
    {
      "constant": true,
      "inputs": [],
      "name": "getThreshold",
      "outputs": [
        {
          "name": "",
          "type": "uint256"
        }
      ],
      "payable": false,
      "stateMutability": "view",
      "type": "function"
    },
    {
      "constant": false,
      "inputs": [
        {
          "name": "handler",
          "type": "address"
        }
      ],
      "name": "setFallbackHandler",
      "outputs": [],
      "payable": false,
      "stateMutability": "nonpayable",
      "type": "function"
    },
    {
      "constant": true,
      "inputs": [],
      "name": "domainSeparator",
      "outputs": [
        {
          "name": "",
          "type": "bytes32"
        }
      ],
      "payable": false,
      "stateMutability": "view",
      "type": "function"
    },
    {
      "constant": false,
      "inputs": [
        {
          "name": "prevOwner",
          "type": "address"
        },
        {
          "name": "owner",
          "type": "address"
        },
        {
          "name": "_threshold",
          "type": "uint256"
        }
      ],
      "name": "removeOwner",
      "outputs": [],
      "payable": false,
      "stateMutability": "nonpayable",
      "type": "function"
    },
    {
      "constant": true,
      "inputs": [],
      "name": "VERSION",
      "outputs": [
        {
          "name": "",
          "type": "string"
        }
      ],
      "payable": false,
      "stateMutability": "view",
      "type": "function"
    },
    {
      "inputs": [],
      "payable": false,
      "stateMutability": "nonpayable",
      "type": "constructor"
    },
    {
      "payable": true,
      "stateMutability": "payable",
      "type": "fallback"
    },
    {
      "anonymous": false,
      "inputs": [
        {
          "indexed": true,
          "name": "approvedHash",
          "type": "bytes32"
        },
        {
          "indexed": true,
          "name": "owner",
          "type": "address"
        }
      ],
      "name": "ApproveHash",
      "type": "event"
    },
    {
      "anonymous": false,
      "inputs": [
        {
          "indexed": true,
          "name": "msgHash",
          "type": "bytes32"
        }
      ],
      "name": "SignMsg",
      "type": "event"
    },
    {
      "anonymous": false,
      "inputs": [
        {
          "indexed": false,
          "name": "txHash",
          "type": "bytes32"
        },
        {
          "indexed": false,
          "name": "payment",
          "type": "uint256"
        }
      ],
      "name": "ExecutionFailure",
      "type": "event"
    },
    {
      "anonymous": false,
      "inputs": [
        {
          "indexed": false,
          "name": "txHash",
          "type": "bytes32"
        },
        {
          "indexed": false,
          "name": "payment",
          "type": "uint256"
        }
      ],
      "name": "ExecutionSuccess",
      "type": "event"
    },
    {
      "anonymous": false,
      "inputs": [
        {
          "indexed": false,
          "name": "owner",
          "type": "address"
        }
      ],
      "name": "AddedOwner",
      "type": "event"
    },
    {
      "anonymous": false,
      "inputs": [
        {
          "indexed": false,
          "name": "owner",
          "type": "address"
        }
      ],
      "name": "RemovedOwner",
      "type": "event"
    },
    {
      "anonymous": false,
      "inputs": [
        {
          "indexed": false,
          "name": "threshold",
          "type": "uint256"
        }
      ],
      "name": "ChangedThreshold",
      "type": "event"
    },
    {
      "anonymous": false,
      "inputs": [
        {
          "indexed": false,
          "name": "module",
          "type": "address"
        }
      ],
      "name": "EnabledModule",
      "type": "event"
    },
    {
      "anonymous": false,
      "inputs": [
        {
          "indexed": false,
          "name": "module",
          "type": "address"
        }
      ],
      "name": "DisabledModule",
      "type": "event"
    },
    {
      "anonymous": false,
      "inputs": [
        {
          "indexed": true,
          "name": "module",
          "type": "address"
        }
      ],
      "name": "ExecutionFromModuleSuccess",
      "type": "event"
    },
    {
      "anonymous": false,
      "inputs": [
        {
          "indexed": true,
          "name": "module",
          "type": "address"
        }
      ],
      "name": "ExecutionFromModuleFailure",
      "type": "event"
    },
    {
      "anonymous": false,
      "inputs": [
        {
          "indexed": false,
          "name": "masterCopy",
          "type": "address"
        }
      ],
      "name": "ChangedMasterCopy",
      "type": "event"
    },
    {
      "constant": false,
      "inputs": [
        {
          "name": "_owners",
          "type": "address[]"
        },
        {
          "name": "_threshold",
          "type": "uint256"
        },
        {
          "name": "to",
          "type": "address"
        },
        {
          "name": "data",
          "type": "bytes"
        },
        {
          "name": "fallbackHandler",
          "type": "address"
        },
        {
          "name": "paymentToken",
          "type": "address"
        },
        {
          "name": "payment",
          "type": "uint256"
        },
        {
          "name": "paymentReceiver",
          "type": "address"
        }
      ],
      "name": "setup",
      "outputs": [],
      "payable": false,
      "stateMutability": "nonpayable",
      "type": "function"
    },
    {
      "constant": false,
      "inputs": [
        {
          "name": "to",
          "type": "address"
        },
        {
          "name": "value",
          "type": "uint256"
        },
        {
          "name": "data",
          "type": "bytes"
        },
        {
          "name": "operation",
          "type": "uint8"
        },
        {
          "name": "safeTxGas",
          "type": "uint256"
        },
        {
          "name": "baseGas",
          "type": "uint256"
        },
        {
          "name": "gasPrice",
          "type": "uint256"
        },
        {
          "name": "gasToken",
          "type": "address"
        },
        {
          "name": "refundReceiver",
          "type": "address"
        },
        {
          "name": "signatures",
          "type": "bytes"
        }
      ],
      "name": "execTransaction",
      "outputs": [
        {
          "name": "success",
          "type": "bool"
        }
      ],
      "payable": false,
      "stateMutability": "nonpayable",
      "type": "function"
    },
    {
      "constant": false,
      "inputs": [
        {
          "name": "to",
          "type": "address"
        },
        {
          "name": "value",
          "type": "uint256"
        },
        {
          "name": "data",
          "type": "bytes"
        },
        {
          "name": "operation",
          "type": "uint8"
        }
      ],
      "name": "requiredTxGas",
      "outputs": [
        {
          "name": "",
          "type": "uint256"
        }
      ],
      "payable": false,
      "stateMutability": "nonpayable",
      "type": "function"
    },
    {
      "constant": false,
      "inputs": [
        {
          "name": "hashToApprove",
          "type": "bytes32"
        }
      ],
      "name": "approveHash",
      "outputs": [],
      "payable": false,
      "stateMutability": "nonpayable",
      "type": "function"
    },
    {
      "constant": false,
      "inputs": [
        {
          "name": "_data",
          "type": "bytes"
        }
      ],
      "name": "signMessage",
      "outputs": [],
      "payable": false,
      "stateMutability": "nonpayable",
      "type": "function"
    },
    {
      "constant": false,
      "inputs": [
        {
          "name": "_data",
          "type": "bytes"
        },
        {
          "name": "_signature",
          "type": "bytes"
        }
      ],
      "name": "isValidSignature",
      "outputs": [
        {
          "name": "",
          "type": "bytes4"
        }
      ],
      "payable": false,
      "stateMutability": "nonpayable",
      "type": "function"
    },
    {
      "constant": true,
      "inputs": [
        {
          "name": "message",
          "type": "bytes"
        }
      ],
      "name": "getMessageHash",
      "outputs": [
        {
          "name": "",
          "type": "bytes32"
        }
      ],
      "payable": false,
      "stateMutability": "view",
      "type": "function"
    },
    {
      "constant": true,
      "inputs": [
        {
          "name": "to",
          "type": "address"
        },
        {
          "name": "value",
          "type": "uint256"
        },
        {
          "name": "data",
          "type": "bytes"
        },
        {
          "name": "operation",
          "type": "uint8"
        },
        {
          "name": "safeTxGas",
          "type": "uint256"
        },
        {
          "name": "baseGas",
          "type": "uint256"
        },
        {
          "name": "gasPrice",
          "type": "uint256"
        },
        {
          "name": "gasToken",
          "type": "address"
        },
        {
          "name": "refundReceiver",
          "type": "address"
        },
        {
          "name": "_nonce",
          "type": "uint256"
        }
      ],
      "name": "encodeTransactionData",
      "outputs": [
        {
          "name": "",
          "type": "bytes"
        }
      ],
      "payable": false,
      "stateMutability": "view",
      "type": "function"
    },
    {
      "constant": true,
      "inputs": [
        {
          "name": "to",
          "type": "address"
        },
        {
          "name": "value",
          "type": "uint256"
        },
        {
          "name": "data",
          "type": "bytes"
        },
        {
          "name": "operation",
          "type": "uint8"
        },
        {
          "name": "safeTxGas",
          "type": "uint256"
        },
        {
          "name": "baseGas",
          "type": "uint256"
        },
        {
          "name": "gasPrice",
          "type": "uint256"
        },
        {
          "name": "gasToken",
          "type": "address"
        },
        {
          "name": "refundReceiver",
          "type": "address"
        },
        {
          "name": "_nonce",
          "type": "uint256"
        }
      ],
      "name": "getTransactionHash",
      "outputs": [
        {
          "name": "",
          "type": "bytes32"
        }
      ],
      "payable": false,
      "stateMutability": "view",
      "type": "function"
    }
  ],
  "bytecode": "0x608060405234801561001057600080fd5b506001600455613950806100256000396000f3fe6080604052600436106101d15760003560e060020a90048063affed0e0116100fb578063e009cfde11610099578063f08a032311610068578063f08a032314610f3d578063f698da2514610f70578063f8dc5dd914610f85578063ffa1ad7414610fc8576101d1565b8063e009cfde14610dac578063e318b52b14610de7578063e75235b814610e2c578063e86637db14610e41576101d1565b8063c4ca3a9c116100d5578063c4ca3a9c14610b4b578063cc2f845214610be0578063d4d9bdcd14610c86578063d8d11f7814610cb0576101d1565b8063affed0e014610a1d578063b2494df314610a32578063b63e800d14610a47576101d1565b8063610b5925116101735780637de7edef116101425780637de7edef1461087e57806385a5affe146108b1578063a0e67e2b1461092e578063a3f4df7e14610993576101d1565b8063610b5925146106cf578063694e80c3146107025780636a7612021461072c5780637d83297414610845576101d1565b80632f54bf6e116101af5780632f54bf6e14610441578063468721a7146104885780635229073f146105555780635ae6bd37146106a5576101d1565b80630a1028c4146102425780630d582f131461030757806320c13b0b14610340575b60003411806101de575036155b156101e857610240565b7f6c9a6c4a39284e37ed1cf53d337577d14212a4870fb976a4366c693b939918d58054600160a060020a0381161561023d57366000803760008036600080855af13d6000803e80610238573d6000fd5b3d6000f35b50505b005b34801561024e57600080fd5b506102f56004803603602081101561026557600080fd5b81019060208101813564010000000081111561028057600080fd5b82018360208201111561029257600080fd5b803590602001918460018302840111640100000000831117156102b457600080fd5b91908080601f016020809104026020016040519081016040528093929190818152602001838380828437600092019190915250929550610fdd945050505050565b60408051918252519081900360200190f35b34801561031357600080fd5b506102406004803603604081101561032a57600080fd5b50600160a060020a0381351690602001356110a0565b34801561034c57600080fd5b5061040f6004803603604081101561036357600080fd5b81019060208101813564010000000081111561037e57600080fd5b82018360208201111561039057600080fd5b803590602001918460018302840111640100000000831117156103b257600080fd5b9193909290916020810190356401000000008111156103d057600080fd5b8201836020820111156103e257600080fd5b8035906020019184600183028401116401000000008311171561040457600080fd5b50909250905061126a565b604080517bffffffffffffffffffffffffffffffffffffffffffffffffffffffff199092168252519081900360200190f35b34801561044d57600080fd5b506104746004803603602081101561046457600080fd5b5035600160a060020a03166113bc565b604080519115158252519081900360200190f35b34801561049457600080fd5b50610474600480360360808110156104ab57600080fd5b600160a060020a03823516916020810135918101906060810160408201356401000000008111156104db57600080fd5b8201836020820111156104ed57600080fd5b8035906020019184600183028401116401000000008311171561050f57600080fd5b91908080601f0160208091040260200160405190810160405280939291908181526020018383808284376000920191909152509295505050903560ff1691506113f79050565b34801561056157600080fd5b506106226004803603608081101561057857600080fd5b600160a060020a03823516916020810135918101906060810160408201356401000000008111156105a857600080fd5b8201836020820111156105ba57600080fd5b803590602001918460018302840111640100000000831117156105dc57600080fd5b91908080601f0160208091040260200160405190810160405280939291908181526020018383808284376000920191909152509295505050903560ff1691506114d79050565b604051808315151515815260200180602001828103825283818151815260200191508051906020019080838360005b83811015610669578181015183820152602001610651565b50505050905090810190601f1680156106965780820380516001836020036101000a031916815260200191505b50935050505060405180910390f35b3480156106b157600080fd5b506102f5600480360360208110156106c857600080fd5b503561150d565b3480156106db57600080fd5b50610240600480360360208110156106f257600080fd5b5035600160a060020a031661151f565b34801561070e57600080fd5b506102406004803603602081101561072557600080fd5b50356116da565b34801561073857600080fd5b50610474600480360361014081101561075057600080fd5b600160a060020a038235169160208101359181019060608101604082013564010000000081111561078057600080fd5b82018360208201111561079257600080fd5b803590602001918460018302840111640100000000831117156107b457600080fd5b9193909260ff83351692602081013592604082013592606083013592600160a060020a03608082013581169360a083013590911692909160e081019060c0013564010000000081111561080657600080fd5b82018360208201111561081857600080fd5b8035906020019184600183028401116401000000008311171561083a57600080fd5b5090925090506117dd565b34801561085157600080fd5b506102f56004803603604081101561086857600080fd5b50600160a060020a038135169060200135611a10565b34801561088a57600080fd5b50610240600480360360208110156108a157600080fd5b5035600160a060020a0316611a2d565b3480156108bd57600080fd5b50610240600480360360208110156108d457600080fd5b8101906020810181356401000000008111156108ef57600080fd5b82018360208201111561090157600080fd5b8035906020019184600183028401116401000000008311171561092357600080fd5b509092509050611b0a565b34801561093a57600080fd5b50610943611bce565b60408051602080825283518183015283519192839290830191858101910280838360005b8381101561097f578181015183820152602001610967565b505050509050019250505060405180910390f35b34801561099f57600080fd5b506109a8611c9a565b6040805160208082528351818301528351919283929083019185019080838360005b838110156109e25781810151838201526020016109ca565b50505050905090810190601f168015610a0f5780820380516001836020036101000a031916815260200191505b509250505060405180910390f35b348015610a2957600080fd5b506102f5611cd3565b348015610a3e57600080fd5b50610943611cd9565b348015610a5357600080fd5b506102406004803603610100811015610a6b57600080fd5b810190602081018135640100000000811115610a8657600080fd5b820183602082011115610a9857600080fd5b80359060200191846020830284011164010000000083111715610aba57600080fd5b91939092823592600160a060020a03602082013516929190606081019060400135640100000000811115610aed57600080fd5b820183602082011115610aff57600080fd5b80359060200191846001830284011164010000000083111715610b2157600080fd5b9193509150600160a060020a03813581169160208101358216916040820135916060013516611cef565b348015610b5757600080fd5b506102f560048036036080811015610b6e57600080fd5b600160a060020a0382351691602081013591810190606081016040820135640100000000811115610b9e57600080fd5b820183602082011115610bb057600080fd5b80359060200191846001830284011164010000000083111715610bd257600080fd5b91935091503560ff16611e4c565b348015610bec57600080fd5b50610c1960048036036040811015610c0357600080fd5b50600160a060020a038135169060200135611f8e565b604051808060200183600160a060020a0316600160a060020a03168152602001828103825284818151815260200191508051906020019060200280838360005b83811015610c71578181015183820152602001610c59565b50505050905001935050505060405180910390f35b348015610c9257600080fd5b5061024060048036036020811015610ca957600080fd5b5035612062565b348015610cbc57600080fd5b506102f56004803603610140811015610cd457600080fd5b600160a060020a0382351691602081013591810190606081016040820135640100000000811115610d0457600080fd5b820183602082011115610d1657600080fd5b80359060200191846001830284011164010000000083111715610d3857600080fd5b91908080601f0160208091040260200160405190810160405280939291908181526020018383808284376000920191909152509295505060ff83351693505050602081013590604081013590606081013590600160a060020a03608082013581169160a08101359091169060c00135612117565b348015610db857600080fd5b5061024060048036036040811015610dcf57600080fd5b50600160a060020a0381358116916020013516612142565b348015610df357600080fd5b5061024060048036036060811015610e0a57600080fd5b50600160a060020a0381358116916020810135821691604090910135166122d5565b348015610e3857600080fd5b506102f5612578565b348015610e4d57600080fd5b506109a86004803603610140811015610e6557600080fd5b600160a060020a0382351691602081013591810190606081016040820135640100000000811115610e9557600080fd5b820183602082011115610ea757600080fd5b80359060200191846001830284011164010000000083111715610ec957600080fd5b91908080601f0160208091040260200160405190810160405280939291908181526020018383808284376000920191909152509295505060ff83351693505050602081013590604081013590606081013590600160a060020a03608082013581169160a08101359091169060c0013561257e565b348015610f4957600080fd5b5061024060048036036020811015610f6057600080fd5b5035600160a060020a03166126d5565b348015610f7c57600080fd5b506102f5612722565b348015610f9157600080fd5b5061024060048036036060811015610fa857600080fd5b50600160a060020a03813581169160208101359091169060400135612728565b348015610fd457600080fd5b506109a861290d565b8051602091820120604080517f60b3cbf8b4a223d68d641b3b6ddf9a298e7f33710cf3d3a9d1146b5a6150fbca81850152808201929092528051808303820181526060830182528051908401206006547f190000000000000000000000000000000000000000000000000000000000000060808501527f01000000000000000000000000000000000000000000000000000000000000006081850152608284015260a2808401919091528151808403909101815260c29092019052805191012090565b3330146110e15760405160e560020a62461bcd02815260040180806020018281038252602c81526020018061383d602c913960400191505060405180910390fd5b600160a060020a038216158015906111035750600160a060020a038216600114155b611145576040805160e560020a62461bcd02815260206004820152601e602482015260008051602061367c833981519152604482015290519081900360640190fd5b600160a060020a0382811660009081526002602052604090205416156111b5576040805160e560020a62461bcd02815260206004820152601b60248201527f4164647265737320697320616c726561647920616e206f776e65720000000000604482015290519081900360640190fd5b600260209081527fe90b7bceb6e7df5418fb78d8ee546e97c83a08bbccc01a0644d599ccd2a7c2e08054600160a060020a0385811660008181526040808220805494909516600160a060020a031994851617909455600190819052845490921681179093556003805490910190558051918252517f9465fa0c962cc76958e6373a993326400c1c94f8be2fe3a952adfa7f60b2ea26929181900390910190a1806004541461126657611266816116da565b5050565b6000806112ac86868080601f016020809104026020016040519081016040528093929190818152602001838380828437600092019190915250610fdd92505050565b90508261131b57600081815260076020526040902054611316576040805160e560020a62461bcd02815260206004820152601160248201527f48617368206e6f7420617070726f766564000000000000000000000000000000604482015290519081900360640190fd5b61138f565b61138f8187878080601f01602080910402602001604051908101604052809392919081815260200183838082843760009201919091525050604080516020601f8b01819004810282018101909252898152925089915088908190840183828082843760009201829052509250612946915050565b507f20c13b0b0000000000000000000000000000000000000000000000000000000090505b949350505050565b6000600160a060020a0382166001148015906113f15750600160a060020a038281166000908152600260205260409020541615155b92915050565b600033600114801590611421575033600090815260016020526040902054600160a060020a031615155b61145f5760405160e560020a62461bcd0281526004018080602001828103825260308152602001806138696030913960400191505060405180910390fd5b61146c858585855a612fdb565b905080156114a45760405133907f6895c13664aa4f67288b25d7a21d7aaa34916e355fb9b6fae0a139a9085becb890600090a26113b4565b60405133907facd2c8702804128fdb0db2bb49f6d127dd0181c13fd45dbfe16de0930e2bd37590600090a2949350505050565b600060606114e7868686866113f7565b915060405160203d0181016040523d81523d6000602083013e8091505094509492505050565b60076020526000908152604090205481565b3330146115605760405160e560020a62461bcd02815260040180806020018281038252602c81526020018061383d602c913960400191505060405180910390fd5b600160a060020a038116158015906115825750600160a060020a038116600114155b6115d6576040805160e560020a62461bcd02815260206004820152601f60248201527f496e76616c6964206d6f64756c6520616464726573732070726f766964656400604482015290519081900360640190fd5b600160a060020a038181166000908152600160205260409020541615611646576040805160e560020a62461bcd02815260206004820152601d60248201527f4d6f64756c652068617320616c7265616479206265656e206164646564000000604482015290519081900360640190fd5b600160208181527fcc69885fda6bcc1a4ace058b4a62bf5e179ea78fd58a1ccd71c22cc9b688792f8054600160a060020a0385811660008181526040808220805494909516600160a060020a0319948516179094559590955282541684179091558051928352517fecdf3a3effea5783a3c4c2140e677577666428d44ed9d474a0b3a4c9943f84409281900390910190a150565b33301461171b5760405160e560020a62461bcd02815260040180806020018281038252602c81526020018061383d602c913960400191505060405180910390fd5b60035481111561175f5760405160e560020a62461bcd02815260040180806020018281038252602381526020018061370c6023913960400191505060405180910390fd5b60018110156117a25760405160e560020a62461bcd0281526004018080602001828103825260248152602001806137e26024913960400191505060405180910390fd5b60048190556040805182815290517f610f7ff2b304ae8903c3de74c60c6ab1f7d6226b3f52c5161905bb5ad4039c939181900360200190a150565b600080606061183a8f8f8f8f8080601f016020809104026020016040519081016040528093929190818152602001838380828437600081840152601f19601f820116905080830192505050505050508e8e8e8e8e8e60055461257e565b90506005600081548092919060010191905055508080519060200120915061189c828287878080601f01602080910402602001604051908101604052809392919081815260200183838082843760009201919091525060019250612946915050565b50885a10156118df5760405160e560020a62461bcd02815260040180806020018281038252602a8152602001806138f2602a913960400191505060405180910390fd5b60005a905061194e8f8f8f8f8080601f016020809104026020016040519081016040528093929190818152602001838380828437600081840152601f19601f820116905080830192505050505050508e8e600014801561193d57508c155b611947578e611949565b5a5b612fdb565b92506119615a829063ffffffff61302f16565b90506000881561197b57611978828b8b8b8b613044565b90505b83156119c157604080518481526020810183905281517f442e715f626346e8c54381002da614f62bee8d27386535b2521ec8540898556e929181900390910190a16119fd565b604080518481526020810183905281517f23428b18acfb3ea64b08dc0c1d296ea9c09702c09083ca5272e64d115b687d23929181900390910190a15b5050509c9b505050505050505050505050565b600860209081526000928352604080842090915290825290205481565b333014611a6e5760405160e560020a62461bcd02815260040180806020018281038252602c81526020018061383d602c913960400191505060405180910390fd5b600160a060020a038116611ab65760405160e560020a62461bcd0281526004018080602001828103825260248152602001806136586024913960400191505060405180910390fd5b60008054600160a060020a038316600160a060020a0319909116811790915560408051918252517f75e41bc35ff1bf14d81d1d2f649c0084a0f974f9289c803ec9898eeec4c8d0b89181900360200190a150565b333014611b4b5760405160e560020a62461bcd02815260040180806020018281038252602c81526020018061383d602c913960400191505060405180910390fd5b6000611b8c83838080601f016020809104026020016040519081016040528093929190818152602001838380828437600092019190915250610fdd92505050565b600081815260076020526040808220600190555191925082917fe7f4675038f4f6034dfcbbb24c4dc08e4ebf10eb9d257d3d02c0f38d122ac6e49190a2505050565b606080600354604051908082528060200260200182016040528015611bfd578160200160208202803883390190505b506001600090815260026020527fe90b7bceb6e7df5418fb78d8ee546e97c83a08bbccc01a0644d599ccd2a7c2e05491925090600160a060020a03165b600160a060020a038116600114611c925780838381518110611c5857fe5b600160a060020a03928316602091820292909201810191909152918116600090815260029092526040909120546001929092019116611c3a565b509091505090565b6040518060400160405280600b81526020017f476e6f736973205361666500000000000000000000000000000000000000000081525081565b60055481565b606080611ce86001600a611f8e565b5091505090565b60065415611d47576040805160e560020a62461bcd02815260206004820152601d60248201527f446f6d61696e20536570617261746f7220616c72656164792073657421000000604482015290519081900360640190fd5b604080517f035aff83d86937d35b32e04f0ddc6ff469290eef2f1b692d8a815c89404d47496020808301919091523082840152825180830384018152606083018085528151918301919091206006556080918d0280840183019094528c8152611dd19390928e928e92839291909101908490808284376000920191909152508c9250613170915050565b600160a060020a03841615611de957611de9846133bd565b611e298787878080601f0160208091040260200160405190810160405280939291908181526020018383808284376000920191909152506133e192505050565b8115611e4057611e3e82600060018685613044565b505b50505050505050505050565b6000333014611e8f5760405160e560020a62461bcd02815260040180806020018281038252602c81526020018061383d602c913960400191505060405180910390fd5b60005a9050611ed7878787878080601f01602080910402602001604051908101604052809392919081815260200183838082843760009201919091525089925050505a612fdb565b611ee057600080fd5b60005a82039050806040516020018082815260200191505060405160208183030381529060405260405160e560020a62461bcd0281526004018080602001828103825283818151815260200191508051906020019080838360005b83811015611f53578181015183820152602001611f3b565b50505050905090810190601f168015611f805780820380516001836020036101000a031916815260200191505b509250505060405180910390fd5b6060600082604051908082528060200260200182016040528015611fbc578160200160208202803883390190505b50600160a060020a0380861660009081526001602052604081205492945091165b600160a060020a03811615801590611fff5750600160a060020a038116600114155b801561200a57508482105b15612054578084838151811061201c57fe5b600160a060020a0392831660209182029290920181019190915291811660009081526001928390526040902054929091019116611fdd565b908352919491935090915050565b33600090815260026020526040902054600160a060020a03166120cf576040805160e560020a62461bcd02815260206004820152601e60248201527f4f6e6c79206f776e6572732063616e20617070726f7665206120686173680000604482015290519081900360640190fd5b336000818152600860209081526040808320858452909152808220600190555183917ff2a0eb156472d1440255b0d7c1e19cc07115d1051fe605b0dce69acfec884d9c91a350565b600061212b8b8b8b8b8b8b8b8b8b8b61257e565b8051906020012090509a9950505050505050505050565b3330146121835760405160e560020a62461bcd02815260040180806020018281038252602c81526020018061383d602c913960400191505060405180910390fd5b600160a060020a038116158015906121a55750600160a060020a038116600114155b6121f9576040805160e560020a62461bcd02815260206004820152601f60248201527f496e76616c6964206d6f64756c6520616464726573732070726f766964656400604482015290519081900360640190fd5b600160a060020a038281166000908152600160205260409020548116908216146122575760405160e560020a62461bcd0281526004018080602001828103825260288152602001806136e46028913960400191505060405180910390fd5b600160a060020a03818116600081815260016020908152604080832080548887168552828520805491909716600160a060020a031991821617909655928490528254909416909155825191825291517faab4fa2b463f581b2b32cb3b7e3b704b9ce37cc209b5fb4d77e593ace4054276929181900390910190a15050565b3330146123165760405160e560020a62461bcd02815260040180806020018281038252602c81526020018061383d602c913960400191505060405180910390fd5b600160a060020a038116158015906123385750600160a060020a038116600114155b61237a576040805160e560020a62461bcd02815260206004820152601e602482015260008051602061367c833981519152604482015290519081900360640190fd5b600160a060020a0381811660009081526002602052604090205416156123ea576040805160e560020a62461bcd02815260206004820152601b60248201527f4164647265737320697320616c726561647920616e206f776e65720000000000604482015290519081900360640190fd5b600160a060020a0382161580159061240c5750600160a060020a038216600114155b61244e576040805160e560020a62461bcd02815260206004820152601e602482015260008051602061367c833981519152604482015290519081900360640190fd5b600160a060020a038381166000908152600260205260409020548116908316146124ac5760405160e560020a62461bcd0281526004018080602001828103825260268152602001806137866026913960400191505060405180910390fd5b600160a060020a03828116600081815260026020908152604080832080548787168086528386208054928916600160a060020a0319938416179055968a16855282852080548216909717909655928490528254909416909155825191825291517ff8d49fc529812e9a7c5c50e69c20f0dccc0db8fa95c98bc58cc9a4f1c1299eaf929181900390910190a160408051600160a060020a038316815290517f9465fa0c962cc76958e6373a993326400c1c94f8be2fe3a952adfa7f60b2ea269181900360200190a1505050565b60045490565b606060007fbb8310d486368db6bd6f849402fdd73ad53d316b5a4b2644ad6efe0f941286d86001028c8c8c805190602001208c8c8c8c8c8c8c604051602001808c81526020018b600160a060020a0316600160a060020a031681526020018a81526020018981526020018860018111156125f457fe5b60ff168152602080820198909852604080820197909752606081019590955250600160a060020a039283166080850152911660a083015260c0808301919091528251808303909101815260e08201835280519301929092206006547f19000000000000000000000000000000000000000000000000000000000000006101008501527f01000000000000000000000000000000000000000000000000000000000000006101018501526101028401526101228084019190915281518084039091018152610142909201905296505050505050509a9950505050505050505050565b3330146127165760405160e560020a62461bcd02815260040180806020018281038252602c81526020018061383d602c913960400191505060405180910390fd5b61271f816133bd565b50565b60065481565b3330146127695760405160e560020a62461bcd02815260040180806020018281038252602c81526020018061383d602c913960400191505060405180910390fd5b8060016003540310156127b05760405160e560020a62461bcd02815260040180806020018281038252603581526020018061372f6035913960400191505060405180910390fd5b600160a060020a038216158015906127d25750600160a060020a038216600114155b612814576040805160e560020a62461bcd02815260206004820152601e602482015260008051602061367c833981519152604482015290519081900360640190fd5b600160a060020a038381166000908152600260205260409020548116908316146128725760405160e560020a62461bcd0281526004018080602001828103825260268152602001806137866026913960400191505060405180910390fd5b600160a060020a03828116600081815260026020908152604080832080548987168552828520805491909716600160a060020a03199182161790965592849052825490941690915560038054600019019055825191825291517ff8d49fc529812e9a7c5c50e69c20f0dccc0db8fa95c98bc58cc9a4f1c1299eaf929181900390910190a1806004541461290857612908816116da565b505050565b6040518060400160405280600581526020017f312e312e3100000000000000000000000000000000000000000000000000000081525081565b6004548061299e576040805160e560020a62461bcd02815260206004820152601e60248201527f5468726573686f6c64206e6565647320746f20626520646566696e6564210000604482015290519081900360640190fd5b6129af81604163ffffffff61350116565b83511015612a07576040805160e560020a62461bcd02815260206004820152601960248201527f5369676e617475726573206461746120746f6f2073686f727400000000000000604482015290519081900360640190fd5b600080808080805b86811015611e3e57612a21898261352f565b9195509350915060ff8416612d18579193508391612a4687604163ffffffff61350116565b821015612a875760405160e560020a62461bcd0281526004018080602001828103825260378152602001806138066037913960400191505060405180910390fd5b8851612a9a83602063ffffffff61354d16565b1115612ada5760405160e560020a62461bcd0281526004018080602001828103825260378152602001806138996037913960400191505060405180910390fd5b6020828a018101518a519091612b03908390612af790879061354d565b9063ffffffff61354d16565b1115612b435760405160e560020a62461bcd0281526004018080602001828103825260368152602001806137ac6036913960400191505060405180910390fd5b60606020848c010190506320c13b0b60e060020a027bffffffffffffffffffffffffffffffffffffffffffffffffffffffff191687600160a060020a03166320c13b0b8e846040518363ffffffff1660e060020a028152600401808060200180602001838103835285818151815260200191508051906020019080838360005b83811015612bdb578181015183820152602001612bc3565b50505050905090810190601f168015612c085780820380516001836020036101000a031916815260200191505b50838103825284518152845160209182019186019080838360005b83811015612c3b578181015183820152602001612c23565b50505050905090810190601f168015612c685780820380516001836020036101000a031916815260200191505b5094505050505060206040518083038186803b158015612c8757600080fd5b505afa158015612c9b573d6000803e3d6000fd5b505050506040513d6020811015612cb157600080fd5b50517bffffffffffffffffffffffffffffffffffffffffffffffffffffffff191614612d115760405160e560020a62461bcd0281526004018080602001828103825260238152602001806136c16023913960400191505060405180910390fd5b5050612f2a565b8360ff1660011415612dfb57919350839133600160a060020a0384161480612d625750600160a060020a03851660009081526008602090815260408083208e845290915290205415155b612db6576040805160e560020a62461bcd02815260206004820152601a60248201527f4861736820686173206e6f74206265656e20617070726f766564000000000000604482015290519081900360640190fd5b878015612dcc575033600160a060020a03861614155b15612df657600160a060020a03851660009081526008602090815260408083208e84529091528120555b612f2a565b601e8460ff161115612ec65760018b60405160200180807f19457468657265756d205369676e6564204d6573736167653a0a333200000000815250601c018281526020019150506040516020818303038152906040528051906020012060048603858560405160008152602001604052604051808581526020018460ff1660ff1681526020018381526020018281526020019450505050506020604051602081039080840390855afa158015612eb5573d6000803e3d6000fd5b505050602060405103519450612f2a565b604080516000815260208082018084528e905260ff8716828401526060820186905260808201859052915160019260a0808401939192601f1981019281900390910190855afa158015612f1d573d6000803e3d6000fd5b5050506020604051035194505b85600160a060020a031685600160a060020a0316118015612f645750600160a060020a038581166000908152600260205260409020541615155b8015612f7a5750600160a060020a038516600114155b612fce576040805160e560020a62461bcd02815260206004820152601660248201527f496e76616c6964206f776e65722070726f766964656400000000000000000000604482015290519081900360640190fd5b9394508493600101612a0f565b600080836001811115612fea57fe5b141561300357612ffc8686868561355f565b9050613026565b600183600181111561301157fe5b141561302257612ffc868584613577565b5060005b95945050505050565b60008282111561303e57600080fd5b50900390565b600080600160a060020a0383161561305c578261305e565b325b9050600160a060020a0384166131075761309c3a861061307e573a613080565b855b613090898963ffffffff61354d16565b9063ffffffff61350116565b604051909250600160a060020a0382169083156108fc029084906000818181858888f193505050506131025760405160e560020a62461bcd0281526004018080602001828103825260228152602001806138d06022913960400191505060405180910390fd5b613166565b61311b85613090898963ffffffff61354d16565b915061312884828461358d565b6131665760405160e560020a62461bcd0281526004018080602001828103825260228152602001806137646022913960400191505060405180910390fd5b5095945050505050565b600454156131c8576040805160e560020a62461bcd02815260206004820152601e60248201527f4f776e657273206861766520616c7265616479206265656e2073657475700000604482015290519081900360640190fd5b815181111561320b5760405160e560020a62461bcd02815260040180806020018281038252602381526020018061370c6023913960400191505060405180910390fd5b600181101561324e5760405160e560020a62461bcd0281526004018080602001828103825260248152602001806137e26024913960400191505060405180910390fd5b600160005b835181101561338a57600084828151811061326a57fe5b602002602001015190506000600160a060020a031681600160a060020a0316141580156132a15750600160a060020a038116600114155b6132e3576040805160e560020a62461bcd02815260206004820152601e602482015260008051602061367c833981519152604482015290519081900360640190fd5b600160a060020a038181166000908152600260205260409020541615613353576040805160e560020a62461bcd02815260206004820181905260248201527f4475706c6963617465206f776e657220616464726573732070726f7669646564604482015290519081900360640190fd5b600160a060020a0392831660009081526002602052604090208054600160a060020a03191693821693909317909255600101613253565b50600160a060020a031660009081526002602052604090208054600160a060020a03191660011790559051600355600455565b7f6c9a6c4a39284e37ed1cf53d337577d14212a4870fb976a4366c693b939918d555565b600160008190526020527fcc69885fda6bcc1a4ace058b4a62bf5e179ea78fd58a1ccd71c22cc9b688792f54600160a060020a0316156134555760405160e560020a62461bcd02815260040180806020018281038252602581526020018061369c6025913960400191505060405180910390fd5b6001600081905260208190527fcc69885fda6bcc1a4ace058b4a62bf5e179ea78fd58a1ccd71c22cc9b688792f8054600160a060020a0319169091179055600160a060020a03821615611266576134ad82825a613577565b611266576040805160e560020a62461bcd02815260206004820152601f60248201527f436f756c64206e6f742066696e69736820696e697469616c697a6174696f6e00604482015290519081900360640190fd5b600082613510575060006113f1565b8282028284828161351d57fe5b041461352857600080fd5b9392505050565b60419081029190910160208101516040820151919092015160ff1692565b60008282018381101561352857600080fd5b6000806000845160208601878987f195945050505050565b60008060008451602086018786f4949350505050565b60408051600160a060020a038416602482015260448082018490528251808303909101815260649091019091526020810180517bffffffffffffffffffffffffffffffffffffffffffffffffffffffff167fa9059cbb000000000000000000000000000000000000000000000000000000001781528151600092918391829182896127105a03f16040513d81016040523d6000823e3d801561363a5760208114613642576000945061364c565b82945061364c565b8151158315171594505b50505050939250505056fe496e76616c6964206d617374657220636f707920616464726573732070726f7669646564496e76616c6964206f776e657220616464726573732070726f766964656400004d6f64756c6573206861766520616c7265616479206265656e20696e697469616c697a6564496e76616c696420636f6e7472616374207369676e61747572652070726f7669646564496e76616c696420707265764d6f64756c652c206d6f64756c6520706169722070726f76696465645468726573686f6c642063616e6e6f7420657863656564206f776e657220636f756e744e6577206f776e657220636f756e74206e6565647320746f206265206c6172676572207468616e206e6577207468726573686f6c64436f756c64206e6f74207061792067617320636f737473207769746820746f6b656e496e76616c696420707265764f776e65722c206f776e657220706169722070726f7669646564496e76616c696420636f6e7472616374207369676e6174757265206c6f636174696f6e3a2064617461206e6f7420636f6d706c6574655468726573686f6c64206e6565647320746f2062652067726561746572207468616e2030496e76616c696420636f6e7472616374207369676e6174757265206c6f636174696f6e3a20696e736964652073746174696320706172744d6574686f642063616e206f6e6c792062652063616c6c65642066726f6d207468697320636f6e74726163744d6574686f642063616e206f6e6c792062652063616c6c65642066726f6d20616e20656e61626c6564206d6f64756c65496e76616c696420636f6e7472616374207369676e6174757265206c6f636174696f6e3a206c656e677468206e6f742070726573656e74436f756c64206e6f74207061792067617320636f73747320776974682065746865724e6f7420656e6f7567682067617320746f20657865637574652073616665207472616e73616374696f6ea265627a7a7230582004d6f248659117cd55e57f590ad99a1a755433cc3fdb6ab40292a01deb47b73364736f6c634300050a0032",
  "source": "pragma solidity >=0.5.0 <0.7.0;\nimport \"./base/ModuleManager.sol\";\nimport \"./base/OwnerManager.sol\";\nimport \"./base/FallbackManager.sol\";\nimport \"./common/MasterCopy.sol\";\nimport \"./common/SignatureDecoder.sol\";\nimport \"./common/SecuredTokenTransfer.sol\";\nimport \"./interfaces/ISignatureValidator.sol\";\nimport \"./external/SafeMath.sol\";\n\n/// @title Gnosis Safe - A multisignature wallet with support for confirmations using signed messages based on ERC191.\n/// @author Stefan George - <stefan@gnosis.io>\n/// @author Richard Meissner - <richard@gnosis.io>\n/// @author Ricardo Guilherme Schmidt - (Status Research & Development GmbH) - Gas Token Payment\ncontract GnosisSafe\n    is MasterCopy, ModuleManager, OwnerManager, SignatureDecoder, SecuredTokenTransfer, ISignatureValidatorConstants, FallbackManager {\n\n    using SafeMath for uint256;\n\n    string public constant NAME = \"Gnosis Safe\";\n    string public constant VERSION = \"1.1.1\";\n\n    //keccak256(\n    //    \"EIP712Domain(address verifyingContract)\"\n    //);\n    bytes32 private constant DOMAIN_SEPARATOR_TYPEHASH = 0x035aff83d86937d35b32e04f0ddc6ff469290eef2f1b692d8a815c89404d4749;\n\n    //keccak256(\n    //    \"SafeTx(address to,uint256 value,bytes data,uint8 operation,uint256 safeTxGas,uint256 baseGas,uint256 gasPrice,address gasToken,address refundReceiver,uint256 nonce)\"\n    //);\n    bytes32 private constant SAFE_TX_TYPEHASH = 0xbb8310d486368db6bd6f849402fdd73ad53d316b5a4b2644ad6efe0f941286d8;\n\n    //keccak256(\n    //    \"SafeMessage(bytes message)\"\n    //);\n    bytes32 private constant SAFE_MSG_TYPEHASH = 0x60b3cbf8b4a223d68d641b3b6ddf9a298e7f33710cf3d3a9d1146b5a6150fbca;\n\n    event ApproveHash(\n        bytes32 indexed approvedHash,\n        address indexed owner\n    );\n    event SignMsg(\n        bytes32 indexed msgHash\n    );\n    event ExecutionFailure(\n        bytes32 txHash, uint256 payment\n    );\n    event ExecutionSuccess(\n        bytes32 txHash, uint256 payment\n    );\n\n    uint256 public nonce;\n    bytes32 public domainSeparator;\n    // Mapping to keep track of all message hashes that have been approve by ALL REQUIRED owners\n    mapping(bytes32 => uint256) public signedMessages;\n    // Mapping to keep track of all hashes (message or transaction) that have been approve by ANY owners\n    mapping(address => mapping(bytes32 => uint256)) public approvedHashes;\n\n    // This constructor ensures that this contract can only be used as a master copy for Proxy contracts\n    constructor() public {\n        // By setting the threshold it is not possible to call setup anymore,\n        // so we create a Safe with 0 owners and threshold 1.\n        // This is an unusable Safe, perfect for the mastercopy\n        threshold = 1;\n    }\n\n    /// @dev Setup function sets initial storage of contract.\n    /// @param _owners List of Safe owners.\n    /// @param _threshold Number of required confirmations for a Safe transaction.\n    /// @param to Contract address for optional delegate call.\n    /// @param data Data payload for optional delegate call.\n    /// @param fallbackHandler Handler for fallback calls to this contract\n    /// @param paymentToken Token that should be used for the payment (0 is ETH)\n    /// @param payment Value that should be paid\n    /// @param paymentReceiver Adddress that should receive the payment (or 0 if tx.origin)\n    function setup(\n        address[] calldata _owners,\n        uint256 _threshold,\n        address to,\n        bytes calldata data,\n        address fallbackHandler,\n        address paymentToken,\n        uint256 payment,\n        address payable paymentReceiver\n    )\n        external\n    {\n        require(domainSeparator == 0, \"Domain Separator already set!\");\n        domainSeparator = keccak256(abi.encode(DOMAIN_SEPARATOR_TYPEHASH, this));\n        setupOwners(_owners, _threshold);\n        if (fallbackHandler != address(0)) internalSetFallbackHandler(fallbackHandler);\n        // As setupOwners can only be called if the contract has not been initialized we don't need a check for setupModules\n        setupModules(to, data);\n\n        if (payment > 0) {\n            // To avoid running into issues with EIP-170 we reuse the handlePayment function (to avoid adjusting code of that has been verified we do not adjust the method itself)\n            // baseGas = 0, gasPrice = 1 and gas = payment => amount = (payment + 0) * 1 = payment\n            handlePayment(payment, 0, 1, paymentToken, paymentReceiver);\n        }\n    }\n\n    /// @dev Allows to execute a Safe transaction confirmed by required number of owners and then pays the account that submitted the transaction.\n    ///      Note: The fees are always transfered, even if the user transaction fails.\n    /// @param to Destination address of Safe transaction.\n    /// @param value Ether value of Safe transaction.\n    /// @param data Data payload of Safe transaction.\n    /// @param operation Operation type of Safe transaction.\n    /// @param safeTxGas Gas that should be used for the Safe transaction.\n    /// @param baseGas Gas costs for that are indipendent of the transaction execution(e.g. base transaction fee, signature check, payment of the refund)\n    /// @param gasPrice Gas price that should be used for the payment calculation.\n    /// @param gasToken Token address (or 0 if ETH) that is used for the payment.\n    /// @param refundReceiver Address of receiver of gas payment (or 0 if tx.origin).\n    /// @param signatures Packed signature data ({bytes32 r}{bytes32 s}{uint8 v})\n    function execTransaction(\n        address to,\n        uint256 value,\n        bytes calldata data,\n        Enum.Operation operation,\n        uint256 safeTxGas,\n        uint256 baseGas,\n        uint256 gasPrice,\n        address gasToken,\n        address payable refundReceiver,\n        bytes calldata signatures\n    )\n        external\n        returns (bool success)\n    {\n        bytes32 txHash;\n        // Use scope here to limit variable lifetime and prevent `stack too deep` errors\n        {\n            bytes memory txHashData = encodeTransactionData(\n                to, value, data, operation, // Transaction info\n                safeTxGas, baseGas, gasPrice, gasToken, refundReceiver, // Payment info\n                nonce\n            );\n            // Increase nonce and execute transaction.\n            nonce++;\n            txHash = keccak256(txHashData);\n            checkSignatures(txHash, txHashData, signatures, true);\n        }\n        require(gasleft() >= safeTxGas, \"Not enough gas to execute safe transaction\");\n        // Use scope here to limit variable lifetime and prevent `stack too deep` errors\n        {\n            uint256 gasUsed = gasleft();\n            // If no safeTxGas has been set and the gasPrice is 0 we assume that all available gas can be used\n            success = execute(to, value, data, operation, safeTxGas == 0 && gasPrice == 0 ? gasleft() : safeTxGas);\n            gasUsed = gasUsed.sub(gasleft());\n            // We transfer the calculated tx costs to the tx.origin to avoid sending it to intermediate contracts that have made calls\n            uint256 payment = 0;\n            if (gasPrice > 0) {\n                payment = handlePayment(gasUsed, baseGas, gasPrice, gasToken, refundReceiver);\n            }\n            if (success) emit ExecutionSuccess(txHash, payment);\n            else emit ExecutionFailure(txHash, payment);\n        }\n    }\n\n    function handlePayment(\n        uint256 gasUsed,\n        uint256 baseGas,\n        uint256 gasPrice,\n        address gasToken,\n        address payable refundReceiver\n    )\n        private\n        returns (uint256 payment)\n    {\n        // solium-disable-next-line security/no-tx-origin\n        address payable receiver = refundReceiver == address(0) ? tx.origin : refundReceiver;\n        if (gasToken == address(0)) {\n            // For ETH we will only adjust the gas price to not be higher than the actual used gas price\n            payment = gasUsed.add(baseGas).mul(gasPrice < tx.gasprice ? gasPrice : tx.gasprice);\n            // solium-disable-next-line security/no-send\n            require(receiver.send(payment), \"Could not pay gas costs with ether\");\n        } else {\n            payment = gasUsed.add(baseGas).mul(gasPrice);\n            require(transferToken(gasToken, receiver, payment), \"Could not pay gas costs with token\");\n        }\n    }\n\n    /**\n    * @dev Checks whether the signature provided is valid for the provided data, hash. Will revert otherwise.\n    * @param dataHash Hash of the data (could be either a message hash or transaction hash)\n    * @param data That should be signed (this is passed to an external validator contract)\n    * @param signatures Signature data that should be verified. Can be ECDSA signature, contract signature (EIP-1271) or approved hash.\n    * @param consumeHash Indicates that in case of an approved hash the storage can be freed to save gas\n    */\n    function checkSignatures(bytes32 dataHash, bytes memory data, bytes memory signatures, bool consumeHash)\n        internal\n    {\n        // Load threshold to avoid multiple storage loads\n        uint256 _threshold = threshold;\n        // Check that a threshold is set\n        require(_threshold > 0, \"Threshold needs to be defined!\");\n        // Check that the provided signature data is not too short\n        require(signatures.length >= _threshold.mul(65), \"Signatures data too short\");\n        // There cannot be an owner with address 0.\n        address lastOwner = address(0);\n        address currentOwner;\n        uint8 v;\n        bytes32 r;\n        bytes32 s;\n        uint256 i;\n        for (i = 0; i < _threshold; i++) {\n            (v, r, s) = signatureSplit(signatures, i);\n            // If v is 0 then it is a contract signature\n            if (v == 0) {\n                // When handling contract signatures the address of the contract is encoded into r\n                currentOwner = address(uint256(r));\n\n                // Check that signature data pointer (s) is not pointing inside the static part of the signatures bytes\n                // This check is not completely accurate, since it is possible that more signatures than the threshold are send.\n                // Here we only check that the pointer is not pointing inside the part that is being processed\n                require(uint256(s) >= _threshold.mul(65), \"Invalid contract signature location: inside static part\");\n\n                // Check that signature data pointer (s) is in bounds (points to the length of data -> 32 bytes)\n                require(uint256(s).add(32) <= signatures.length, \"Invalid contract signature location: length not present\");\n\n                // Check if the contract signature is in bounds: start of data is s + 32 and end is start + signature length\n                uint256 contractSignatureLen;\n                // solium-disable-next-line security/no-inline-assembly\n                assembly {\n                    contractSignatureLen := mload(add(add(signatures, s), 0x20))\n                }\n                require(uint256(s).add(32).add(contractSignatureLen) <= signatures.length, \"Invalid contract signature location: data not complete\");\n\n                // Check signature\n                bytes memory contractSignature;\n                // solium-disable-next-line security/no-inline-assembly\n                assembly {\n                    // The signature data for contract signatures is appended to the concatenated signatures and the offset is stored in s\n                    contractSignature := add(add(signatures, s), 0x20)\n                }\n                require(ISignatureValidator(currentOwner).isValidSignature(data, contractSignature) == EIP1271_MAGIC_VALUE, \"Invalid contract signature provided\");\n            // If v is 1 then it is an approved hash\n            } else if (v == 1) {\n                // When handling approved hashes the address of the approver is encoded into r\n                currentOwner = address(uint256(r));\n                // Hashes are automatically approved by the sender of the message or when they have been pre-approved via a separate transaction\n                require(msg.sender == currentOwner || approvedHashes[currentOwner][dataHash] != 0, \"Hash has not been approved\");\n                // Hash has been marked for consumption. If this hash was pre-approved free storage\n                if (consumeHash && msg.sender != currentOwner) {\n                    approvedHashes[currentOwner][dataHash] = 0;\n                }\n            } else if (v > 30) {\n                // To support eth_sign and similar we adjust v and hash the messageHash with the Ethereum message prefix before applying ecrecover\n                currentOwner = ecrecover(keccak256(abi.encodePacked(\"\\x19Ethereum Signed Message:\\n32\", dataHash)), v - 4, r, s);\n            } else {\n                // Use ecrecover with the messageHash for EOA signatures\n                currentOwner = ecrecover(dataHash, v, r, s);\n            }\n            require (\n                currentOwner > lastOwner && owners[currentOwner] != address(0) && currentOwner != SENTINEL_OWNERS,\n                \"Invalid owner provided\"\n            );\n            lastOwner = currentOwner;\n        }\n    }\n\n    /// @dev Allows to estimate a Safe transaction.\n    ///      This method is only meant for estimation purpose, therefore two different protection mechanism against execution in a transaction have been made:\n    ///      1.) The method can only be called from the safe itself\n    ///      2.) The response is returned with a revert\n    ///      When estimating set `from` to the address of the safe.\n    ///      Since the `estimateGas` function includes refunds, call this method to get an estimated of the costs that are deducted from the safe with `execTransaction`\n    /// @param to Destination address of Safe transaction.\n    /// @param value Ether value of Safe transaction.\n    /// @param data Data payload of Safe transaction.\n    /// @param operation Operation type of Safe transaction.\n    /// @return Estimate without refunds and overhead fees (base transaction and payload data gas costs).\n    function requiredTxGas(address to, uint256 value, bytes calldata data, Enum.Operation operation)\n        external\n        authorized\n        returns (uint256)\n    {\n        uint256 startGas = gasleft();\n        // We don't provide an error message here, as we use it to return the estimate\n        // solium-disable-next-line error-reason\n        require(execute(to, value, data, operation, gasleft()));\n        uint256 requiredGas = startGas - gasleft();\n        // Convert response to string and return via error message\n        revert(string(abi.encodePacked(requiredGas)));\n    }\n\n    /**\n    * @dev Marks a hash as approved. This can be used to validate a hash that is used by a signature.\n    * @param hashToApprove The hash that should be marked as approved for signatures that are verified by this contract.\n    */\n    function approveHash(bytes32 hashToApprove)\n        external\n    {\n        require(owners[msg.sender] != address(0), \"Only owners can approve a hash\");\n        approvedHashes[msg.sender][hashToApprove] = 1;\n        emit ApproveHash(hashToApprove, msg.sender);\n    }\n\n    /**\n    * @dev Marks a message as signed\n    * @param _data Arbitrary length data that should be marked as signed on the behalf of address(this)\n    */\n    function signMessage(bytes calldata _data)\n        external\n        authorized\n    {\n        bytes32 msgHash = getMessageHash(_data);\n        signedMessages[msgHash] = 1;\n        emit SignMsg(msgHash);\n    }\n\n    /**\n    * Implementation of ISignatureValidator (see `interfaces/ISignatureValidator.sol`)\n    * @dev Should return whether the signature provided is valid for the provided data.\n    *       The save does not implement the interface since `checkSignatures` is not a view method.\n    *       The method will not perform any state changes (see parameters of `checkSignatures`)\n    * @param _data Arbitrary length data signed on the behalf of address(this)\n    * @param _signature Signature byte array associated with _data\n    * @return a bool upon valid or invalid signature with corresponding _data\n    */\n    function isValidSignature(bytes calldata _data, bytes calldata _signature)\n        external\n        returns (bytes4)\n    {\n        bytes32 messageHash = getMessageHash(_data);\n        if (_signature.length == 0) {\n            require(signedMessages[messageHash] != 0, \"Hash not approved\");\n        } else {\n            // consumeHash needs to be false, as the state should not be changed\n            checkSignatures(messageHash, _data, _signature, false);\n        }\n        return EIP1271_MAGIC_VALUE;\n    }\n\n    /// @dev Returns hash of a message that can be signed by owners.\n    /// @param message Message that should be hashed\n    /// @return Message hash.\n    function getMessageHash(\n        bytes memory message\n    )\n        public\n        view\n        returns (bytes32)\n    {\n        bytes32 safeMessageHash = keccak256(\n            abi.encode(SAFE_MSG_TYPEHASH, keccak256(message))\n        );\n        return keccak256(\n            abi.encodePacked(byte(0x19), byte(0x01), domainSeparator, safeMessageHash)\n        );\n    }\n\n    /// @dev Returns the bytes that are hashed to be signed by owners.\n    /// @param to Destination address.\n    /// @param value Ether value.\n    /// @param data Data payload.\n    /// @param operation Operation type.\n    /// @param safeTxGas Fas that should be used for the safe transaction.\n    /// @param baseGas Gas costs for data used to trigger the safe transaction.\n    /// @param gasPrice Maximum gas price that should be used for this transaction.\n    /// @param gasToken Token address (or 0 if ETH) that is used for the payment.\n    /// @param refundReceiver Address of receiver of gas payment (or 0 if tx.origin).\n    /// @param _nonce Transaction nonce.\n    /// @return Transaction hash bytes.\n    function encodeTransactionData(\n        address to,\n        uint256 value,\n        bytes memory data,\n        Enum.Operation operation,\n        uint256 safeTxGas,\n        uint256 baseGas,\n        uint256 gasPrice,\n        address gasToken,\n        address refundReceiver,\n        uint256 _nonce\n    )\n        public\n        view\n        returns (bytes memory)\n    {\n        bytes32 safeTxHash = keccak256(\n            abi.encode(SAFE_TX_TYPEHASH, to, value, keccak256(data), operation, safeTxGas, baseGas, gasPrice, gasToken, refundReceiver, _nonce)\n        );\n        return abi.encodePacked(byte(0x19), byte(0x01), domainSeparator, safeTxHash);\n    }\n\n    /// @dev Returns hash to be signed by owners.\n    /// @param to Destination address.\n    /// @param value Ether value.\n    /// @param data Data payload.\n    /// @param operation Operation type.\n    /// @param safeTxGas Fas that should be used for the safe transaction.\n    /// @param baseGas Gas costs for data used to trigger the safe transaction.\n    /// @param gasPrice Maximum gas price that should be used for this transaction.\n    /// @param gasToken Token address (or 0 if ETH) that is used for the payment.\n    /// @param refundReceiver Address of receiver of gas payment (or 0 if tx.origin).\n    /// @param _nonce Transaction nonce.\n    /// @return Transaction hash.\n    function getTransactionHash(\n        address to,\n        uint256 value,\n        bytes memory data,\n        Enum.Operation operation,\n        uint256 safeTxGas,\n        uint256 baseGas,\n        uint256 gasPrice,\n        address gasToken,\n        address refundReceiver,\n        uint256 _nonce\n    )\n        public\n        view\n        returns (bytes32)\n    {\n        return keccak256(encodeTransactionData(to, value, data, operation, safeTxGas, baseGas, gasPrice, gasToken, refundReceiver, _nonce));\n    }\n}\n",
  "sourcePath": "@gnosis.pm/safe-contracts/contracts/GnosisSafe.sol",
  "compiler": {
    "name": "solc",
    "version": "0.5.10+commit.5a6ea5b1.Emscripten.clang"
  },
  "schemaVersion": "3.0.20",
  "updatedAt": "2020-01-31T10:58:04.541Z",
  "devdoc": {
    "author": "Stefan George - <stefan@gnosis.io>Richard Meissner - <richard@gnosis.io>Ricardo Guilherme Schmidt - (Status Research & Development GmbH) - Gas Token Payment",
    "methods": {
      "addOwnerWithThreshold(address,uint256)": {
        "details": "Allows to add a new owner to the Safe and update the threshold at the same time.      This can only be done via a Safe transaction.",
        "params": {
          "_threshold": "New threshold.",
          "owner": "New owner address."
        }
      },
      "approveHash(bytes32)": {
        "details": "Marks a hash as approved. This can be used to validate a hash that is used by a signature.",
        "params": {
          "hashToApprove": "The hash that should be marked as approved for signatures that are verified by this contract."
        }
      },
      "changeMasterCopy(address)": {
        "details": "Allows to upgrade the contract. This can only be done via a Safe transaction.",
        "params": {
          "_masterCopy": "New contract address."
        }
      },
      "changeThreshold(uint256)": {
        "details": "Allows to update the number of required confirmations by Safe owners.      This can only be done via a Safe transaction.",
        "params": {
          "_threshold": "New threshold."
        }
      },
      "disableModule(address,address)": {
        "details": "Allows to remove a module from the whitelist.      This can only be done via a Safe transaction.",
        "params": {
          "module": "Module to be removed.",
          "prevModule": "Module that pointed to the module to be removed in the linked list"
        }
      },
      "enableModule(address)": {
        "details": "Allows to add a module to the whitelist.      This can only be done via a Safe transaction.",
        "params": {
          "module": "Module to be whitelisted."
        }
      },
      "encodeTransactionData(address,uint256,bytes,uint8,uint256,uint256,uint256,address,address,uint256)": {
        "details": "Returns the bytes that are hashed to be signed by owners.",
        "params": {
          "_nonce": "Transaction nonce.",
          "baseGas": "Gas costs for data used to trigger the safe transaction.",
          "data": "Data payload.",
          "gasPrice": "Maximum gas price that should be used for this transaction.",
          "gasToken": "Token address (or 0 if ETH) that is used for the payment.",
          "operation": "Operation type.",
          "refundReceiver": "Address of receiver of gas payment (or 0 if tx.origin).",
          "safeTxGas": "Fas that should be used for the safe transaction.",
          "to": "Destination address.",
          "value": "Ether value."
        },
        "return": "Transaction hash bytes."
      },
      "execTransaction(address,uint256,bytes,uint8,uint256,uint256,uint256,address,address,bytes)": {
        "details": "Allows to execute a Safe transaction confirmed by required number of owners and then pays the account that submitted the transaction.      Note: The fees are always transfered, even if the user transaction fails.",
        "params": {
          "baseGas": "Gas costs for that are indipendent of the transaction execution(e.g. base transaction fee, signature check, payment of the refund)",
          "data": "Data payload of Safe transaction.",
          "gasPrice": "Gas price that should be used for the payment calculation.",
          "gasToken": "Token address (or 0 if ETH) that is used for the payment.",
          "operation": "Operation type of Safe transaction.",
          "refundReceiver": "Address of receiver of gas payment (or 0 if tx.origin).",
          "safeTxGas": "Gas that should be used for the Safe transaction.",
          "signatures": "Packed signature data ({bytes32 r}{bytes32 s}{uint8 v})",
          "to": "Destination address of Safe transaction.",
          "value": "Ether value of Safe transaction."
        }
      },
      "execTransactionFromModule(address,uint256,bytes,uint8)": {
        "details": "Allows a Module to execute a Safe transaction without any further confirmations.",
        "params": {
          "data": "Data payload of module transaction.",
          "operation": "Operation type of module transaction.",
          "to": "Destination address of module transaction.",
          "value": "Ether value of module transaction."
        }
      },
      "execTransactionFromModuleReturnData(address,uint256,bytes,uint8)": {
        "details": "Allows a Module to execute a Safe transaction without any further confirmations and return data",
        "params": {
          "data": "Data payload of module transaction.",
          "operation": "Operation type of module transaction.",
          "to": "Destination address of module transaction.",
          "value": "Ether value of module transaction."
        }
      },
      "getMessageHash(bytes)": {
        "details": "Returns hash of a message that can be signed by owners.",
        "params": {
          "message": "Message that should be hashed"
        },
        "return": "Message hash."
      },
      "getModules()": {
        "details": "Returns array of first 10 modules.",
        "return": "Array of modules."
      },
      "getModulesPaginated(address,uint256)": {
        "details": "Returns array of modules.",
        "params": {
          "pageSize": "Maximum number of modules that should be returned.",
          "start": "Start of the page."
        },
        "return": "Array of modules."
      },
      "getOwners()": {
        "details": "Returns array of owners.",
        "return": "Array of Safe owners."
      },
      "getTransactionHash(address,uint256,bytes,uint8,uint256,uint256,uint256,address,address,uint256)": {
        "details": "Returns hash to be signed by owners.",
        "params": {
          "_nonce": "Transaction nonce.",
          "baseGas": "Gas costs for data used to trigger the safe transaction.",
          "data": "Data payload.",
          "gasPrice": "Maximum gas price that should be used for this transaction.",
          "gasToken": "Token address (or 0 if ETH) that is used for the payment.",
          "operation": "Operation type.",
          "refundReceiver": "Address of receiver of gas payment (or 0 if tx.origin).",
          "safeTxGas": "Fas that should be used for the safe transaction.",
          "to": "Destination address.",
          "value": "Ether value."
        },
        "return": "Transaction hash."
      },
      "isValidSignature(bytes,bytes)": {
        "details": "Should return whether the signature provided is valid for the provided data.      The save does not implement the interface since `checkSignatures` is not a view method.      The method will not perform any state changes (see parameters of `checkSignatures`)",
        "params": {
          "_data": "Arbitrary length data signed on the behalf of address(this)",
          "_signature": "Signature byte array associated with _data"
        },
        "return": "a bool upon valid or invalid signature with corresponding _data"
      },
      "removeOwner(address,address,uint256)": {
        "details": "Allows to remove an owner from the Safe and update the threshold at the same time.      This can only be done via a Safe transaction.",
        "params": {
          "_threshold": "New threshold.",
          "owner": "Owner address to be removed.",
          "prevOwner": "Owner that pointed to the owner to be removed in the linked list"
        }
      },
      "requiredTxGas(address,uint256,bytes,uint8)": {
        "details": "Allows to estimate a Safe transaction.      This method is only meant for estimation purpose, therefore two different protection mechanism against execution in a transaction have been made:      1.) The method can only be called from the safe itself      2.) The response is returned with a revert      When estimating set `from` to the address of the safe.      Since the `estimateGas` function includes refunds, call this method to get an estimated of the costs that are deducted from the safe with `execTransaction`",
        "params": {
          "data": "Data payload of Safe transaction.",
          "operation": "Operation type of Safe transaction.",
          "to": "Destination address of Safe transaction.",
          "value": "Ether value of Safe transaction."
        },
        "return": "Estimate without refunds and overhead fees (base transaction and payload data gas costs)."
      },
      "setFallbackHandler(address)": {
        "details": "Allows to add a contract to handle fallback calls.      Only fallback calls without value and with data will be forwarded.      This can only be done via a Safe transaction.",
        "params": {
          "handler": "contract to handle fallbacks calls."
        }
      },
      "setup(address[],uint256,address,bytes,address,address,uint256,address)": {
        "details": "Setup function sets initial storage of contract.",
        "params": {
          "_owners": "List of Safe owners.",
          "_threshold": "Number of required confirmations for a Safe transaction.",
          "data": "Data payload for optional delegate call.",
          "fallbackHandler": "Handler for fallback calls to this contract",
          "payment": "Value that should be paid",
          "paymentReceiver": "Adddress that should receive the payment (or 0 if tx.origin)",
          "paymentToken": "Token that should be used for the payment (0 is ETH)",
          "to": "Contract address for optional delegate call."
        }
      },
      "signMessage(bytes)": {
        "details": "Marks a message as signed",
        "params": {
          "_data": "Arbitrary length data that should be marked as signed on the behalf of address(this)"
        }
      },
      "swapOwner(address,address,address)": {
        "details": "Allows to swap/replace an owner from the Safe with another address.      This can only be done via a Safe transaction.",
        "params": {
          "newOwner": "New owner address.",
          "oldOwner": "Owner address to be replaced.",
          "prevOwner": "Owner that pointed to the owner to be replaced in the linked list"
        }
      }
    },
    "title": "Gnosis Safe - A multisignature wallet with support for confirmations using signed messages based on ERC191."
  },
  "userdoc": {
    "methods": {
      "isValidSignature(bytes,bytes)": {
        "notice": "Implementation of ISignatureValidator (see `interfaces/ISignatureValidator.sol`)"
      }
    }
  }
}