{
  "contractName": "ModuleInterface",
  "abi": [
    {
      "constant": true,
      "inputs": [],
      "name": "NAME",
      "outputs": [
        {
          "name": "",
          "type": "string"
        }
      ],
      "payable": false,
      "stateMutability": "view",
      "type": "function"
    },
    {
      "constant": true,
      "inputs": [],
      "name": "VERSION",
      "outputs": [
        {
          "name": "",
          "type": "string"
        }
      ],
      "payable": false,
      "stateMutability": "view",
      "type": "function"
    }
  ],
  "bytecode": "0x608060405234801561001057600080fd5b5061015d806100206000396000f3fe608060405234801561001057600080fd5b5060043610610052577c01000000000000000000000000000000000000000000000000000000006000350463a3f4df7e8114610057578063ffa1ad74146100d4575b600080fd5b61005f6100dc565b6040805160208082528351818301528351919283929083019185019080838360005b83811015610099578181015183820152602001610081565b50505050905090810190601f1680156100c65780820380516001836020036101000a031916815260200191505b509250505060405180910390f35b61005f6100ef565b6040518060200160405280600081525081565b6040518060400160405280600581526020017f302e302e300000000000000000000000000000000000000000000000000000008152508156fea265627a7a72305820b21fbd915f76aa832770e9b4feb1786a88d89e1c6017ad30bdad1d13569792b064736f6c634300050a0032",
  "source": "pragma solidity 0.5.10;\n\n/// @title Module Interface - An interface to get the name and version of a module\n/// @author David Nicholas - <dnicholas@blockchains.com>\n\n//solium-disable-next-line blank-lines\ncontract ModuleInterface {\n    string public constant NAME = \"\";\n    string public constant VERSION = \"0.0.0\";\n}\n",
  "sourcePath": "/Users/heikoburkhardt/Documents/custody/multisig_contracts/contracts/module-interface/ModuleInterface.sol",
  "compiler": {
    "name": "solc",
    "version": "0.5.10+commit.5a6ea5b1.Emscripten.clang"
  },
  "schemaVersion": "3.0.20",
  "updatedAt": "2020-01-31T10:58:04.539Z",
  "devdoc": {
    "author": "David Nicholas - <dnicholas@blockchains.com>",
    "methods": {},
    "title": "Module Interface - An interface to get the name and version of a module"
  },
  "userdoc": {
    "methods": {}
  }
}