{
  "contractName": "Module",
  "abi": [
    {
      "constant": true,
      "inputs": [],
      "name": "manager",
      "outputs": [
        {
          "name": "",
          "type": "address"
        }
      ],
      "payable": false,
      "stateMutability": "view",
      "type": "function"
    },
    {
      "constant": false,
      "inputs": [
        {
          "name": "_masterCopy",
          "type": "address"
        }
      ],
      "name": "changeMasterCopy",
      "outputs": [],
      "payable": false,
      "stateMutability": "nonpayable",
      "type": "function"
    },
    {
      "anonymous": false,
      "inputs": [
        {
          "indexed": false,
          "name": "masterCopy",
          "type": "address"
        }
      ],
      "name": "ChangedMasterCopy",
      "type": "event"
    }
  ],
  "bytecode": "0x608060405234801561001057600080fd5b506102a2806100206000396000f3fe608060405234801561001057600080fd5b5060043610610052577c01000000000000000000000000000000000000000000000000000000006000350463481c6a7581146100575780637de7edef14610088575b600080fd5b61005f6100bd565b6040805173ffffffffffffffffffffffffffffffffffffffff9092168252519081900360200190f35b6100bb6004803603602081101561009e57600080fd5b503573ffffffffffffffffffffffffffffffffffffffff166100d9565b005b60015473ffffffffffffffffffffffffffffffffffffffff1681565b60015473ffffffffffffffffffffffffffffffffffffffff163314610149576040517f08c379a00000000000000000000000000000000000000000000000000000000081526004018080602001828103825260268152602001806102486026913960400191505060405180910390fd5b73ffffffffffffffffffffffffffffffffffffffff81166101b5576040517f08c379a00000000000000000000000000000000000000000000000000000000081526004018080602001828103825260248152602001806102246024913960400191505060405180910390fd5b6000805473ffffffffffffffffffffffffffffffffffffffff831673ffffffffffffffffffffffffffffffffffffffff19909116811790915560408051918252517f75e41bc35ff1bf14d81d1d2f649c0084a0f974f9289c803ec9898eeec4c8d0b89181900360200190a15056fe496e76616c6964206d617374657220636f707920616464726573732070726f76696465644d6574686f642063616e206f6e6c792062652063616c6c65642066726f6d206d616e61676572a265627a7a72305820ba34a856d4040238e29617335c90614c3f308f2aba857aa2630d161cd8f2af9264736f6c634300050a0032",
  "source": "pragma solidity >=0.5.0 <0.7.0;\nimport \"../common/MasterCopy.sol\";\nimport \"./ModuleManager.sol\";\n\n\n/// @title Module - Base class for modules.\n/// @author Stefan George - <stefan@gnosis.pm>\n/// @author Richard Meissner - <richard@gnosis.pm>\ncontract Module is MasterCopy {\n\n    ModuleManager public manager;\n\n    modifier authorized() {\n        require(msg.sender == address(manager), \"Method can only be called from manager\");\n        _;\n    }\n\n    function setManager()\n        internal\n    {\n        // manager can only be 0 at initalization of contract.\n        // Check ensures that setup function can only be called once.\n        require(address(manager) == address(0), \"Manager has already been set\");\n        manager = ModuleManager(msg.sender);\n    }\n}\n",
  "sourcePath": "@gnosis.pm/safe-contracts/contracts/base/Module.sol",
  "compiler": {
    "name": "solc",
    "version": "0.5.10+commit.5a6ea5b1.Emscripten.clang"
  },
  "schemaVersion": "3.0.20",
  "updatedAt": "2020-01-31T10:58:04.554Z",
  "devdoc": {
    "author": "Stefan George - <stefan@gnosis.pm>Richard Meissner - <richard@gnosis.pm>",
    "methods": {
      "changeMasterCopy(address)": {
        "details": "Allows to upgrade the contract. This can only be done via a Safe transaction.",
        "params": {
          "_masterCopy": "New contract address."
        }
      }
    },
    "title": "Module - Base class for modules."
  },
  "userdoc": {
    "methods": {}
  }
}