{
  "contractName": "OwnerManager",
  "abi": [
    {
      "anonymous": false,
      "inputs": [
        {
          "indexed": false,
          "name": "owner",
          "type": "address"
        }
      ],
      "name": "AddedOwner",
      "type": "event"
    },
    {
      "anonymous": false,
      "inputs": [
        {
          "indexed": false,
          "name": "owner",
          "type": "address"
        }
      ],
      "name": "RemovedOwner",
      "type": "event"
    },
    {
      "anonymous": false,
      "inputs": [
        {
          "indexed": false,
          "name": "threshold",
          "type": "uint256"
        }
      ],
      "name": "ChangedThreshold",
      "type": "event"
    },
    {
      "constant": false,
      "inputs": [
        {
          "name": "owner",
          "type": "address"
        },
        {
          "name": "_threshold",
          "type": "uint256"
        }
      ],
      "name": "addOwnerWithThreshold",
      "outputs": [],
      "payable": false,
      "stateMutability": "nonpayable",
      "type": "function"
    },
    {
      "constant": false,
      "inputs": [
        {
          "name": "prevOwner",
          "type": "address"
        },
        {
          "name": "owner",
          "type": "address"
        },
        {
          "name": "_threshold",
          "type": "uint256"
        }
      ],
      "name": "removeOwner",
      "outputs": [],
      "payable": false,
      "stateMutability": "nonpayable",
      "type": "function"
    },
    {
      "constant": false,
      "inputs": [
        {
          "name": "prevOwner",
          "type": "address"
        },
        {
          "name": "oldOwner",
          "type": "address"
        },
        {
          "name": "newOwner",
          "type": "address"
        }
      ],
      "name": "swapOwner",
      "outputs": [],
      "payable": false,
      "stateMutability": "nonpayable",
      "type": "function"
    },
    {
      "constant": false,
      "inputs": [
        {
          "name": "_threshold",
          "type": "uint256"
        }
      ],
      "name": "changeThreshold",
      "outputs": [],
      "payable": false,
      "stateMutability": "nonpayable",
      "type": "function"
    },
    {
      "constant": true,
      "inputs": [],
      "name": "getThreshold",
      "outputs": [
        {
          "name": "",
          "type": "uint256"
        }
      ],
      "payable": false,
      "stateMutability": "view",
      "type": "function"
    },
    {
      "constant": true,
      "inputs": [
        {
          "name": "owner",
          "type": "address"
        }
      ],
      "name": "isOwner",
      "outputs": [
        {
          "name": "",
          "type": "bool"
        }
      ],
      "payable": false,
      "stateMutability": "view",
      "type": "function"
    },
    {
      "constant": true,
      "inputs": [],
      "name": "getOwners",
      "outputs": [
        {
          "name": "",
          "type": "address[]"
        }
      ],
      "payable": false,
      "stateMutability": "view",
      "type": "function"
    }
  ],
  "bytecode": "0x608060405234801561001057600080fd5b50610ba6806100206000396000f3fe608060405234801561001057600080fd5b506004361061009a576000357c010000000000000000000000000000000000000000000000000000000090048063a0e67e2b11610078578063a0e67e2b14610124578063e318b52b1461017c578063e75235b8146101b4578063f8dc5dd9146101ce5761009a565b80630d582f131461009f5780632f54bf6e146100cd578063694e80c314610107575b600080fd5b6100cb600480360360408110156100b557600080fd5b50600160a060020a038135169060200135610204565b005b6100f3600480360360208110156100e357600080fd5b5035600160a060020a03166103d7565b604080519115158252519081900360200190f35b6100cb6004803603602081101561011d57600080fd5b5035610412565b61012c610515565b60408051602080825283518183015283519192839290830191858101910280838360005b83811015610168578181015183820152602001610150565b505050509050019250505060405180910390f35b6100cb6004803603606081101561019257600080fd5b50600160a060020a0381358116916020810135821691604090910135166105e0565b6101bc61088e565b60408051918252519081900360200190f35b6100cb600480360360608110156101e457600080fd5b50600160a060020a03813581169160208101359091169060400135610894565b3330146102455760405160e560020a62461bcd02815260040180806020018281038252602c815260200180610b46602c913960400191505060405180910390fd5b600160a060020a038216158015906102675750600160a060020a038216600114155b6102a9576040805160e560020a62461bcd02815260206004820152601e6024820152600080516020610a84833981519152604482015290519081900360640190fd5b600160a060020a038281166000908152602081905260409020541615610319576040805160e560020a62461bcd02815260206004820152601b60248201527f4164647265737320697320616c726561647920616e206f776e65720000000000604482015290519081900360640190fd5b600060208181527fada5013122d395ba3c54772283fb069b10426056ef8ca54750cb9bb552a59e7d8054600160a060020a03868116808652604080872080549390941673ffffffffffffffffffffffffffffffffffffffff19938416179093556001958690528354909116811790925583548401909355825190815291517f9465fa0c962cc76958e6373a993326400c1c94f8be2fe3a952adfa7f60b2ea269281900390910190a180600254146103d3576103d381610412565b5050565b6000600160a060020a03821660011480159061040c5750600160a060020a038281166000908152602081905260409020541615155b92915050565b3330146104535760405160e560020a62461bcd02815260040180806020018281038252602c815260200180610b46602c913960400191505060405180910390fd5b6001548111156104975760405160e560020a62461bcd028152600401808060200182810382526023815260200180610aa46023913960400191505060405180910390fd5b60018110156104da5760405160e560020a62461bcd028152600401808060200182810382526024815260200180610b226024913960400191505060405180910390fd5b60028190556040805182815290517f610f7ff2b304ae8903c3de74c60c6ab1f7d6226b3f52c5161905bb5ad4039c939181900360200190a150565b606080600154604051908082528060200260200182016040528015610544578160200160208202803883390190505b506001600090815260208190527fada5013122d395ba3c54772283fb069b10426056ef8ca54750cb9bb552a59e7d5491925090600160a060020a03165b600160a060020a0381166001146105d8578083838151811061059f57fe5b600160a060020a039283166020918202929092018101919091529181166000908152918290526040909120546001929092019116610581565b509091505090565b3330146106215760405160e560020a62461bcd02815260040180806020018281038252602c815260200180610b46602c913960400191505060405180910390fd5b600160a060020a038116158015906106435750600160a060020a038116600114155b610685576040805160e560020a62461bcd02815260206004820152601e6024820152600080516020610a84833981519152604482015290519081900360640190fd5b600160a060020a0381811660009081526020819052604090205416156106f5576040805160e560020a62461bcd02815260206004820152601b60248201527f4164647265737320697320616c726561647920616e206f776e65720000000000604482015290519081900360640190fd5b600160a060020a038216158015906107175750600160a060020a038216600114155b610759576040805160e560020a62461bcd02815260206004820152601e6024820152600080516020610a84833981519152604482015290519081900360640190fd5b600160a060020a038381166000908152602081905260409020548116908316146107b75760405160e560020a62461bcd028152600401808060200182810382526026815260200180610afc6026913960400191505060405180910390fd5b600160a060020a038281166000818152602081815260408083208054878716808652838620805492891673ffffffffffffffffffffffffffffffffffffffff19938416179055968a16855282852080548216909717909655928490528254909416909155825191825291517ff8d49fc529812e9a7c5c50e69c20f0dccc0db8fa95c98bc58cc9a4f1c1299eaf929181900390910190a160408051600160a060020a038316815290517f9465fa0c962cc76958e6373a993326400c1c94f8be2fe3a952adfa7f60b2ea269181900360200190a1505050565b60025490565b3330146108d55760405160e560020a62461bcd02815260040180806020018281038252602c815260200180610b46602c913960400191505060405180910390fd5b806001805403101561091b5760405160e560020a62461bcd028152600401808060200182810382526035815260200180610ac76035913960400191505060405180910390fd5b600160a060020a0382161580159061093d5750600160a060020a038216600114155b61097f576040805160e560020a62461bcd02815260206004820152601e6024820152600080516020610a84833981519152604482015290519081900360640190fd5b600160a060020a038381166000908152602081905260409020548116908316146109dd5760405160e560020a62461bcd028152600401808060200182810382526026815260200180610afc6026913960400191505060405180910390fd5b600160a060020a038281166000818152602081815260408083208054898716855282852080549190971673ffffffffffffffffffffffffffffffffffffffff199182161790965592849052825490941690915560018054600019019055825191825291517ff8d49fc529812e9a7c5c50e69c20f0dccc0db8fa95c98bc58cc9a4f1c1299eaf929181900390910190a18060025414610a7e57610a7e81610412565b50505056fe496e76616c6964206f776e657220616464726573732070726f766964656400005468726573686f6c642063616e6e6f7420657863656564206f776e657220636f756e744e6577206f776e657220636f756e74206e6565647320746f206265206c6172676572207468616e206e6577207468726573686f6c64496e76616c696420707265764f776e65722c206f776e657220706169722070726f76696465645468726573686f6c64206e6565647320746f2062652067726561746572207468616e20304d6574686f642063616e206f6e6c792062652063616c6c65642066726f6d207468697320636f6e7472616374a265627a7a723058204be7c08aa9831c19d8020ba50f50949fa069916dcf2af73185a7084e6bfc708564736f6c634300050a0032",
  "source": "pragma solidity >=0.5.0 <0.7.0;\nimport \"../common/SelfAuthorized.sol\";\n\n/// @title OwnerManager - Manages a set of owners and a threshold to perform actions.\n/// @author Stefan George - <stefan@gnosis.pm>\n/// @author Richard Meissner - <richard@gnosis.pm>\ncontract OwnerManager is SelfAuthorized {\n\n    event AddedOwner(address owner);\n    event RemovedOwner(address owner);\n    event ChangedThreshold(uint256 threshold);\n\n    address internal constant SENTINEL_OWNERS = address(0x1);\n\n    mapping(address => address) internal owners;\n    uint256 ownerCount;\n    uint256 internal threshold;\n\n    /// @dev Setup function sets initial storage of contract.\n    /// @param _owners List of Safe owners.\n    /// @param _threshold Number of required confirmations for a Safe transaction.\n    function setupOwners(address[] memory _owners, uint256 _threshold)\n        internal\n    {\n        // Threshold can only be 0 at initialization.\n        // Check ensures that setup function can only be called once.\n        require(threshold == 0, \"Owners have already been setup\");\n        // Validate that threshold is smaller than number of added owners.\n        require(_threshold <= _owners.length, \"Threshold cannot exceed owner count\");\n        // There has to be at least one Safe owner.\n        require(_threshold >= 1, \"Threshold needs to be greater than 0\");\n        // Initializing Safe owners.\n        address currentOwner = SENTINEL_OWNERS;\n        for (uint256 i = 0; i < _owners.length; i++) {\n            // Owner address cannot be null.\n            address owner = _owners[i];\n            require(owner != address(0) && owner != SENTINEL_OWNERS, \"Invalid owner address provided\");\n            // No duplicate owners allowed.\n            require(owners[owner] == address(0), \"Duplicate owner address provided\");\n            owners[currentOwner] = owner;\n            currentOwner = owner;\n        }\n        owners[currentOwner] = SENTINEL_OWNERS;\n        ownerCount = _owners.length;\n        threshold = _threshold;\n    }\n\n    /// @dev Allows to add a new owner to the Safe and update the threshold at the same time.\n    ///      This can only be done via a Safe transaction.\n    /// @param owner New owner address.\n    /// @param _threshold New threshold.\n    function addOwnerWithThreshold(address owner, uint256 _threshold)\n        public\n        authorized\n    {\n        // Owner address cannot be null.\n        require(owner != address(0) && owner != SENTINEL_OWNERS, \"Invalid owner address provided\");\n        // No duplicate owners allowed.\n        require(owners[owner] == address(0), \"Address is already an owner\");\n        owners[owner] = owners[SENTINEL_OWNERS];\n        owners[SENTINEL_OWNERS] = owner;\n        ownerCount++;\n        emit AddedOwner(owner);\n        // Change threshold if threshold was changed.\n        if (threshold != _threshold)\n            changeThreshold(_threshold);\n    }\n\n    /// @dev Allows to remove an owner from the Safe and update the threshold at the same time.\n    ///      This can only be done via a Safe transaction.\n    /// @param prevOwner Owner that pointed to the owner to be removed in the linked list\n    /// @param owner Owner address to be removed.\n    /// @param _threshold New threshold.\n    function removeOwner(address prevOwner, address owner, uint256 _threshold)\n        public\n        authorized\n    {\n        // Only allow to remove an owner, if threshold can still be reached.\n        require(ownerCount - 1 >= _threshold, \"New owner count needs to be larger than new threshold\");\n        // Validate owner address and check that it corresponds to owner index.\n        require(owner != address(0) && owner != SENTINEL_OWNERS, \"Invalid owner address provided\");\n        require(owners[prevOwner] == owner, \"Invalid prevOwner, owner pair provided\");\n        owners[prevOwner] = owners[owner];\n        owners[owner] = address(0);\n        ownerCount--;\n        emit RemovedOwner(owner);\n        // Change threshold if threshold was changed.\n        if (threshold != _threshold)\n            changeThreshold(_threshold);\n    }\n\n    /// @dev Allows to swap/replace an owner from the Safe with another address.\n    ///      This can only be done via a Safe transaction.\n    /// @param prevOwner Owner that pointed to the owner to be replaced in the linked list\n    /// @param oldOwner Owner address to be replaced.\n    /// @param newOwner New owner address.\n    function swapOwner(address prevOwner, address oldOwner, address newOwner)\n        public\n        authorized\n    {\n        // Owner address cannot be null.\n        require(newOwner != address(0) && newOwner != SENTINEL_OWNERS, \"Invalid owner address provided\");\n        // No duplicate owners allowed.\n        require(owners[newOwner] == address(0), \"Address is already an owner\");\n        // Validate oldOwner address and check that it corresponds to owner index.\n        require(oldOwner != address(0) && oldOwner != SENTINEL_OWNERS, \"Invalid owner address provided\");\n        require(owners[prevOwner] == oldOwner, \"Invalid prevOwner, owner pair provided\");\n        owners[newOwner] = owners[oldOwner];\n        owners[prevOwner] = newOwner;\n        owners[oldOwner] = address(0);\n        emit RemovedOwner(oldOwner);\n        emit AddedOwner(newOwner);\n    }\n\n    /// @dev Allows to update the number of required confirmations by Safe owners.\n    ///      This can only be done via a Safe transaction.\n    /// @param _threshold New threshold.\n    function changeThreshold(uint256 _threshold)\n        public\n        authorized\n    {\n        // Validate that threshold is smaller than number of owners.\n        require(_threshold <= ownerCount, \"Threshold cannot exceed owner count\");\n        // There has to be at least one Safe owner.\n        require(_threshold >= 1, \"Threshold needs to be greater than 0\");\n        threshold = _threshold;\n        emit ChangedThreshold(threshold);\n    }\n\n    function getThreshold()\n        public\n        view\n        returns (uint256)\n    {\n        return threshold;\n    }\n\n    function isOwner(address owner)\n        public\n        view\n        returns (bool)\n    {\n        return owner != SENTINEL_OWNERS && owners[owner] != address(0);\n    }\n\n    /// @dev Returns array of owners.\n    /// @return Array of Safe owners.\n    function getOwners()\n        public\n        view\n        returns (address[] memory)\n    {\n        address[] memory array = new address[](ownerCount);\n\n        // populate return array\n        uint256 index = 0;\n        address currentOwner = owners[SENTINEL_OWNERS];\n        while(currentOwner != SENTINEL_OWNERS) {\n            array[index] = currentOwner;\n            currentOwner = owners[currentOwner];\n            index ++;\n        }\n        return array;\n    }\n}\n",
  "sourcePath": "@gnosis.pm/safe-contracts/contracts/base/OwnerManager.sol",
  "compiler": {
    "name": "solc",
    "version": "0.5.10+commit.5a6ea5b1.Emscripten.clang"
  },
  "schemaVersion": "3.0.20",
  "updatedAt": "2020-01-31T10:58:04.559Z",
  "devdoc": {
    "author": "Stefan George - <stefan@gnosis.pm>Richard Meissner - <richard@gnosis.pm>",
    "methods": {
      "addOwnerWithThreshold(address,uint256)": {
        "details": "Allows to add a new owner to the Safe and update the threshold at the same time.      This can only be done via a Safe transaction.",
        "params": {
          "_threshold": "New threshold.",
          "owner": "New owner address."
        }
      },
      "changeThreshold(uint256)": {
        "details": "Allows to update the number of required confirmations by Safe owners.      This can only be done via a Safe transaction.",
        "params": {
          "_threshold": "New threshold."
        }
      },
      "getOwners()": {
        "details": "Returns array of owners.",
        "return": "Array of Safe owners."
      },
      "removeOwner(address,address,uint256)": {
        "details": "Allows to remove an owner from the Safe and update the threshold at the same time.      This can only be done via a Safe transaction.",
        "params": {
          "_threshold": "New threshold.",
          "owner": "Owner address to be removed.",
          "prevOwner": "Owner that pointed to the owner to be removed in the linked list"
        }
      },
      "swapOwner(address,address,address)": {
        "details": "Allows to swap/replace an owner from the Safe with another address.      This can only be done via a Safe transaction.",
        "params": {
          "newOwner": "New owner address.",
          "oldOwner": "Owner address to be replaced.",
          "prevOwner": "Owner that pointed to the owner to be replaced in the linked list"
        }
      }
    },
    "title": "OwnerManager - Manages a set of owners and a threshold to perform actions."
  },
  "userdoc": {
    "methods": {}
  }
}