{
  "contractName": "TransactionPaymentToken",
  "abi": [
    {
      "constant": true,
      "inputs": [],
      "name": "name",
      "outputs": [
        {
          "name": "",
          "type": "string"
        }
      ],
      "payable": false,
      "stateMutability": "view",
      "type": "function"
    },
    {
      "constant": true,
      "inputs": [],
      "name": "minter",
      "outputs": [
        {
          "name": "",
          "type": "address"
        }
      ],
      "payable": false,
      "stateMutability": "view",
      "type": "function"
    },
    {
      "constant": false,
      "inputs": [
        {
          "name": "spender",
          "type": "address"
        },
        {
          "name": "amount",
          "type": "uint256"
        }
      ],
      "name": "approve",
      "outputs": [
        {
          "name": "",
          "type": "bool"
        }
      ],
      "payable": false,
      "stateMutability": "nonpayable",
      "type": "function"
    },
    {
      "constant": true,
      "inputs": [],
      "name": "totalSupply",
      "outputs": [
        {
          "name": "",
          "type": "uint256"
        }
      ],
      "payable": false,
      "stateMutability": "view",
      "type": "function"
    },
    {
      "constant": true,
      "inputs": [],
      "name": "decimals",
      "outputs": [
        {
          "name": "",
          "type": "uint8"
        }
      ],
      "payable": false,
      "stateMutability": "view",
      "type": "function"
    },
    {
      "constant": false,
      "inputs": [
        {
          "name": "spender",
          "type": "address"
        },
        {
          "name": "addedValue",
          "type": "uint256"
        }
      ],
      "name": "increaseAllowance",
      "outputs": [
        {
          "name": "",
          "type": "bool"
        }
      ],
      "payable": false,
      "stateMutability": "nonpayable",
      "type": "function"
    },
    {
      "constant": true,
      "inputs": [
        {
          "name": "account",
          "type": "address"
        }
      ],
      "name": "balanceOf",
      "outputs": [
        {
          "name": "",
          "type": "uint256"
        }
      ],
      "payable": false,
      "stateMutability": "view",
      "type": "function"
    },
    {
      "constant": true,
      "inputs": [],
      "name": "soleInteractionAccount",
      "outputs": [
        {
          "name": "",
          "type": "address"
        }
      ],
      "payable": false,
      "stateMutability": "view",
      "type": "function"
    },
    {
      "constant": true,
      "inputs": [],
      "name": "symbol",
      "outputs": [
        {
          "name": "",
          "type": "string"
        }
      ],
      "payable": false,
      "stateMutability": "view",
      "type": "function"
    },
    {
      "constant": false,
      "inputs": [
        {
          "name": "spender",
          "type": "address"
        },
        {
          "name": "subtractedValue",
          "type": "uint256"
        }
      ],
      "name": "decreaseAllowance",
      "outputs": [
        {
          "name": "",
          "type": "bool"
        }
      ],
      "payable": false,
      "stateMutability": "nonpayable",
      "type": "function"
    },
    {
      "constant": true,
      "inputs": [
        {
          "name": "owner",
          "type": "address"
        },
        {
          "name": "spender",
          "type": "address"
        }
      ],
      "name": "allowance",
      "outputs": [
        {
          "name": "",
          "type": "uint256"
        }
      ],
      "payable": false,
      "stateMutability": "view",
      "type": "function"
    },
    {
      "inputs": [
        {
          "name": "_soleInteractionAccount",
          "type": "address"
        },
        {
          "name": "_minter",
          "type": "address"
        }
      ],
      "payable": false,
      "stateMutability": "nonpayable",
      "type": "constructor"
    },
    {
      "anonymous": false,
      "inputs": [
        {
          "indexed": true,
          "name": "from",
          "type": "address"
        },
        {
          "indexed": true,
          "name": "to",
          "type": "address"
        },
        {
          "indexed": false,
          "name": "value",
          "type": "uint256"
        }
      ],
      "name": "Transfer",
      "type": "event"
    },
    {
      "anonymous": false,
      "inputs": [
        {
          "indexed": true,
          "name": "owner",
          "type": "address"
        },
        {
          "indexed": true,
          "name": "spender",
          "type": "address"
        },
        {
          "indexed": false,
          "name": "value",
          "type": "uint256"
        }
      ],
      "name": "Approval",
      "type": "event"
    },
    {
      "constant": false,
      "inputs": [
        {
          "name": "account",
          "type": "address"
        },
        {
          "name": "amount",
          "type": "uint256"
        }
      ],
      "name": "mint",
      "outputs": [],
      "payable": false,
      "stateMutability": "nonpayable",
      "type": "function"
    },
    {
      "constant": false,
      "inputs": [
        {
          "name": "sender",
          "type": "address"
        },
        {
          "name": "recipient",
          "type": "address"
        },
        {
          "name": "amount",
          "type": "uint256"
        }
      ],
      "name": "transferFrom",
      "outputs": [
        {
          "name": "",
          "type": "bool"
        }
      ],
      "payable": false,
      "stateMutability": "nonpayable",
      "type": "function"
    },
    {
      "constant": false,
      "inputs": [
        {
          "name": "recipient",
          "type": "address"
        },
        {
          "name": "amount",
          "type": "uint256"
        }
      ],
      "name": "transfer",
      "outputs": [
        {
          "name": "",
          "type": "bool"
        }
      ],
      "payable": false,
      "stateMutability": "nonpayable",
      "type": "function"
    }
  ],
  "bytecode": "0x60c0604052601760808190527f5472616e73616374696f6e5061796d656e74546f6b656e00000000000000000060a090815261003e9160039190610163565b506040805180820190915260038082527f5450540000000000000000000000000000000000000000000000000000000000602090920191825261008391600491610163565b506005805460ff1916601217905534801561009d57600080fd5b50604051610fe1380380610fe1833981810160405260408110156100c057600080fd5b508051602090910151600160a060020a038116610128576040517f08c379a000000000000000000000000000000000000000000000000000000000815260040180806020018281038252602d815260200180610fb4602d913960400191505060405180910390fd5b6005805461010060a860020a031916610100600160a060020a039485160217905560068054600160a060020a031916919092161790556101fe565b828054600181600116156101000203166002900490600052602060002090601f016020900481019282601f106101a457805160ff19168380011785556101d1565b828001600101855582156101d1579182015b828111156101d15782518255916020019190600101906101b6565b506101dd9291506101e1565b5090565b6101fb91905b808211156101dd57600081556001016101e7565b90565b610da78061020d6000396000f3fe608060405234801561001057600080fd5b5060043610610107576000357c01000000000000000000000000000000000000000000000000000000009004806340c10f19116100a957806395d89b411161008357806395d89b41146102e3578063a457c2d7146102eb578063a9059cbb14610317578063dd62ed3e1461034357610107565b806340c10f191461028757806370a08231146102b557806382a9b3bf146102db57610107565b806318160ddd116100e557806318160ddd146101ed57806323b872dd14610207578063313ce5671461023d578063395093511461025b57610107565b806306fdde031461010c5780630754617214610189578063095ea7b3146101ad575b600080fd5b610114610371565b6040805160208082528351818301528351919283929083019185019080838360005b8381101561014e578181015183820152602001610136565b50505050905090810190601f16801561017b5780820380516001836020036101000a031916815260200191505b509250505060405180910390f35b6101916103ff565b60408051600160a060020a039092168252519081900360200190f35b6101d9600480360360408110156101c357600080fd5b50600160a060020a03813516906020013561040e565b604080519115158252519081900360200190f35b6101f561042b565b60408051918252519081900360200190f35b6101d96004803603606081101561021d57600080fd5b50600160a060020a03813581169160208101359091169060400135610431565b6102456104be565b6040805160ff9092168252519081900360200190f35b6101d96004803603604081101561027157600080fd5b50600160a060020a0381351690602001356104c7565b6102b36004803603604081101561029d57600080fd5b50600160a060020a038135169060200135610520565b005b6101f5600480360360208110156102cb57600080fd5b5035600160a060020a031661057a565b610191610595565b6101146105a9565b6101d96004803603604081101561030157600080fd5b50600160a060020a038135169060200135610604565b6101d96004803603604081101561032d57600080fd5b50600160a060020a038135169060200135610672565b6101f56004803603604081101561035957600080fd5b50600160a060020a03813581169160200135166106fd565b6003805460408051602060026001851615610100026000190190941693909304601f810184900484028201840190925281815292918301828280156103f75780601f106103cc576101008083540402835291602001916103f7565b820191906000526020600020905b8154815290600101906020018083116103da57829003601f168201915b505050505081565b600654600160a060020a031681565b600061042261041b610728565b848461072c565b50600192915050565b60025490565b60055460009084908490600160a060020a0380831661010090920416148061046b5750600554600160a060020a0383811661010090920416145b6104a95760405160e560020a62461bcd028152600401808060200182810382526047815260200180610c4f6047913960600191505060405180910390fd5b6104b486868661081e565b9695505050505050565b60055460ff1681565b60006104226104d4610728565b8461051b85600160006104e5610728565b600160a060020a03908116825260208083019390935260409182016000908120918c16815292529020549063ffffffff6108a616565b61072c565b600654600160a060020a0316331461056c5760405160e560020a62461bcd028152600401808060200182810382526021815260200180610cbc6021913960400191505060405180910390fd5b610576828261090a565b5050565b600160a060020a031660009081526020819052604090205490565b6005546101009004600160a060020a031681565b6004805460408051602060026001851615610100026000190190941693909304601f810184900484028201840190925281815292918301828280156103f75780601f106103cc576101008083540402835291602001916103f7565b6000610422610611610728565b8461051b85604051806060016040528060258152602001610d4e602591396001600061063b610728565b600160a060020a03908116825260208083019390935260409182016000908120918d1681529252902054919063ffffffff6109fd16565b60055460009033908490600160a060020a038083166101009092041614806106ac5750600554600160a060020a0383811661010090920416145b6106ea5760405160e560020a62461bcd028152600401808060200182810382526047815260200180610c4f6047913960600191505060405180910390fd5b6106f48585610a97565b95945050505050565b600160a060020a03918216600090815260016020908152604080832093909416825291909152205490565b3390565b600160a060020a0383166107745760405160e560020a62461bcd028152600401808060200182810382526024815260200180610d2a6024913960400191505060405180910390fd5b600160a060020a0382166107bc5760405160e560020a62461bcd028152600401808060200182810382526022815260200180610c2d6022913960400191505060405180910390fd5b600160a060020a03808416600081815260016020908152604080832094871680845294825291829020859055815185815291517f8c5be1e5ebec7d5bd14f71427d1e84f3dd0314c0f7b2291e5b200ac8c7c3b9259281900390910190a3505050565b600061082b848484610aa7565b61089c84610837610728565b61051b85604051806060016040528060288152602001610cdd60289139600160a060020a038a16600090815260016020526040812090610875610728565b600160a060020a03168152602081019190915260400160002054919063ffffffff6109fd16565b5060019392505050565b600082820183811015610903576040805160e560020a62461bcd02815260206004820152601b60248201527f536166654d6174683a206164646974696f6e206f766572666c6f770000000000604482015290519081900360640190fd5b9392505050565b600160a060020a038216610968576040805160e560020a62461bcd02815260206004820152601f60248201527f45524332303a206d696e7420746f20746865207a65726f206164647265737300604482015290519081900360640190fd5b60025461097b908263ffffffff6108a616565b600255600160a060020a0382166000908152602081905260409020546109a7908263ffffffff6108a616565b600160a060020a0383166000818152602081815260408083209490945583518581529351929391927fddf252ad1be2c89b69c2b068fc378daa952ba7f163c4a11628f55a4df523b3ef9281900390910190a35050565b60008184841115610a8f5760405160e560020a62461bcd0281526004018080602001828103825283818151815260200191508051906020019080838360005b83811015610a54578181015183820152602001610a3c565b50505050905090810190601f168015610a815780820380516001836020036101000a031916815260200191505b509250505060405180910390fd5b505050900390565b6000610422610aa4610728565b84845b600160a060020a038316610aef5760405160e560020a62461bcd028152600401808060200182810382526025815260200180610d056025913960400191505060405180910390fd5b600160a060020a038216610b375760405160e560020a62461bcd028152600401808060200182810382526023815260200180610c0a6023913960400191505060405180910390fd5b610b7a81604051806060016040528060268152602001610c9660269139600160a060020a038616600090815260208190526040902054919063ffffffff6109fd16565b600160a060020a038085166000908152602081905260408082209390935590841681522054610baf908263ffffffff6108a616565b600160a060020a038084166000818152602081815260409182902094909455805185815290519193928716927fddf252ad1be2c89b69c2b068fc378daa952ba7f163c4a11628f55a4df523b3ef92918290030190a350505056fe45524332303a207472616e7366657220746f20746865207a65726f206164647265737345524332303a20617070726f766520746f20746865207a65726f206164647265737345524332303a204f6e6c79207472616e73666572732066726f6d206f7220746f2074686520736f6c65496e746572616374696f6e4163636f756e742061726520616c6c6f77656445524332303a207472616e7366657220616d6f756e7420657863656564732062616c616e636545524332303a204f6e6c79206d696e7465722063616e206d696e7420746f6b656e45524332303a207472616e7366657220616d6f756e74206578636565647320616c6c6f77616e636545524332303a207472616e736665722066726f6d20746865207a65726f206164647265737345524332303a20617070726f76652066726f6d20746865207a65726f206164647265737345524332303a2064656372656173656420616c6c6f77616e63652062656c6f77207a65726fa265627a7a72305820f0cec267d7f2112dd3ca809ec87d0a67e61d6a3a3e27bb52f7d3a549a9a0707264736f6c634300050a003245524332303a20546865207a65726f20616464726573732063616e206e6f7420626520746865206d696e746572",
  "source": "pragma solidity 0.5.10;\n\nimport \"@openzeppelin/contracts/token/ERC20/ERC20.sol\";\n\n/**\n * @dev Implementation of the {IERC20} interface.\n *\n * This implementation is agnostic to the way tokens are created. This means\n * that a supply mechanism has to be added in a derived contract using {_mint}.\n * For a generic mechanism see {ERC20Mintable}.\n *\n * TIP: For a detailed writeup see our guide\n * https://forum.zeppelin.solutions/t/how-to-implement-erc20-supply-mechanisms/226[How\n * to implement supply mechanisms].\n *\n * We have followed general OpenZeppelin guidelines: functions revert instead\n * of returning `false` on failure. This behavior is nonetheless conventional\n * and does not conflict with the expectations of ERC20 applications.\n *\n * Additionally, an {Approval} event is emitted on calls to {transferFrom}.\n * This allows applications to reconstruct the allowance for all accounts just\n * by listening to said events. Other implementations of the EIP may not emit\n * these events, as it isn't required by the specification.\n *\n * Finally, the non-standard {decreaseAllowance} and {increaseAllowance}\n * functions have been added to mitigate the well-known issues around setting\n * allowances. See {IERC20-approve}.\n */\n\n//solium-disable-next-line blank-lines\ncontract TransactionPaymentToken is ERC20 {\n\n    string public name = \"TransactionPaymentToken\";\n\n    string public symbol = \"TPT\";\n\n    uint8 public decimals = 18;\n\n    address public soleInteractionAccount;\n\n    address public minter;\n\n    modifier onlySoleInteractionAccount(address sender, address recipient) {\n        require(\n            recipient == soleInteractionAccount || sender == soleInteractionAccount,\n            \"ERC20: Only transfers from or to the soleInteractionAccount are allowed\"\n        );\n        _;\n    }\n\n    constructor(address _soleInteractionAccount, address _minter) public {\n        require(_minter != address(0), \"ERC20: The zero address can not be the minter\");\n        soleInteractionAccount = _soleInteractionAccount;\n        minter = _minter;\n    }\n\n    /**\n     * @dev Mints new otken.\n     *\n     * Requirements:\n     *\n     * - msg.sender must be the minter.\n     */\n    function mint(address account, uint256 amount) public {\n        require(msg.sender == minter, \"ERC20: Only minter can mint token\");\n        _mint(account, amount);\n    }\n\n    /**\n     * @dev See {IERC20-transferFrom}.\n     *\n     * Emits an {Approval} event indicating the updated allowance. This is not\n     * required by the EIP. See the note at the beginning of {ERC20};\n     *\n     * Requirements:\n     * - `sender` and `recipient` cannot be the zero address.\n     * - `sender` must have a balance of at least `amount`.\n     * - the sender or the recipient must be the `soleInteractionAccount`\n     * - the caller must have allowance for `sender`'s tokens of at least\n     * `amount`.\n     */\n    function transferFrom(address sender, address recipient, uint256 amount)\n        public\n        onlySoleInteractionAccount(sender, recipient)\n        returns (bool)\n    {\n        return super.transferFrom(sender, recipient, amount);\n    }\n\n    /**\n     * @dev See {IERC20-transfer}.\n     *\n     * Requirements:\n     *\n     * - `recipient` cannot be the zero address.\n     * - the caller must have a balance of at least `amount`.\n     * - the caller or the recipient must be the `soleInteractionAccount`\n     */\n    function transfer(address recipient, uint256 amount)\n        public\n        onlySoleInteractionAccount(msg.sender, recipient)\n        returns (bool)\n    {\n        return super.transfer(recipient, amount);\n\n    }\n\n}\n",
  "sourcePath": "/Users/heikoburkhardt/Documents/custody/multisig_contracts/contracts/transaction-payment-token/TransactionPaymentToken.sol",
  "compiler": {
    "name": "solc",
    "version": "0.5.10+commit.5a6ea5b1.Emscripten.clang"
  },
  "schemaVersion": "3.0.16",
  "updatedAt": "2020-02-02T09:01:12.876Z",
  "devdoc": {
    "details": "Implementation of the {IERC20} interface. * This implementation is agnostic to the way tokens are created. This means that a supply mechanism has to be added in a derived contract using {_mint}. For a generic mechanism see {ERC20Mintable}. * TIP: For a detailed writeup see our guide https://forum.zeppelin.solutions/t/how-to-implement-erc20-supply-mechanisms/226[How to implement supply mechanisms]. * We have followed general OpenZeppelin guidelines: functions revert instead of returning `false` on failure. This behavior is nonetheless conventional and does not conflict with the expectations of ERC20 applications. * Additionally, an {Approval} event is emitted on calls to {transferFrom}. This allows applications to reconstruct the allowance for all accounts just by listening to said events. Other implementations of the EIP may not emit these events, as it isn't required by the specification. * Finally, the non-standard {decreaseAllowance} and {increaseAllowance} functions have been added to mitigate the well-known issues around setting allowances. See {IERC20-approve}.",
    "methods": {
      "allowance(address,address)": {
        "details": "See {IERC20-allowance}."
      },
      "approve(address,uint256)": {
        "details": "See {IERC20-approve}.     * Requirements:     * - `spender` cannot be the zero address."
      },
      "balanceOf(address)": {
        "details": "See {IERC20-balanceOf}."
      },
      "decreaseAllowance(address,uint256)": {
        "details": "Atomically decreases the allowance granted to `spender` by the caller.     * This is an alternative to {approve} that can be used as a mitigation for problems described in {IERC20-approve}.     * Emits an {Approval} event indicating the updated allowance.     * Requirements:     * - `spender` cannot be the zero address. - `spender` must have allowance for the caller of at least `subtractedValue`."
      },
      "increaseAllowance(address,uint256)": {
        "details": "Atomically increases the allowance granted to `spender` by the caller.     * This is an alternative to {approve} that can be used as a mitigation for problems described in {IERC20-approve}.     * Emits an {Approval} event indicating the updated allowance.     * Requirements:     * - `spender` cannot be the zero address."
      },
      "mint(address,uint256)": {
        "details": "Mints new otken.     * Requirements:     * - msg.sender must be the minter."
      },
      "totalSupply()": {
        "details": "See {IERC20-totalSupply}."
      },
      "transfer(address,uint256)": {
        "details": "See {IERC20-transfer}.     * Requirements:     * - `recipient` cannot be the zero address. - the caller must have a balance of at least `amount`. - the caller or the recipient must be the `soleInteractionAccount`"
      },
      "transferFrom(address,address,uint256)": {
        "details": "See {IERC20-transferFrom}.     * Emits an {Approval} event indicating the updated allowance. This is not required by the EIP. See the note at the beginning of {ERC20};     * Requirements: - `sender` and `recipient` cannot be the zero address. - `sender` must have a balance of at least `amount`. - the sender or the recipient must be the `soleInteractionAccount` - the caller must have allowance for `sender`'s tokens of at least `amount`."
      }
    }
  },
  "userdoc": {
    "methods": {}
  }
}