{
  "contractName": "WhitelistModule",
  "abi": [
    {
      "constant": true,
      "inputs": [
        {
          "name": "",
          "type": "address"
        }
      ],
      "name": "isWhitelisted",
      "outputs": [
        {
          "name": "",
          "type": "bool"
        }
      ],
      "payable": false,
      "stateMutability": "view",
      "type": "function"
    },
    {
      "constant": true,
      "inputs": [],
      "name": "manager",
      "outputs": [
        {
          "name": "",
          "type": "address"
        }
      ],
      "payable": false,
      "stateMutability": "view",
      "type": "function"
    },
    {
      "constant": false,
      "inputs": [
        {
          "name": "_masterCopy",
          "type": "address"
        }
      ],
      "name": "changeMasterCopy",
      "outputs": [],
      "payable": false,
      "stateMutability": "nonpayable",
      "type": "function"
    },
    {
      "constant": true,
      "inputs": [],
      "name": "NAME",
      "outputs": [
        {
          "name": "",
          "type": "string"
        }
      ],
      "payable": false,
      "stateMutability": "view",
      "type": "function"
    },
    {
      "constant": true,
      "inputs": [],
      "name": "VERSION",
      "outputs": [
        {
          "name": "",
          "type": "string"
        }
      ],
      "payable": false,
      "stateMutability": "view",
      "type": "function"
    },
    {
      "anonymous": false,
      "inputs": [
        {
          "indexed": false,
          "name": "masterCopy",
          "type": "address"
        }
      ],
      "name": "ChangedMasterCopy",
      "type": "event"
    },
    {
      "constant": false,
      "inputs": [
        {
          "name": "accounts",
          "type": "address[]"
        }
      ],
      "name": "setup",
      "outputs": [],
      "payable": false,
      "stateMutability": "nonpayable",
      "type": "function"
    },
    {
      "constant": false,
      "inputs": [
        {
          "name": "account",
          "type": "address"
        }
      ],
      "name": "addToWhitelist",
      "outputs": [],
      "payable": false,
      "stateMutability": "nonpayable",
      "type": "function"
    },
    {
      "constant": false,
      "inputs": [
        {
          "name": "account",
          "type": "address"
        }
      ],
      "name": "removeFromWhitelist",
      "outputs": [],
      "payable": false,
      "stateMutability": "nonpayable",
      "type": "function"
    },
    {
      "constant": false,
      "inputs": [
        {
          "name": "to",
          "type": "address"
        },
        {
          "name": "value",
          "type": "uint256"
        },
        {
          "name": "data",
          "type": "bytes"
        }
      ],
      "name": "executeWhitelisted",
      "outputs": [
        {
          "name": "",
          "type": "bool"
        }
      ],
      "payable": false,
      "stateMutability": "nonpayable",
      "type": "function"
    }
  ],
  "bytecode": "0x608060405234801561001057600080fd5b50610bb6806100206000396000f3fe608060405234801561001057600080fd5b50600436106100b0576000357c0100000000000000000000000000000000000000000000000000000000900480638ab1d681116100835780638ab1d681146101f6578063a3f4df7e1461021c578063bd5b853b14610299578063e43252d71461033c578063ffa1ad7414610362576100b0565b80632f2f3be1146100b55780633af32abf14610184578063481c6a75146101aa5780637de7edef146101ce575b600080fd5b610170600480360360608110156100cb57600080fd5b600160a060020a03823516916020810135918101906060810160408201356401000000008111156100fb57600080fd5b82018360208201111561010d57600080fd5b8035906020019184600183028401116401000000008311171561012f57600080fd5b91908080601f01602080910402602001604051908101604052809392919081815260200183838082843760009201919091525092955061036a945050505050565b604080519115158252519081900360200190f35b6101706004803603602081101561019a57600080fd5b5035600160a060020a0316610602565b6101b2610617565b60408051600160a060020a039092168252519081900360200190f35b6101f4600480360360208110156101e457600080fd5b5035600160a060020a0316610626565b005b6101f46004803603602081101561020c57600080fd5b5035600160a060020a031661071b565b6102246107f8565b6040805160208082528351818301528351919283929083019185019080838360005b8381101561025e578181015183820152602001610246565b50505050905090810190601f16801561028b5780820380516001836020036101000a031916815260200191505b509250505060405180910390f35b6101f4600480360360208110156102af57600080fd5b8101906020810181356401000000008111156102ca57600080fd5b8201836020820111156102dc57600080fd5b803590602001918460208302840111640100000000831117156102fe57600080fd5b919080806020026020016040519081016040528093929190818152602001838360200280828437600092019190915250929550610831945050505050565b6101f46004803603602081101561035257600080fd5b5035600160a060020a03166108f7565b610224610a36565b600154604080517f2f54bf6e0000000000000000000000000000000000000000000000000000000081523360048201529051600092600160a060020a031691632f54bf6e916024808301926020929190829003018186803b1580156103ce57600080fd5b505afa1580156103e2573d6000803e3d6000fd5b505050506040513d60208110156103f857600080fd5b50516104385760405160e560020a62461bcd028152600401808060200182810382526025815260200180610b166025913960400191505060405180910390fd5b600160a060020a03841660009081526002602052604090205460ff166104925760405160e560020a62461bcd028152600401808060200182810382526021815260200180610b3b6021913960400191505060405180910390fd5b6001546040517f468721a7000000000000000000000000000000000000000000000000000000008152600160a060020a03868116600483019081526024830187905292169163468721a79187918791879160009160448101906064018360ff168152602001828103825284818151815260200191508051906020019080838360005b8381101561052c578181015183820152602001610514565b50505050905090810190601f1680156105595780820380516001836020036101000a031916815260200191505b5095505050505050602060405180830381600087803b15801561057b57600080fd5b505af115801561058f573d6000803e3d6000fd5b505050506040513d60208110156105a557600080fd5b50516105fb576040805160e560020a62461bcd02815260206004820152601d60248201527f436f756c64206e6f742065786563757465207472616e73616374696f6e000000604482015290519081900360640190fd5b9392505050565b60026020526000908152604090205460ff1681565b600154600160a060020a031681565b600154600160a060020a031633146106725760405160e560020a62461bcd028152600401808060200182810382526026815260200180610b5c6026913960400191505060405180910390fd5b600160a060020a0381166106ba5760405160e560020a62461bcd028152600401808060200182810382526024815260200180610af26024913960400191505060405180910390fd5b60008054600160a060020a03831673ffffffffffffffffffffffffffffffffffffffff19909116811790915560408051918252517f75e41bc35ff1bf14d81d1d2f649c0084a0f974f9289c803ec9898eeec4c8d0b89181900360200190a150565b600154600160a060020a031633146107675760405160e560020a62461bcd028152600401808060200182810382526026815260200180610b5c6026913960400191505060405180910390fd5b600160a060020a03811660009081526002602052604090205460ff166107d7576040805160e560020a62461bcd02815260206004820152601a60248201527f4163636f756e74206973206e6f742077686974656c6973746564000000000000604482015290519081900360640190fd5b600160a060020a03166000908152600260205260409020805460ff19169055565b6040518060400160405280601081526020017f57686974656c697374204d6f64756c650000000000000000000000000000000081525081565b610839610a6f565b60005b81518110156108f357600082828151811061085357fe5b602002602001015190506000600160a060020a031681600160a060020a031614156108c8576040805160e560020a62461bcd02815260206004820152601860248201527f496e76616c6964206163636f756e742070726f76696465640000000000000000604482015290519081900360640190fd5b600160a060020a03166000908152600260205260409020805460ff191660019081179091550161083c565b5050565b600154600160a060020a031633146109435760405160e560020a62461bcd028152600401808060200182810382526026815260200180610b5c6026913960400191505060405180910390fd5b600160a060020a0381166109a1576040805160e560020a62461bcd02815260206004820152601860248201527f496e76616c6964206163636f756e742070726f76696465640000000000000000604482015290519081900360640190fd5b600160a060020a03811660009081526002602052604090205460ff1615610a12576040805160e560020a62461bcd02815260206004820152601e60248201527f4163636f756e7420697320616c72656164792077686974656c69737465640000604482015290519081900360640190fd5b600160a060020a03166000908152600260205260409020805460ff19166001179055565b6040518060400160405280600581526020017f302e312e3000000000000000000000000000000000000000000000000000000081525081565b600154600160a060020a031615610ad0576040805160e560020a62461bcd02815260206004820152601c60248201527f4d616e616765722068617320616c7265616479206265656e2073657400000000604482015290519081900360640190fd5b6001805473ffffffffffffffffffffffffffffffffffffffff19163317905556fe496e76616c6964206d617374657220636f707920616464726573732070726f76696465644d6574686f642063616e206f6e6c792062652063616c6c656420627920616e206f776e6572546172676574206163636f756e74206973206e6f742077686974656c69737465644d6574686f642063616e206f6e6c792062652063616c6c65642066726f6d206d616e61676572a265627a7a7230582006eb6eca2234862cb07ba84daa17bb6551665d630aade9ecce578f10bec5f7ec64736f6c634300050a0032",
  "source": "pragma solidity >=0.5.0 <0.7.0;\nimport \"../base/Module.sol\";\nimport \"../base/ModuleManager.sol\";\nimport \"../base/OwnerManager.sol\";\nimport \"../common/Enum.sol\";\n\n\n/// @title Whitelist Module - Allows to execute transactions to whitelisted addresses without confirmations.\n/// @author Stefan George - <stefan@gnosis.pm>\ncontract WhitelistModule is Module {\n\n    string public constant NAME = \"Whitelist Module\";\n    string public constant VERSION = \"0.1.0\";\n\n    // isWhitelisted mapping maps destination address to boolean.\n    mapping (address => bool) public isWhitelisted;\n\n    /// @dev Setup function sets initial storage of contract.\n    /// @param accounts List of whitelisted accounts.\n    function setup(address[] memory accounts)\n        public\n    {\n        setManager();\n        for (uint256 i = 0; i < accounts.length; i++) {\n            address account = accounts[i];\n            require(account != address(0), \"Invalid account provided\");\n            isWhitelisted[account] = true;\n        }\n    }\n\n    /// @dev Allows to add destination to whitelist. This can only be done via a Safe transaction.\n    /// @param account Destination address.\n    function addToWhitelist(address account)\n        public\n        authorized\n    {\n        require(account != address(0), \"Invalid account provided\");\n        require(!isWhitelisted[account], \"Account is already whitelisted\");\n        isWhitelisted[account] = true;\n    }\n\n    /// @dev Allows to remove destination from whitelist. This can only be done via a Safe transaction.\n    /// @param account Destination address.\n    function removeFromWhitelist(address account)\n        public\n        authorized\n    {\n        require(isWhitelisted[account], \"Account is not whitelisted\");\n        isWhitelisted[account] = false;\n    }\n\n    /// @dev Returns if Safe transaction is to a whitelisted destination.\n    /// @param to Whitelisted destination address.\n    /// @param value Not checked.\n    /// @param data Not checked.\n    /// @return Returns if transaction can be executed.\n    function executeWhitelisted(address to, uint256 value, bytes memory data)\n        public\n        returns (bool)\n    {\n        // Only Safe owners are allowed to execute transactions to whitelisted accounts.\n        require(OwnerManager(address(manager)).isOwner(msg.sender), \"Method can only be called by an owner\");\n        require(isWhitelisted[to], \"Target account is not whitelisted\");\n        require(manager.execTransactionFromModule(to, value, data, Enum.Operation.Call), \"Could not execute transaction\");\n    }\n}\n",
  "sourcePath": "@gnosis.pm/safe-contracts/contracts/modules/WhitelistModule.sol",
  "compiler": {
    "name": "solc",
    "version": "0.5.10+commit.5a6ea5b1.Emscripten.clang"
  },
  "schemaVersion": "3.0.20",
  "updatedAt": "2020-01-31T10:58:04.574Z",
  "devdoc": {
    "author": "Stefan George - <stefan@gnosis.pm>",
    "methods": {
      "addToWhitelist(address)": {
        "details": "Allows to add destination to whitelist. This can only be done via a Safe transaction.",
        "params": {
          "account": "Destination address."
        }
      },
      "changeMasterCopy(address)": {
        "details": "Allows to upgrade the contract. This can only be done via a Safe transaction.",
        "params": {
          "_masterCopy": "New contract address."
        }
      },
      "executeWhitelisted(address,uint256,bytes)": {
        "details": "Returns if Safe transaction is to a whitelisted destination.",
        "params": {
          "data": "Not checked.",
          "to": "Whitelisted destination address.",
          "value": "Not checked."
        },
        "return": "Returns if transaction can be executed."
      },
      "removeFromWhitelist(address)": {
        "details": "Allows to remove destination from whitelist. This can only be done via a Safe transaction.",
        "params": {
          "account": "Destination address."
        }
      },
      "setup(address[])": {
        "details": "Setup function sets initial storage of contract.",
        "params": {
          "accounts": "List of whitelisted accounts."
        }
      }
    },
    "title": "Whitelist Module - Allows to execute transactions to whitelisted addresses without confirmations."
  },
  "userdoc": {
    "methods": {}
  }
}